{"abi":[{"type":"function","name":"arbitraryCall","inputs":[{"name":"target","type":"address","internalType":"address"},{"name":"arguments","type":"bytes","internalType":"bytes"}],"outputs":[],"stateMutability":"nonpayable"}],"bytecode":{"object":"0x608080604052346100165761019a908161001b8239f35b5f80fdfe6080806040526004361015610012575f80fd5b5f3560e01c632154bf2814610025575f80fd5b346101605760407ffffffffffffffffffffffffffffffffffffffffffffffffffffffffffffffffc360112610160576004359073ffffffffffffffffffffffffffffffffffffffff821682036101605760243567ffffffffffffffff92838211610160573660238301121561016057816004013592848411610160573660248585010111610160575f8185829660248497018337810182815203925af1903d1561015a573d81811161012d5760405191601f82017fffffffffffffffffffffffffffffffffffffffffffffffffffffffffffffffe0908116603f011683019081118382101761012d5760405281525f60203d92013e5b1561012257005b6040513d5f823e3d90fd5b7f4e487b71000000000000000000000000000000000000000000000000000000005f52604160045260245ffd5b5061011b565b5f80fdfea26469706673582212207de49f52a6e4b2426c722d290df7e7381b2b46656f1012ffe4c9240a5bf64ae564736f6c63430008170033","linkReferences":{}},"methodIdentifiers":{"arbitraryCall(address,bytes)":"2154bf28"},"id":19}