{"abi":[{"type":"constructor","inputs":[{"name":"factory","type":"address","internalType":"contract IEscrowFactory"},{"name":"lop","type":"address","internalType":"contract IOrderMixin"},{"name":"initialOwner","type":"address","internalType":"address"}],"stateMutability":"nonpayable"},{"type":"receive","stateMutability":"payable"},{"type":"function","name":"arbitraryCalls","inputs":[{"name":"targets","type":"address[]","internalType":"address[]"},{"name":"arguments","type":"bytes[]","internalType":"bytes[]"}],"outputs":[],"stateMutability":"nonpayable"},{"type":"function","name":"deployDst","inputs":[{"name":"dstImmutables","type":"tuple","internalType":"struct IBaseEscrow.Immutables","components":[{"name":"orderHash","type":"bytes32","internalType":"bytes32"},{"name":"hashlock","type":"bytes32","internalType":"bytes32"},{"name":"maker","type":"uint256","internalType":"Address"},{"name":"taker","type":"uint256","internalType":"Address"},{"name":"token","type":"uint256","internalType":"Address"},{"name":"amount","type":"uint256","internalType":"uint256"},{"name":"safetyDeposit","type":"uint256","internalType":"uint256"},{"name":"timelocks","type":"uint256","internalType":"Timelocks"},{"name":"parameters","type":"bytes","internalType":"bytes"}]},{"name":"srcCancellationTimestamp","type":"uint256","internalType":"uint256"}],"outputs":[],"stateMutability":"payable"},{"type":"function","name":"deploySrc","inputs":[{"name":"immutables","type":"tuple","internalType":"struct IBaseEscrow.Immutables","components":[{"name":"orderHash","type":"bytes32","internalType":"bytes32"},{"name":"hashlock","type":"bytes32","internalType":"bytes32"},{"name":"maker","type":"uint256","internalType":"Address"},{"name":"taker","type":"uint256","internalType":"Address"},{"name":"token","type":"uint256","internalType":"Address"},{"name":"amount","type":"uint256","internalType":"uint256"},{"name":"safetyDeposit","type":"uint256","internalType":"uint256"},{"name":"timelocks","type":"uint256","internalType":"Timelocks"},{"name":"parameters","type":"bytes","internalType":"bytes"}]},{"name":"order","type":"tuple","internalType":"struct IOrderMixin.Order","components":[{"name":"salt","type":"uint256","internalType":"uint256"},{"name":"maker","type":"uint256","internalType":"Address"},{"name":"receiver","type":"uint256","internalType":"Address"},{"name":"makerAsset","type":"uint256","internalType":"Address"},{"name":"takerAsset","type":"uint256","internalType":"Address"},{"name":"makingAmount","type":"uint256","internalType":"uint256"},{"name":"takingAmount","type":"uint256","internalType":"uint256"},{"name":"makerTraits","type":"uint256","internalType":"MakerTraits"}]},{"name":"r","type":"bytes32","internalType":"bytes32"},{"name":"vs","type":"bytes32","internalType":"bytes32"},{"name":"amount","type":"uint256","internalType":"uint256"},{"name":"takerTraits","type":"uint256","internalType":"TakerTraits"},{"name":"args","type":"bytes","internalType":"bytes"}],"outputs":[],"stateMutability":"nonpayable"},{"type":"function","name":"owner","inputs":[],"outputs":[{"name":"","type":"address","internalType":"address"}],"stateMutability":"view"},{"type":"function","name":"renounceOwnership","inputs":[],"outputs":[],"stateMutability":"nonpayable"},{"type":"function","name":"transferOwnership","inputs":[{"name":"newOwner","type":"address","internalType":"address"}],"outputs":[],"stateMutability":"nonpayable"},{"type":"event","name":"OwnershipTransferred","inputs":[{"name":"previousOwner","type":"address","indexed":true,"internalType":"address"},{"name":"newOwner","type":"address","indexed":true,"internalType":"address"}],"anonymous":false},{"type":"error","name":"InvalidLength","inputs":[]},{"type":"error","name":"LengthMismatch","inputs":[]},{"type":"error","name":"NativeTokenSendingFailure","inputs":[]},{"type":"error","name":"OwnableInvalidOwner","inputs":[{"name":"owner","type":"address","internalType":"address"}]},{"type":"error","name":"OwnableUnauthorizedAccount","inputs":[{"name":"account","type":"address","internalType":"address"}]}],"bytecode":{"object":"0x60c0346100f557601f610dc638819003918201601f19168301916001600160401b038311848410176100f9578084926060946040528339810103126100f55780516001600160a01b03919082811681036100f55760208201519183831683036100f557604001518381168091036100f55780156100dd575f80546001600160a01b03198116831782556040519516907f8be0079c531659141344cd1fd0a4f28419497f9722a3daafe3b4186f6b6457e09080a360805260a052610cb8908161010e82396080518181816103ff0152610800015260a051816105960152f35b604051631e4fbdf760e01b81525f6004820152602490fd5b5f80fd5b634e487b7160e01b5f52604160045260245ffdfe6080604052600436101561001a575b3615610018575f80fd5b005b5f803560e01c80631f3177ba1461097857806348de5a3b14610792578063715018a6146106f65780638da5cb5b146106a5578063d9290a331461014f5763f2fde38b14610067575061000e565b3461014c5760207ffffffffffffffffffffffffffffffffffffffffffffffffffffffffffffffffc36011261014c5760043573ffffffffffffffffffffffffffffffffffffffff808216809203610148576100c0610c32565b8115610117575f54827fffffffffffffffffffffffff00000000000000000000000000000000000000008216175f55167f8be0079c531659141344cd1fd0a4f28419497f9722a3daafe3b4186f6b6457e05f80a380f35b602483604051907f1e4fbdf70000000000000000000000000000000000000000000000000000000082526004820152fd5b8280fd5b80fd5b503461014c577ffffffffffffffffffffffffffffffffffffffffffffffffffffffffffffffffc6101c08136011261066c5767ffffffffffffffff6004351161066c57610120906004353603011261014c576101007fffffffffffffffffffffffffffffffffffffffffffffffffffffffffffffffdc36011261014c5767ffffffffffffffff6101a4351161014c573660236101a43501121561014c5767ffffffffffffffff6101a435600401351161014c573660246101a435600401356101a43501011161014c57610220610c32565b6040518061012081011067ffffffffffffffff6101208301111761067857610120810160409081526004803590810135835260248101356020840152604481013591830191909152606481013560608301526084810135608083015260a481013560a083015260c481013560c083015260e481013560e0830152610104013567ffffffffffffffff811161014857366023826004350101121561014857826102ce6004838135010135610b6d565b916102dc6040519384610b2c565b600480358201908101358085523691016024011161066c57602090600490813581018083013590602401868501378135010135830101526101008201524260e01b7bffffffffffffffffffffffffffffffffffffffffffffffffffffffff60e46004350135161760e082015281604051917ffd6de0350000000000000000000000000000000000000000000000000000000083526020600484015280516024840152602081015160448401526040810151606484015260608101516084840152608081015160a484015260a081015160c484015260c081015160e484015260e0810151610104840152602083806103e6610100850151610120610124840152610144830190610bd6565b038173ffffffffffffffffffffffffffffffffffffffff7f0000000000000000000000000000000000000000000000000000000000000000165afa9283156105ee578293610623575b50818060c081930151855af1610443610ba7565b50156105f957606061057c917fffffffffffffffffffffffffffffffffffffffff00000000000000000000000060405191831b1660208201526101a4356004013560246101a4350160348301376104b36034826101a4356004013581018783820152036014810184520182610b2c565b604051809381927ff497df75000000000000000000000000000000000000000000000000000000008352602435600484015260443560248401526064356044840152608435606484015260a435608484015260c43560a484015260e43560c48401526101043560e48401526101243561010484015261014435610124840152610164356101448401527f080000000000000000000000000000000000000000000000000000000000000061018435176101648401526101a06101848401526101a4830190610bd6565b03818573ffffffffffffffffffffffffffffffffffffffff7f0000000000000000000000000000000000000000000000000000000000000000165af180156105ee576105c6575080f35b606090813d83116105e7575b6105dc8183610b2c565b8101031261014c5780f35b503d6105d2565b6040513d84823e3d90fd5b60046040517f8a0332d5000000000000000000000000000000000000000000000000000000008152fd5b9092506020813d602011610670575b8161063f60209383610b2c565b8101031261066c575173ffffffffffffffffffffffffffffffffffffffff8116810361066c57918161042f565b5080fd5b3d9150610632565b7f4e487b71000000000000000000000000000000000000000000000000000000005f52604160045260245ffd5b503461014c57807ffffffffffffffffffffffffffffffffffffffffffffffffffffffffffffffffc36011261014c5773ffffffffffffffffffffffffffffffffffffffff6020915416604051908152f35b503461014c57807ffffffffffffffffffffffffffffffffffffffffffffffffffffffffffffffffc36011261014c5761072d610c32565b5f73ffffffffffffffffffffffffffffffffffffffff81547fffffffffffffffffffffffff000000000000000000000000000000000000000081168355167f8be0079c531659141344cd1fd0a4f28419497f9722a3daafe3b4186f6b6457e08280a380f35b507ffffffffffffffffffffffffffffffffffffffffffffffffffffffffffffffffc6040813601126109745767ffffffffffffffff60043581811161097457803603926101208091850112610974576107e9610c32565b73ffffffffffffffffffffffffffffffffffffffff7f00000000000000000000000000000000000000000000000000000000000000001691823b1561097457604051947fede88f3800000000000000000000000000000000000000000000000000000000865260406004870152816004013560448701526024820135606487015260448201356084870152606482013560a4870152608482013560c487015260a482013560e48701527fffffffffffffffffffffffffffffffffffffffffffffffffffffffffffffffdd61010460c48401358189015260e4840135610124890152830135910181121561097457019160246004840135930192848111610974578036038413610974575f93867fffffffffffffffffffffffffffffffffffffffffffffffffffffffffffffffe0601f8296948395610144850152806101648501528061018495868601378885828601015260243560248501520116810103019134905af180156109695761095b578280f35b908092501161067857604052005b6040513d5f823e3d90fd5b5f80fd5b346109745760407ffffffffffffffffffffffffffffffffffffffffffffffffffffffffffffffffc3601126109745767ffffffffffffffff600435818111610974576109c8903690600401610afb565b919060248035838111610974576109e3903690600401610afb565b9290916109ee610c32565b838603610ad1575f5b868110610a0057005b8060051b808401359073ffffffffffffffffffffffffffffffffffffffff821682036109745786831015610aa5578501357fffffffffffffffffffffffffffffffffffffffffffffffffffffffffffffffe186360301811215610974578501908135918883116109745760200190823603821361097457825f80949381946040519384928337810182815203925af1610a97610ba7565b5015610969576001016109f7565b837f4e487b71000000000000000000000000000000000000000000000000000000005f5260326004525ffd5b60046040517fff633a38000000000000000000000000000000000000000000000000000000008152fd5b9181601f840112156109745782359167ffffffffffffffff8311610974576020808501948460051b01011161097457565b90601f7fffffffffffffffffffffffffffffffffffffffffffffffffffffffffffffffe0910116810190811067ffffffffffffffff82111761067857604052565b67ffffffffffffffff811161067857601f017fffffffffffffffffffffffffffffffffffffffffffffffffffffffffffffffe01660200190565b3d15610bd1573d90610bb882610b6d565b91610bc66040519384610b2c565b82523d5f602084013e565b606090565b91908251928382525f5b848110610c1e5750507fffffffffffffffffffffffffffffffffffffffffffffffffffffffffffffffe0601f845f6020809697860101520116010190565b602081830181015184830182015201610be0565b73ffffffffffffffffffffffffffffffffffffffff5f54163303610c5257565b60246040517f118cdaa7000000000000000000000000000000000000000000000000000000008152336004820152fdfea2646970667358221220d1f487d6e3a0c80281f10424a4237e1a039708f66b4bb8d0377b2b9aa38580a264736f6c63430008170033","linkReferences":{}},"methodIdentifiers":{"arbitraryCalls(address[],bytes[])":"1f3177ba","deployDst((bytes32,bytes32,uint256,uint256,uint256,uint256,uint256,uint256,bytes),uint256)":"48de5a3b","deploySrc((bytes32,bytes32,uint256,uint256,uint256,uint256,uint256,uint256,bytes),(uint256,uint256,uint256,uint256,uint256,uint256,uint256,uint256),bytes32,bytes32,uint256,uint256,bytes)":"d9290a33","owner()":"8da5cb5b","renounceOwnership()":"715018a6","transferOwnership(address)":"f2fde38b"},"id":20}