{"abi":[{"type":"function","name":"advanceEpoch","inputs":[{"name":"series","type":"uint96","internalType":"uint96"},{"name":"amount","type":"uint256","internalType":"uint256"}],"outputs":[],"stateMutability":"nonpayable"},{"type":"function","name":"epoch","inputs":[{"name":"maker","type":"address","internalType":"address"},{"name":"series","type":"uint96","internalType":"uint96"}],"outputs":[{"name":"","type":"uint256","internalType":"uint256"}],"stateMutability":"view"},{"type":"function","name":"epochEquals","inputs":[{"name":"maker","type":"address","internalType":"address"},{"name":"series","type":"uint256","internalType":"uint256"},{"name":"makerEpoch","type":"uint256","internalType":"uint256"}],"outputs":[{"name":"","type":"bool","internalType":"bool"}],"stateMutability":"view"},{"type":"function","name":"increaseEpoch","inputs":[{"name":"series","type":"uint96","internalType":"uint96"}],"outputs":[],"stateMutability":"nonpayable"},{"type":"event","name":"EpochIncreased","inputs":[{"name":"maker","type":"address","indexed":true,"internalType":"address"},{"name":"series","type":"uint256","indexed":false,"internalType":"uint256"},{"name":"newEpoch","type":"uint256","indexed":false,"internalType":"uint256"}],"anonymous":false},{"type":"error","name":"AdvanceEpochFailed","inputs":[]}],"bytecode":{"object":"0x6080806040523461001657610371908161001b8239f35b5f80fdfe60806040908082526004361015610014575f80fd5b5f3560e01c9081630d2c7c161461020b57508063c3cf80431461015b578063ce3d710a146100ee5763fcea9e4e1461004a575f80fd5b346100ea57807ffffffffffffffffffffffffffffffffffffffffffffffffffffffffffffffffc3601126100ea57610080610318565b90602435916bffffffffffffffffffffffff831683036100ea5773ffffffffffffffffffffffffffffffffffffffff7fffffffffffffffffffffffff000000000000000000000000000000000000000060209460a01b169116175f525f8252805f20549051908152f35b5f80fd5b50346100ea5760607ffffffffffffffffffffffffffffffffffffffffffffffffffffffffffffffffc3601126100ea57602090610129610318565b73ffffffffffffffffffffffffffffffffffffffff60243560a01b9116175f525f8252604435815f2054149051908152f35b50346100ea5760207ffffffffffffffffffffffffffffffffffffffffffffffffffffffffffffffffc3601126100ea577f099133aefc2c2d1e56f8ef3622ec8e80979a0713fc9c4e1497740efcf80993966101b46102fd565b917fffffffffffffffffffffffff00000000000000000000000000000000000000008360a01b1633175f525f602052805f2060018154018091556bffffffffffffffffffffffff82519416845260208401523392a2005b82346100ea57807ffffffffffffffffffffffffffffffffffffffffffffffffffffffffffffffffc3601126100ea576102426102fd565b90602435801580156102f3575b6102cb57907f099133aefc2c2d1e56f8ef3622ec8e80979a0713fc9c4e1497740efcf8099396917fffffffffffffffffffffffff00000000000000000000000000000000000000008460a01b1633175f525f602052815f20908154018091556bffffffffffffffffffffffff82519416845260208401523392a2005b6004847f555fbbbf000000000000000000000000000000000000000000000000000000008152fd5b5060ff811161024f565b600435906bffffffffffffffffffffffff821682036100ea57565b6004359073ffffffffffffffffffffffffffffffffffffffff821682036100ea5756fea2646970667358221220220214f35056731befa695513279f58da7942f9ca7723fd093fc6a222cf2481d64736f6c63430008170033","linkReferences":{}},"methodIdentifiers":{"advanceEpoch(uint96,uint256)":"0d2c7c16","epoch(address,uint96)":"fcea9e4e","epochEquals(address,uint256,uint256)":"ce3d710a","increaseEpoch(uint96)":"c3cf8043"},"id":54}