{"abi":[{"type":"constructor","inputs":[{"name":"rescueDelay","type":"uint32","internalType":"uint32"},{"name":"accessToken","type":"address","internalType":"contract IERC20"}],"stateMutability":"nonpayable"},{"type":"function","name":"FACTORY","inputs":[],"outputs":[{"name":"","type":"address","internalType":"address"}],"stateMutability":"view"},{"type":"function","name":"PROXY_BYTECODE_HASH","inputs":[],"outputs":[{"name":"","type":"bytes32","internalType":"bytes32"}],"stateMutability":"view"},{"type":"function","name":"RESCUE_DELAY","inputs":[],"outputs":[{"name":"","type":"uint256","internalType":"uint256"}],"stateMutability":"view"},{"type":"function","name":"cancel","inputs":[{"name":"immutables","type":"tuple","internalType":"struct IBaseEscrow.Immutables","components":[{"name":"orderHash","type":"bytes32","internalType":"bytes32"},{"name":"hashlock","type":"bytes32","internalType":"bytes32"},{"name":"maker","type":"uint256","internalType":"Address"},{"name":"taker","type":"uint256","internalType":"Address"},{"name":"token","type":"uint256","internalType":"Address"},{"name":"amount","type":"uint256","internalType":"uint256"},{"name":"safetyDeposit","type":"uint256","internalType":"uint256"},{"name":"timelocks","type":"uint256","internalType":"Timelocks"},{"name":"parameters","type":"bytes","internalType":"bytes"}]}],"outputs":[],"stateMutability":"nonpayable"},{"type":"function","name":"publicWithdraw","inputs":[{"name":"secret","type":"bytes32","internalType":"bytes32"},{"name":"immutables","type":"tuple","internalType":"struct IBaseEscrow.Immutables","components":[{"name":"orderHash","type":"bytes32","internalType":"bytes32"},{"name":"hashlock","type":"bytes32","internalType":"bytes32"},{"name":"maker","type":"uint256","internalType":"Address"},{"name":"taker","type":"uint256","internalType":"Address"},{"name":"token","type":"uint256","internalType":"Address"},{"name":"amount","type":"uint256","internalType":"uint256"},{"name":"safetyDeposit","type":"uint256","internalType":"uint256"},{"name":"timelocks","type":"uint256","internalType":"Timelocks"},{"name":"parameters","type":"bytes","internalType":"bytes"}]}],"outputs":[],"stateMutability":"nonpayable"},{"type":"function","name":"rescueFunds","inputs":[{"name":"token","type":"address","internalType":"address"},{"name":"amount","type":"uint256","internalType":"uint256"},{"name":"immutables","type":"tuple","internalType":"struct IBaseEscrow.Immutables","components":[{"name":"orderHash","type":"bytes32","internalType":"bytes32"},{"name":"hashlock","type":"bytes32","internalType":"bytes32"},{"name":"maker","type":"uint256","internalType":"Address"},{"name":"taker","type":"uint256","internalType":"Address"},{"name":"token","type":"uint256","internalType":"Address"},{"name":"amount","type":"uint256","internalType":"uint256"},{"name":"safetyDeposit","type":"uint256","internalType":"uint256"},{"name":"timelocks","type":"uint256","internalType":"Timelocks"},{"name":"parameters","type":"bytes","internalType":"bytes"}]}],"outputs":[],"stateMutability":"nonpayable"},{"type":"function","name":"withdraw","inputs":[{"name":"secret","type":"bytes32","internalType":"bytes32"},{"name":"immutables","type":"tuple","internalType":"struct IBaseEscrow.Immutables","components":[{"name":"orderHash","type":"bytes32","internalType":"bytes32"},{"name":"hashlock","type":"bytes32","internalType":"bytes32"},{"name":"maker","type":"uint256","internalType":"Address"},{"name":"taker","type":"uint256","internalType":"Address"},{"name":"token","type":"uint256","internalType":"Address"},{"name":"amount","type":"uint256","internalType":"uint256"},{"name":"safetyDeposit","type":"uint256","internalType":"uint256"},{"name":"timelocks","type":"uint256","internalType":"Timelocks"},{"name":"parameters","type":"bytes","internalType":"bytes"}]}],"outputs":[],"stateMutability":"nonpayable"},{"type":"event","name":"EscrowCancelled","inputs":[],"anonymous":false},{"type":"event","name":"EscrowWithdrawal","inputs":[{"name":"secret","type":"bytes32","indexed":false,"internalType":"bytes32"}],"anonymous":false},{"type":"event","name":"FundsRescued","inputs":[{"name":"token","type":"address","indexed":false,"internalType":"address"},{"name":"amount","type":"uint256","indexed":false,"internalType":"uint256"}],"anonymous":false},{"type":"error","name":"InvalidCaller","inputs":[]},{"type":"error","name":"InvalidImmutables","inputs":[]},{"type":"error","name":"InvalidSecret","inputs":[]},{"type":"error","name":"InvalidTime","inputs":[]},{"type":"error","name":"NativeTokenSendingFailure","inputs":[]},{"type":"error","name":"SafeTransferFailed","inputs":[]}],"bytecode":{"object":"0x610100346100f357601f61102c38819003918201601f19168301916001600160401b038311848410176100f75780849260409485528339810103126100f35780519063ffffffff82168092036100f35760200151906001600160a01b03821682036100f3573360c05260a0526080526e5af43d82803e903d91602b57fd5bf360205230601152763d602d80600a3d3981f3363d3d373d3d3d363d730000003060881c175f52603760092060e052604051610f20908161010c823960805181610353015260a05181818160a30152610249015260c0518181816104910152610b4e015260e0518181816104240152610b230152f35b5f80fd5b634e487b7160e01b5f52604160045260245ffdfe6080604090808252600480361015610015575f80fd5b60e05f35811c9283632537a347146104b5575082632dd310001461044757826334862b6a146103ef5782633e99ca75146102f95782635e504d03146101a657826378a5e1a1146100ca57505063f56cd69c1461006f575f80fd5b346100c6575f7ffffffffffffffffffffffffffffffffffffffffffffffffffffffffffffffffc3601126100c657602090517f00000000000000000000000000000000000000000000000000000000000000008152f35b5f80fd5b8390346100c6576100da366105e5565b92909173ffffffffffffffffffffffffffffffffffffffff606085013516330361017e5763ffffffff8185013580921c9160801c16810180911161015257421061012a5761012883836106a8565b005b8390517f6f7eac26000000000000000000000000000000000000000000000000000000008152fd5b6011857f4e487b71000000000000000000000000000000000000000000000000000000005f525260245ffd5b8482517f48f5c3ed000000000000000000000000000000000000000000000000000000008152fd5b8390346100c6577ffffffffffffffffffffffffffffffffffffffffffffffffffffffffffffffffc906060823601126100c65783359373ffffffffffffffffffffffffffffffffffffffff91828616938487036100c657602435936044359167ffffffffffffffff83116100c6576101209083360301126100c65760648201351633036102d1578061024361023e60e4938601610a96565b610b03565b0135901c7f00000000000000000000000000000000000000000000000000000000000000000142106102aa575061029d817fc4474c2790e13695f6d2b6f1d8e164290b55370f87a542fd7711abe0a1bf40ac953390610bef565b82519182526020820152a1005b83517f6f7eac26000000000000000000000000000000000000000000000000000000008152fd5b8286517f48f5c3ed000000000000000000000000000000000000000000000000000000008152fd5b8390346100c657610309366105e5565b92909181517f70a08231000000000000000000000000000000000000000000000000000000008152338682015260208160248173ffffffffffffffffffffffffffffffffffffffff7f0000000000000000000000000000000000000000000000000000000000000000165afa9081156103e5575f916103b3575b501561017e5763ffffffff8185013580921c9160a01c16810180911161015257421061012a5761012883836106a8565b90506020813d6020116103dd575b816103ce6020938361063a565b810103126100c6575186610383565b3d91506103c1565b83513d5f823e3d90fd5b83346100c6575f7ffffffffffffffffffffffffffffffffffffffffffffffffffffffffffffffffc3601126100c657602090517f00000000000000000000000000000000000000000000000000000000000000008152f35b83346100c6575f7ffffffffffffffffffffffffffffffffffffffffffffffffffffffffffffffffc3601126100c6576020905173ffffffffffffffffffffffffffffffffffffffff7f0000000000000000000000000000000000000000000000000000000000000000168152f35b849150346100c6577ffffffffffffffffffffffffffffffffffffffffffffffffffffffffffffffffc926020843601126100c65780359367ffffffffffffffff85116100c6576101209085360301126100c65773ffffffffffffffffffffffffffffffffffffffff9283606486013516928333036105be575061053c61023e868401610a96565b61054960e4860135610ba8565b42106105985761057260c48661056a60a48201358760848401358a16610bef565b013533610ce9565b7f6e3be9294e58d10b9c8053cfd5e09871b67e442fe394d6b0870d336b9df984a95f80a1005b517f6f7eac26000000000000000000000000000000000000000000000000000000008152fd5b90507f48f5c3ed000000000000000000000000000000000000000000000000000000008152fd5b907ffffffffffffffffffffffffffffffffffffffffffffffffffffffffffffffffc6040818401126100c657600435926024359167ffffffffffffffff83116100c65782610120920301126100c65760040190565b90601f7fffffffffffffffffffffffffffffffffffffffffffffffffffffffffffffffe0910116810190811067ffffffffffffffff82111761067b57604052565b7f4e487b71000000000000000000000000000000000000000000000000000000005f52604160045260245ffd5b6106b560e0830135610ba8565b421015610a6c576106c861023e83610a96565b602090805f5281830135825f2003610a4257610734926106e83682610d4f565b9073__$d70ffefbbc28bdd447039bb50caad9b5c3$__846040938451809881927fcc51c71700000000000000000000000000000000000000000000000000000000835260048301610e1b565b0381845af49586156103e5575f96610a11575b5061078990856107573685610d4f565b8551809481927f967d204400000000000000000000000000000000000000000000000000000000835260048301610e1b565b0381845af4918215610a07575f926109d8575b5086610919575b81610819575b508161056a6107eb60c0936107e67fe346f5c97a360db5188bfa5d3ec5f0583abde420c6ba4d08b6cfe61addc171059a60a0610812980135610edd565b610edd565b73ffffffffffffffffffffffffffffffffffffffff80878501351690608085013516610bef565b51908152a1565b956108728673ffffffffffffffffffffffffffffffffffffffff9861083e3687610d4f565b90875180809581947f6e30c3eb00000000000000000000000000000000000000000000000000000000835260048301610e1b565b03915af490811561090f575f916108d8575b506107eb836107e661081296946108cb60c0978d7fe346f5c97a360db5188bfa5d3ec5f0583abde420c6ba4d08b6cfe61addc171059e61056a98169060808a013516610bef565b9a505093505050916107a9565b92939190508683813d8311610908575b6108f2818361063a565b810103126100c6579151909291906107eb610884565b503d6108e8565b85513d5f823e3d90fd5b73ffffffffffffffffffffffffffffffffffffffff61096e8761093c3687610d4f565b8751809381927f505ba09b00000000000000000000000000000000000000000000000000000000835260048301610e1b565b0381865af49081156109ce579089915f9161099d575b509180610998931690608087013516610bef565b6107a3565b809250898092503d83116109c7575b6109b6818361063a565b810103126100c65751889082610984565b503d6109ac565b86513d5f823e3d90fd5b9091508581813d8311610a00575b6109f0818361063a565b810103126100c65751905f61079c565b503d6109e6565b84513d5f823e3d90fd5b9095508481813d8311610a3b575b610a29818361063a565b810103126100c6575194610789610747565b503d610a1f565b60046040517fabab6bd7000000000000000000000000000000000000000000000000000000008152fd5b60046040517f6f7eac26000000000000000000000000000000000000000000000000000000008152fd5b610100808201357fffffffffffffffffffffffffffffffffffffffffffffffffffffffffffffffe1833603018112156100c65782019081359167ffffffffffffffff83116100c6576020019180360383136100c65780604051938437822090610120809484378201522090565b6055600b73ffffffffffffffffffffffffffffffffffffffff92604051907f0000000000000000000000000000000000000000000000000000000000000000604083015260208201527f000000000000000000000000000000000000000000000000000000000000000081520160ff815320163003610b7e57565b60046040517fa269484a000000000000000000000000000000000000000000000000000000008152fd5b63ffffffff8160e01c9160c01c168101809111610bc25790565b7f4e487b71000000000000000000000000000000000000000000000000000000005f52601160045260245ffd5b73ffffffffffffffffffffffffffffffffffffffff16919082610c1857610c169250610ce9565b565b60445f91602093604051917fa9059cbb0000000000000000000000000000000000000000000000000000000083526004830152602482015282855af19081610c8d575b5015610c6357565b60046040517ffb7f5079000000000000000000000000000000000000000000000000000000008152fd5b90503d15610ca7575060015f5114601f3d11165b5f610c5b565b3b1515610ca1565b67ffffffffffffffff811161067b57601f017fffffffffffffffffffffffffffffffffffffffffffffffffffffffffffffffe01660200190565b5f80809381935af13d15610d4a573d610d0181610caf565b90610d0f604051928361063a565b81525f60203d92013e5b15610d2057565b60046040517f8a0332d5000000000000000000000000000000000000000000000000000000008152fd5b610d19565b91906101209283818303126100c65760405167ffffffffffffffff9481018581118282101761067b57604052809482358252602090818401358284015260408401356040840152606084013560608401526080840135608084015260a084013560a084015260c084013560c084015260e084013560e084015261010093848101359182116100c657019084601f830112156100c6578135610def81610caf565b95610dfd604051978861063a565b8187528282850101116100c65780825f940183880137850101520152565b6020916020825280516020830152602081015160408301526040810151606083015260608101516080830152608081015160a083015260a081015160c083015260c081015160e083015260e081015190610100918284015201519161012080830152825192836101408401525f5b848110610ec8575050507fffffffffffffffffffffffffffffffffffffffffffffffffffffffffffffffe0601f610160935f8582860101520116010190565b81810183015184820161016001528201610e89565b91908203918211610bc25756fea26469706673582212202b310aaa4f37981ad6f125f302dcd0a2979172f31eb933d9520376eae53df30064736f6c63430008170033","linkReferences":{"contracts/libraries/ImmutablesLib.sol":{"ImmutablesLib":[{"start":2039,"length":20}]}}},"methodIdentifiers":{"FACTORY()":"2dd31000","PROXY_BYTECODE_HASH()":"34862b6a","RESCUE_DELAY()":"f56cd69c","cancel((bytes32,bytes32,uint256,uint256,uint256,uint256,uint256,uint256,bytes))":"2537a347","publicWithdraw(bytes32,(bytes32,bytes32,uint256,uint256,uint256,uint256,uint256,uint256,bytes))":"3e99ca75","rescueFunds(address,uint256,(bytes32,bytes32,uint256,uint256,uint256,uint256,uint256,uint256,bytes))":"5e504d03","withdraw(bytes32,(bytes32,bytes32,uint256,uint256,uint256,uint256,uint256,uint256,bytes))":"78a5e1a1"},"id":3}