{"abi":[{"type":"function","name":"getProof","inputs":[{"name":"data","type":"bytes32[]","internalType":"bytes32[]"},{"name":"node","type":"uint256","internalType":"uint256"}],"outputs":[{"name":"","type":"bytes32[]","internalType":"bytes32[]"}],"stateMutability":"pure"},{"type":"function","name":"getRoot","inputs":[{"name":"data","type":"bytes32[]","internalType":"bytes32[]"}],"outputs":[{"name":"","type":"bytes32","internalType":"bytes32"}],"stateMutability":"pure"},{"type":"function","name":"hashLeafPairs","inputs":[{"name":"left","type":"bytes32","internalType":"bytes32"},{"name":"right","type":"bytes32","internalType":"bytes32"}],"outputs":[{"name":"_hash","type":"bytes32","internalType":"bytes32"}],"stateMutability":"pure"},{"type":"function","name":"log2ceil","inputs":[{"name":"x","type":"uint256","internalType":"uint256"}],"outputs":[{"name":"","type":"uint256","internalType":"uint256"}],"stateMutability":"pure"},{"type":"function","name":"log2ceilBitMagic","inputs":[{"name":"x","type":"uint256","internalType":"uint256"}],"outputs":[{"name":"","type":"uint256","internalType":"uint256"}],"stateMutability":"pure"},{"type":"function","name":"verifyProof","inputs":[{"name":"root","type":"bytes32","internalType":"bytes32"},{"name":"proof","type":"bytes32[]","internalType":"bytes32[]"},{"name":"valueToProve","type":"bytes32","internalType":"bytes32"}],"outputs":[{"name":"","type":"bool","internalType":"bool"}],"stateMutability":"pure"}],"bytecode":{"object":"0x6080806040523461001657610979908161001b8239f35b5f80fdfe60806040526004361015610011575f80fd5b5f3560e01c80632e08d6021461007457806358161a421461006f578063b86161951461006a578063cf06c7b714610065578063dd1d2599146100605763e27d51531461005b575f80fd5b6104fd565b6104be565b61047a565b610350565b610285565b346101985760207ffffffffffffffffffffffffffffffffffffffffffffffffffffffffffffffffc3601126101985760043567ffffffffffffffff8111610198576100c390369060040161022a565b6001808251111561011457805b6100f6575b6100f26100e18361055a565b516040519081529081906020820190565b0390f35b808251111561010f576101098192610862565b916100d0565b6100d5565b60846040517f08c379a000000000000000000000000000000000000000000000000000000000815260206004820152602360248201527f776f6e27742067656e657261746520726f6f7420666f722073696e676c65206c60448201527f65616600000000000000000000000000000000000000000000000000000000006064820152fd5b5f80fd5b7f4e487b71000000000000000000000000000000000000000000000000000000005f52604160045260245ffd5b907fffffffffffffffffffffffffffffffffffffffffffffffffffffffffffffffe0601f604051930116820182811067ffffffffffffffff82111761020d57604052565b61019c565b67ffffffffffffffff811161020d5760051b60200190565b9080601f8301121561019857602090823561024c61024782610212565b6101c9565b9360208086848152019260051b82010192831161019857602001905b828210610276575050505090565b81358152908301908301610268565b346101985760607ffffffffffffffffffffffffffffffffffffffffffffffffffffffffffffffffc3601126101985760243567ffffffffffffffff8111610198576102d490369060040161022a565b60443581515f925b8184106102f25760405160043584148152602090f35b909161030b6001916103048685610594565b5190610842565b93019291906102dc565b60209060206040818301928281528551809452019301915f5b82811061033c575050505090565b83518552938101939281019260010161032e565b346101985760407ffffffffffffffffffffffffffffffffffffffffffffffffffffffffffffffffc3601126101985760043567ffffffffffffffff81116101985761039f90369060040161022a565b60243590806103c46103bf6001936103b9858251116105a8565b51610706565b610632565b925f835b6103db575b604051806100f28782610315565b8251848111156104745784839261043c928280809716145f1461044357506104257fffffffffffffffffffffffffffffffffffffffffffffffffffffffffffffffff850187610594565b51610430828a610594565b525b0191831c93610862565b92916103c8565b84830190810361045f57505f610459828a610594565b52610432565b6104699087610594565b51610459828a610594565b506103cd565b346101985760207ffffffffffffffffffffffffffffffffffffffffffffffffffffffffffffffffc3601126101985760206104b6600435610706565b604051908152f35b346101985760407ffffffffffffffffffffffffffffffffffffffffffffffffffffffffffffffffc3601126101985760206104b6602435600435610842565b346101985760207ffffffffffffffffffffffffffffffffffffffffffffffffffffffffffffffffc360112610198575f600435600181805b61054e5760405183196001018416841485038152602090f35b92810192811c80610535565b8051156105675760200190565b7f4e487b71000000000000000000000000000000000000000000000000000000005f52603260045260245ffd5b80518210156105675760209160051b010190565b156105af57565b60846040517f08c379a0000000000000000000000000000000000000000000000000000000008152602060048201526024808201527f776f6e27742067656e65726174652070726f6f6620666f722073696e676c652060448201527f6c656166000000000000000000000000000000000000000000000000000000006064820152fd5b9061063f61024783610212565b8281527fffffffffffffffffffffffffffffffffffffffffffffffffffffffffffffffe061066d8294610212565b0190602036910137565b906040820180921161068557565b7f4e487b71000000000000000000000000000000000000000000000000000000005f52601160045260245ffd5b906020820180921161068557565b906010820180921161068557565b906008820180921161068557565b906004820180921161068557565b906002820180921161068557565b906001820180921161068557565b600181111561083d575f9080700100000000000000000000000000000000811015610832575b8068010000000000000000600292101561081f575b64010000000081101561080c575b620100008110156107f9575b6101008110156107e6575b60108110156107d3575b60048110156107c1575b10156107b1575b8061078c81196106f8565b1614806107a8575b1561079c5790565b6107a5906106f8565b90565b50801515610794565b906107bb906106f8565b90610781565b6107cd90821c936106ea565b9261077a565b6107e09060041c936106dc565b92610770565b6107f39060081c936106ce565b92610766565b6108069060101c936106c0565b9261075b565b6108199060201c936106b2565b9261074f565b61082c9060401c93610677565b92610741565b60809250821c61072c565b505f90565b81811015610857575f526020525b60405f2090565b905f52602052610850565b90815160019081808216145f14610932576108808282811c01610632565b917fffffffffffffffffffffffffffffffffffffffffffffffffffffffffffffffff6108ae81840187610594565b515f80526020526108c660405f209185510185610594565b525b5f917fffffffffffffffffffffffffffffffffffffffffffffffffffffffffffffffff5f9101925b8382106109005750929450505050565b8260029161091e610911858b610594565b516103048487018c610594565b6109288289610594565b52019101906108f0565b61093d81831c610632565b916108c856fea2646970667358221220286ec6f5812d307567038d6dc3bb66be9d523ee8ea1b776543f1c260283007f064736f6c63430008170033","linkReferences":{}},"methodIdentifiers":{"getProof(bytes32[],uint256)":"b8616195","getRoot(bytes32[])":"2e08d602","hashLeafPairs(bytes32,bytes32)":"dd1d2599","log2ceil(uint256)":"e27d5153","log2ceilBitMagic(uint256)":"cf06c7b7","verifyProof(bytes32,bytes32[],bytes32)":"58161a42"},"id":69}