{"abi":[{"type":"constructor","inputs":[{"name":"limitOrderProtocol","type":"address","internalType":"address"},{"name":"accessToken","type":"address","internalType":"contract IERC20"},{"name":"owner","type":"address","internalType":"address"},{"name":"rescueDelaySrc","type":"uint32","internalType":"uint32"},{"name":"rescueDelayDst","type":"uint32","internalType":"uint32"}],"stateMutability":"nonpayable"},{"type":"receive","stateMutability":"payable"},{"type":"function","name":"ESCROW_DST_IMPLEMENTATION","inputs":[],"outputs":[{"name":"","type":"address","internalType":"address"}],"stateMutability":"view"},{"type":"function","name":"ESCROW_SRC_IMPLEMENTATION","inputs":[],"outputs":[{"name":"","type":"address","internalType":"address"}],"stateMutability":"view"},{"type":"function","name":"addressOfEscrowDst","inputs":[{"name":"immutables","type":"tuple","internalType":"struct IBaseEscrow.Immutables","components":[{"name":"orderHash","type":"bytes32","internalType":"bytes32"},{"name":"hashlock","type":"bytes32","internalType":"bytes32"},{"name":"maker","type":"uint256","internalType":"Address"},{"name":"taker","type":"uint256","internalType":"Address"},{"name":"token","type":"uint256","internalType":"Address"},{"name":"amount","type":"uint256","internalType":"uint256"},{"name":"safetyDeposit","type":"uint256","internalType":"uint256"},{"name":"timelocks","type":"uint256","internalType":"Timelocks"},{"name":"parameters","type":"bytes","internalType":"bytes"}]}],"outputs":[{"name":"","type":"address","internalType":"address"}],"stateMutability":"view"},{"type":"function","name":"addressOfEscrowSrc","inputs":[{"name":"immutables","type":"tuple","internalType":"struct IBaseEscrow.Immutables","components":[{"name":"orderHash","type":"bytes32","internalType":"bytes32"},{"name":"hashlock","type":"bytes32","internalType":"bytes32"},{"name":"maker","type":"uint256","internalType":"Address"},{"name":"taker","type":"uint256","internalType":"Address"},{"name":"token","type":"uint256","internalType":"Address"},{"name":"amount","type":"uint256","internalType":"uint256"},{"name":"safetyDeposit","type":"uint256","internalType":"uint256"},{"name":"timelocks","type":"uint256","internalType":"Timelocks"},{"name":"parameters","type":"bytes","internalType":"bytes"}]}],"outputs":[{"name":"","type":"address","internalType":"address"}],"stateMutability":"view"},{"type":"function","name":"createDstEscrow","inputs":[{"name":"dstImmutables","type":"tuple","internalType":"struct IBaseEscrow.Immutables","components":[{"name":"orderHash","type":"bytes32","internalType":"bytes32"},{"name":"hashlock","type":"bytes32","internalType":"bytes32"},{"name":"maker","type":"uint256","internalType":"Address"},{"name":"taker","type":"uint256","internalType":"Address"},{"name":"token","type":"uint256","internalType":"Address"},{"name":"amount","type":"uint256","internalType":"uint256"},{"name":"safetyDeposit","type":"uint256","internalType":"uint256"},{"name":"timelocks","type":"uint256","internalType":"Timelocks"},{"name":"parameters","type":"bytes","internalType":"bytes"}]},{"name":"srcCancellationTimestamp","type":"uint256","internalType":"uint256"}],"outputs":[],"stateMutability":"payable"},{"type":"function","name":"getMakingAmount","inputs":[{"name":"order","type":"tuple","internalType":"struct IOrderMixin.Order","components":[{"name":"salt","type":"uint256","internalType":"uint256"},{"name":"maker","type":"uint256","internalType":"Address"},{"name":"receiver","type":"uint256","internalType":"Address"},{"name":"makerAsset","type":"uint256","internalType":"Address"},{"name":"takerAsset","type":"uint256","internalType":"Address"},{"name":"makingAmount","type":"uint256","internalType":"uint256"},{"name":"takingAmount","type":"uint256","internalType":"uint256"},{"name":"makerTraits","type":"uint256","internalType":"MakerTraits"}]},{"name":"extension","type":"bytes","internalType":"bytes"},{"name":"orderHash","type":"bytes32","internalType":"bytes32"},{"name":"taker","type":"address","internalType":"address"},{"name":"takingAmount","type":"uint256","internalType":"uint256"},{"name":"remainingMakingAmount","type":"uint256","internalType":"uint256"},{"name":"extraData","type":"bytes","internalType":"bytes"}],"outputs":[{"name":"","type":"uint256","internalType":"uint256"}],"stateMutability":"view"},{"type":"function","name":"getTakingAmount","inputs":[{"name":"order","type":"tuple","internalType":"struct IOrderMixin.Order","components":[{"name":"salt","type":"uint256","internalType":"uint256"},{"name":"maker","type":"uint256","internalType":"Address"},{"name":"receiver","type":"uint256","internalType":"Address"},{"name":"makerAsset","type":"uint256","internalType":"Address"},{"name":"takerAsset","type":"uint256","internalType":"Address"},{"name":"makingAmount","type":"uint256","internalType":"uint256"},{"name":"takingAmount","type":"uint256","internalType":"uint256"},{"name":"makerTraits","type":"uint256","internalType":"MakerTraits"}]},{"name":"extension","type":"bytes","internalType":"bytes"},{"name":"orderHash","type":"bytes32","internalType":"bytes32"},{"name":"taker","type":"address","internalType":"address"},{"name":"makingAmount","type":"uint256","internalType":"uint256"},{"name":"remainingMakingAmount","type":"uint256","internalType":"uint256"},{"name":"extraData","type":"bytes","internalType":"bytes"}],"outputs":[{"name":"","type":"uint256","internalType":"uint256"}],"stateMutability":"view"},{"type":"function","name":"lastValidated","inputs":[{"name":"key","type":"bytes32","internalType":"bytes32"}],"outputs":[{"name":"index","type":"uint256","internalType":"uint256"},{"name":"leaf","type":"bytes32","internalType":"bytes32"}],"stateMutability":"view"},{"type":"function","name":"owner","inputs":[],"outputs":[{"name":"","type":"address","internalType":"address"}],"stateMutability":"view"},{"type":"function","name":"postInteraction","inputs":[{"name":"order","type":"tuple","internalType":"struct IOrderMixin.Order","components":[{"name":"salt","type":"uint256","internalType":"uint256"},{"name":"maker","type":"uint256","internalType":"Address"},{"name":"receiver","type":"uint256","internalType":"Address"},{"name":"makerAsset","type":"uint256","internalType":"Address"},{"name":"takerAsset","type":"uint256","internalType":"Address"},{"name":"makingAmount","type":"uint256","internalType":"uint256"},{"name":"takingAmount","type":"uint256","internalType":"uint256"},{"name":"makerTraits","type":"uint256","internalType":"MakerTraits"}]},{"name":"extension","type":"bytes","internalType":"bytes"},{"name":"orderHash","type":"bytes32","internalType":"bytes32"},{"name":"taker","type":"address","internalType":"address"},{"name":"makingAmount","type":"uint256","internalType":"uint256"},{"name":"takingAmount","type":"uint256","internalType":"uint256"},{"name":"remainingMakingAmount","type":"uint256","internalType":"uint256"},{"name":"extraData","type":"bytes","internalType":"bytes"}],"outputs":[],"stateMutability":"nonpayable"},{"type":"function","name":"renounceOwnership","inputs":[],"outputs":[],"stateMutability":"nonpayable"},{"type":"function","name":"rescueFunds","inputs":[{"name":"token","type":"address","internalType":"contract IERC20"},{"name":"amount","type":"uint256","internalType":"uint256"}],"outputs":[],"stateMutability":"nonpayable"},{"type":"function","name":"takerInteraction","inputs":[{"name":"","type":"tuple","internalType":"struct IOrderMixin.Order","components":[{"name":"salt","type":"uint256","internalType":"uint256"},{"name":"maker","type":"uint256","internalType":"Address"},{"name":"receiver","type":"uint256","internalType":"Address"},{"name":"makerAsset","type":"uint256","internalType":"Address"},{"name":"takerAsset","type":"uint256","internalType":"Address"},{"name":"makingAmount","type":"uint256","internalType":"uint256"},{"name":"takingAmount","type":"uint256","internalType":"uint256"},{"name":"makerTraits","type":"uint256","internalType":"MakerTraits"}]},{"name":"extension","type":"bytes","internalType":"bytes"},{"name":"orderHash","type":"bytes32","internalType":"bytes32"},{"name":"","type":"address","internalType":"address"},{"name":"","type":"uint256","internalType":"uint256"},{"name":"","type":"uint256","internalType":"uint256"},{"name":"","type":"uint256","internalType":"uint256"},{"name":"extraData","type":"bytes","internalType":"bytes"}],"outputs":[],"stateMutability":"nonpayable"},{"type":"function","name":"transferOwnership","inputs":[{"name":"newOwner","type":"address","internalType":"address"}],"outputs":[],"stateMutability":"nonpayable"},{"type":"event","name":"DstEscrowCreated","inputs":[{"name":"escrow","type":"address","indexed":false,"internalType":"address"},{"name":"hashlock","type":"bytes32","indexed":false,"internalType":"bytes32"},{"name":"taker","type":"uint256","indexed":false,"internalType":"Address"}],"anonymous":false},{"type":"event","name":"OwnershipTransferred","inputs":[{"name":"previousOwner","type":"address","indexed":true,"internalType":"address"},{"name":"newOwner","type":"address","indexed":true,"internalType":"address"}],"anonymous":false},{"type":"event","name":"SrcEscrowCreated","inputs":[{"name":"srcImmutables","type":"tuple","indexed":false,"internalType":"struct IBaseEscrow.Immutables","components":[{"name":"orderHash","type":"bytes32","internalType":"bytes32"},{"name":"hashlock","type":"bytes32","internalType":"bytes32"},{"name":"maker","type":"uint256","internalType":"Address"},{"name":"taker","type":"uint256","internalType":"Address"},{"name":"token","type":"uint256","internalType":"Address"},{"name":"amount","type":"uint256","internalType":"uint256"},{"name":"safetyDeposit","type":"uint256","internalType":"uint256"},{"name":"timelocks","type":"uint256","internalType":"Timelocks"},{"name":"parameters","type":"bytes","internalType":"bytes"}]},{"name":"dstImmutablesComplement","type":"tuple","indexed":false,"internalType":"struct IEscrowFactory.DstImmutablesComplement","components":[{"name":"maker","type":"uint256","internalType":"Address"},{"name":"amount","type":"uint256","internalType":"uint256"},{"name":"token","type":"uint256","internalType":"Address"},{"name":"safetyDeposit","type":"uint256","internalType":"uint256"},{"name":"chainId","type":"uint256","internalType":"uint256"},{"name":"parameters","type":"bytes","internalType":"bytes"}]}],"anonymous":false},{"type":"error","name":"AccessDenied","inputs":[]},{"type":"error","name":"AllowedTimeViolation","inputs":[]},{"type":"error","name":"ETHTransferFailed","inputs":[]},{"type":"error","name":"EthTransferFailed","inputs":[]},{"type":"error","name":"FailedDeployment","inputs":[]},{"type":"error","name":"InconsistentFee","inputs":[]},{"type":"error","name":"InsufficientBalance","inputs":[{"name":"balance","type":"uint256","internalType":"uint256"},{"name":"needed","type":"uint256","internalType":"uint256"}]},{"type":"error","name":"InsufficientBalance","inputs":[]},{"type":"error","name":"InsufficientEscrowBalance","inputs":[]},{"type":"error","name":"InvalidCreationTime","inputs":[]},{"type":"error","name":"InvalidEstimatedTakingAmount","inputs":[]},{"type":"error","name":"InvalidIntegratorShare","inputs":[]},{"type":"error","name":"InvalidPartialFill","inputs":[]},{"type":"error","name":"InvalidProof","inputs":[]},{"type":"error","name":"InvalidProtocolSurplusFee","inputs":[]},{"type":"error","name":"InvalidSecretsAmount","inputs":[]},{"type":"error","name":"InvalidWhitelistDiscountNumerator","inputs":[]},{"type":"error","name":"OnlyLimitOrderProtocol","inputs":[]},{"type":"error","name":"OnlyWhitelistOrAccessToken","inputs":[]},{"type":"error","name":"OwnableInvalidOwner","inputs":[{"name":"owner","type":"address","internalType":"address"}]},{"type":"error","name":"OwnableUnauthorizedAccount","inputs":[{"name":"account","type":"address","internalType":"address"}]},{"type":"error","name":"SafeTransferFailed","inputs":[]},{"type":"error","name":"SafeTransferFromFailed","inputs":[]}],"bytecode":{"object":"0x61018034620002cd576001600160401b03601f62004e1738819003918201601f1916840191908383118584101762000298578160a09286926040958652833981010312620002cd576200005283620002d1565b60208401516001600160a01b039390918483168303620002cd5762000079848701620002d1565b95856200009760806200008f60608501620002e6565b9301620002e6565b9716918215620002b6575f80546001600160a01b031981168517825587519491908916907f8be0079c531659141344cd1fd0a4f28419497f9722a3daafe3b4186f6b6457e09080a3806080525f60a0528460c05260e052610eee8083019083821085831117620002985783926200013092879262003f29863963ffffffff90911681526001600160a01b03909116602082015260400190565b03905ff0948515620002ac57846101009616865283519261102c91828501938585109085111762000298578493620001889362002efd863963ffffffff90911681526001600160a01b03909116602082015260400190565b03905ff09182156200028e5780610120931683526200022e620001e682865116763d602d80600a3d3981f3363d3d373d3d3d363d73000000906e5af43d82803e903d91602b57fd5bf36020528060115260881c175f52603760092090565b91610140928352845116763d602d80600a3d3981f3363d3d373d3d3d363d73000000906e5af43d82803e903d91602b57fd5bf36020528060115260881c175f52603760092090565b916101609283525192612c049485620002f9863960805185610dff015260a05185505060c05185611858015260e05185610778015251848181610dad01526114a40152518381816103a601526106e50152518260de015251816107240152f35b50513d5f823e3d90fd5b634e487b7160e01b5f52604160045260245ffd5b83513d5f823e3d90fd5b8551631e4fbdf760e01b81525f6004820152602490fd5b5f80fd5b51906001600160a01b0382168203620002cd57565b519063ffffffff82168203620002cd5756fe6080604052600436101561001a575b3615610018575f80fd5b005b5f803560e01c80631d9671c314611980578063462ebde214610dd15780637040f17314610d62578063715018a614610cc657806378e3214f14610afe5780638da5cb5b14610aad578063acf4ce5c14610a5b578063adf38ba114610749578063b4bf21c214610709578063ba5511771461069a578063d7ff8a80146105e3578063ede88f381461020a578063f2fde38b146101245763fd6de035146100bf575061000e565b346101215760206101036100da6100d536611b6a565b611dcf565b30907f00000000000000000000000000000000000000000000000000000000000000009061241f565b73ffffffffffffffffffffffffffffffffffffffff60405191168152f35b80fd5b50346101215760207ffffffffffffffffffffffffffffffffffffffffffffffffffffffffffffffffc3601126101215760043573ffffffffffffffffffffffffffffffffffffffff8082168092036102065761017e611d7f565b81156101d5575f54827fffffffffffffffffffffffff00000000000000000000000000000000000000008216175f55167f8be0079c531659141344cd1fd0a4f28419497f9722a3daafe3b4186f6b6457e05f80a380f35b602483604051907f1e4fbdf70000000000000000000000000000000000000000000000000000000082526004820152fd5b5f80fd5b507ffffffffffffffffffffffffffffffffffffffffffffffffffffffffffffffffc6040813601126105df5760043567ffffffffffffffff918282116105db576101209082360301126105915760848101359160c4820135919073ffffffffffffffffffffffffffffffffffffffff8085169081159060249086836105c7575b340361059d5760405161029c81611bd7565b866004013581526020968782019684820135885260448201356040840152606083019a60648301358c52608084015260a083019960a48301358b5260c084015260e083019160e48101358352610104810135918211610599570136602382011215610595578b60048201359161031183611c42565b9261031f6040519485611bf4565b808452368882840101116105915780888d9301838601378301015261010083015280517bffffffffffffffffffffffffffffffffffffffffffffffffffffffff4260e01b91161780915261038284359163ffffffff8160c01c169060e01c611c35565b11610567576103a4610100820191610120835191825160208401208552209252565b7f00000000000000000000000000000000000000000000000000000000000000003447106105315780763d602d80600a3d3981f3363d3d373d3d3d363d7300000062ffffff6e5af43d82803e903d91602b57fd5bf39360881c16175f5260781b1787526037600934f59081169687156105075789931561045d575b837fc30e111dcc74fddc2c3a4d98ffb97adec4485c0a687946bf5b22c2a99c7ff96d60608a8a8d8b519051916040519384528301526040820152a180f35b916064918796989794935190604051927f23b872dd000000000000000000000000000000000000000000000000000000008452336004850152830152604482015282855af190816104e5575b50156104bb5790915f8581808061041f565b60046040517ff4059071000000000000000000000000000000000000000000000000000000008152fd5b90503d156104ff57506001855114601f3d11165b5f6104a9565b3b15156104f9565b60046040517fb06ebf3d000000000000000000000000000000000000000000000000000000008152fd5b6040517fcf4791810000000000000000000000000000000000000000000000000000000081524760048201523481860152604490fd5b60046040517ff4840e96000000000000000000000000000000000000000000000000000000008152fd5b8280fd5b8b80fd5b8c80fd5b60046040517f34f5151d000000000000000000000000000000000000000000000000000000008152fd5b6105d69060a488013590611c35565b61028a565b8380fd5b5080fd5b50346101215761062661064361060f6106186105fe36611a17565b849c98999295979a91949394611e86565b909c919c612681565b99945097929b915099612b0f565b91620186a0910181016106398184612141565b9209151590611c35565b91629896809182019081831161066d57602061066585858561063981846121c9565b604051908152f35b807f4e487b7100000000000000000000000000000000000000000000000000000000602492526011600452fd5b503461012157807ffffffffffffffffffffffffffffffffffffffffffffffffffffffffffffffffc36011261012157602060405173ffffffffffffffffffffffffffffffffffffffff7f0000000000000000000000000000000000000000000000000000000000000000168152f35b50346101215760206101036107206100d536611b6a565b30907f00000000000000000000000000000000000000000000000000000000000000009061241f565b50346101215761075836611ac1565b50975050505050919073ffffffffffffffffffffffffffffffffffffffff7f0000000000000000000000000000000000000000000000000000000000000000163303610a31576107a7916123a0565b91907fffffffffffffffffffffffffffffffffffffffffffffffffffffffffffffff607dffffffffffffffffffffffffffffffffffffffffffffffffffffffffffff93849201013516604051916020926108658161083985878301958690603e927fffffffffffffffffffffffffffffffffffffffffffffffffffffffffffff000091835260101b1660208201520190565b037fffffffffffffffffffffffffffffffffffffffffffffffffffffffffffffffe08101835282611bf4565b5190209084357fffffffffffffffffffffffffffffffffffffffffffffffffffffffffffffffe186360301811215610a2d5767ffffffffffffffff949086018035868111610a29576005918160051b360387820113610a25576040878a013599013597604051888101917fffffffffffffffff0000000000000000000000000000000000000000000000008c60c01b1683528a6028830152602882526060820190828210908211176109f857604052519020928a9291905b8284106109bd575050505016036109935760018401809411610966576001929183916040519561094c87611bbb565b865281860193845286525260408420925183555191015580f35b6024857f4e487b710000000000000000000000000000000000000000000000000000000081526011600452fd5b60046040517f09bde339000000000000000000000000000000000000000000000000000000008152fd5b909192938885831b84010135908181105f146109e8578c528852600160408c205b940192919061091d565b908c528852600160408c206109de565b7f4e487b71000000000000000000000000000000000000000000000000000000005f52604160045260245ffd5b8980fd5b8880fd5b8680fd5b60046040517f4ca88867000000000000000000000000000000000000000000000000000000008152fd5b50346101215760207ffffffffffffffffffffffffffffffffffffffffffffffffffffffffffffffffc360112610121576040809160043581526001602052206001815491015482519182526020820152f35b503461012157807ffffffffffffffffffffffffffffffffffffffffffffffffffffffffffffffffc3601126101215773ffffffffffffffffffffffffffffffffffffffff6020915416604051908152f35b50346101215760407ffffffffffffffffffffffffffffffffffffffffffffffffffffffffffffffffc3601126101215760043573ffffffffffffffffffffffffffffffffffffffff811690818103610591578260243592610b5d611d7f565b83610b66575080f35b8015908115610ca8575b5015610c14575050804710610bea578180808093335af13d15610be5573d610b9781611c42565b90610ba56040519283611bf4565b81528260203d92013e5b15610bbb575b5f808280f35b60046040517fb12d13eb000000000000000000000000000000000000000000000000000000008152fd5b610baf565b60046040517ff4d678b8000000000000000000000000000000000000000000000000000000008152fd5b604460209293604051907fa9059cbb000000000000000000000000000000000000000000000000000000008252336004830152602482015282855af19081610c86575b50610bb55760046040517ffb7f5079000000000000000000000000000000000000000000000000000000008152fd5b90503d15610ca057506001815114601f3d11165b5f610c57565b3b1515610c9a565b73eeeeeeeeeeeeeeeeeeeeeeeeeeeeeeeeeeeeeeee9150145f610b70565b503461012157807ffffffffffffffffffffffffffffffffffffffffffffffffffffffffffffffffc36011261012157610cfd611d7f565b5f73ffffffffffffffffffffffffffffffffffffffff81547fffffffffffffffffffffffff000000000000000000000000000000000000000081168355167f8be0079c531659141344cd1fd0a4f28419497f9722a3daafe3b4186f6b6457e08280a380f35b503461012157807ffffffffffffffffffffffffffffffffffffffffffffffffffffffffffffffffc36011261012157602060405173ffffffffffffffffffffffffffffffffffffffff7f0000000000000000000000000000000000000000000000000000000000000000168152f35b503461020657610de036611ac1565b919095969397929473ffffffffffffffffffffffffffffffffffffffff7f000000000000000000000000000000000000000000000000000000000000000016330361195657826014116102065782602811610206577fffffffffffffffffffffffffffffffffffffffffffffffffffffffffffffffd883017fffffffffffffffffffffffffffffffffffffffffffffffffffffffffffffff388401116117a157610eaf7fffffffffffffffffffffffffffffffffffffffffffffffffffffffffffffff38840160288901612455565b60f01c937fffffffffffffffffffffffffffffffffffffffffffffffffffffffffffffff388401600210156118ff576064602a89013560f81c1161192c577fffffffffffffffffffffffffffffffffffffffffffffffffffffffffffffff38840160031161020657610f467fffffffffffffffffffffffffffffffffffffffffffffffffffffffffffffff358501602b8a01612455565b60f01c947fffffffffffffffffffffffffffffffffffffffffffffffffffffffffffffff388501600510156118ff576064602d8a013560f81c116118d5577fffffffffffffffffffffffffffffffffffffffffffffffffffffffffffffff38850160061161020657610fde837fffffffffffffffffffffffffffffffffffffffffffffffffffffffffffffff328701602e8c016128e8565b9891809391936118c1575b15806117f8575b6117ce57620186a09080820182116117a1576110458c611040836110388f9561102c8f61102490602a9361104a9b01611c35565b809489612251565b94013560f81c846120ab565b9c8d95612251565b611c35565b611cd8565b9760138111611613575b505050508683017fffffffffffffffffffffffffffffffffffffffffffffffffffffffffffffff60019160e08b01357f400000000000000000000000000000000000000000000000000000000000000016156115f6576002833560f01c106115cc57611160908b60408e8c82516111268161083960208201947dffffffffffffffffffffffffffffffffffffffffffffffffffffffffffff8d3516908690603e927fffffffffffffffffffffffffffffffffffffffffffffffffffffffffffff000091835260101b1660208201520190565b51902081526001602052209160a0602060405161114281611bbb565b600186549687835201549182910152963560f01c920135908d6122e4565b156115a25773ffffffffffffffffffffffffffffffffffffffff915b604051986111898a611bd7565b8952602089015260208a01356040890152166060870152606088013560808701528660a08701527fffffffffffffffffffffffffffffffffffffffffffffffffffffffffffffffc0818601013560801c60c08701524260e01b7bffffffffffffffffffffffffffffffffffffffffffffffffffffffff7fffffffffffffffffffffffffffffffffffffffffffffffffffffffffffffffe08388010135161760e087015260405180602081011067ffffffffffffffff6020830111176109f85760208101604052898152610100870152604088013573ffffffffffffffffffffffffffffffffffffffff8116155f1461159c57506020880135915b6040519360208501526040840152601485013560601c6060840152843560601c6080840152608083528260a081011067ffffffffffffffff60a0850111176109f85760a0830161016084011067ffffffffffffffff610160850111176109f8577f1140dcf80f027f65ebd1c2e98c33e3ebf7ef025d944a079256037cd55271bf9894611478947fffffffffffffffffffffffffffffffffffffffffffffffffffffffffffffff8093610160860160405260a086015260c08501527fffffffffffffffffffffffffffffffffffffffffffffffffffffffffffffffa0828201013560e08501526fffffffffffffffffffffffffffffffff7fffffffffffffffffffffffffffffffffffffffffffffffffffffffffffffffc08383010135166101008501520101356101208201528061014081015260405191829160408352855160408401526020860151606084015260408601516080840152606086015160a0840152608086015160c084015260a086015160e084015260c086015161010084015260e086015161012084015260c061014061142f61010089015161012083880152610160870190611d23565b92858403602087015260a0810151845282810151602085015260e08101516040850152610100810151606085015261012081015160808501520151918160a08201520190611d23565b0390a161010081018051805160208201208252610120832091526e5af43d82803e903d91602b57fd5bf37f0000000000000000000000000000000000000000000000000000000000000000763d602d80600a3d3981f3363d3d373d3d3d363d7300000062ffffff8260881c16175f5260781b17602052603760095ff59273ffffffffffffffffffffffffffffffffffffffff84161561050757849160c085319101511193841561152e575b5050505061059d5780f35b602093945073ffffffffffffffffffffffffffffffffffffffff606060249385937f70a082310000000000000000000000000000000000000000000000000000000085526004520135165afa8251901560203d101761159157105f828180611523565b6040513d84823e3d90fd5b91611283565b60046040517feab3a174000000000000000000000000000000000000000000000000000000008152fd5b60046040517f10d629d3000000000000000000000000000000000000000000000000000000008152fd5b5073ffffffffffffffffffffffffffffffffffffffff913561117c565b61161d8184611c94565b60601c928160141161020657833b15610206578c8f928f60405197889687967f462ebde2000000000000000000000000000000000000000000000000000000008852600488016116b29160e08091803584526020810135602085015260408101356040850152606081013560608501526080810135608085015260a081013560a085015260c081013560c08501520135910152565b61010487016101e090526101e48701906116cb92611ce5565b9261012486015273ffffffffffffffffffffffffffffffffffffffff89166101448601526101648501528c610184850152886101a48501528382037ffffffffffffffffffffffffffffffffffffffffffffffffffffffffffffffffc016101c48501527fffffffffffffffffffffffffffffffffffffffffffffffffffffffffffffffec01916014019161175e92611ce5565b03815a5f948591f1801561179657611779575b808080611054565b909a5067ffffffffffffffff81116109f8576040525f995f611771565b6040513d5f823e3d90fd5b7f4e487b71000000000000000000000000000000000000000000000000000000005f52601160045260245ffd5b60046040517f0155201f000000000000000000000000000000000000000000000000000000008152fd5b506040517f70a0823100000000000000000000000000000000000000000000000000000000815273ffffffffffffffffffffffffffffffffffffffff8616600482015260208160248173ffffffffffffffffffffffffffffffffffffffff7f0000000000000000000000000000000000000000000000000000000000000000165afa908115611796575f9161188f575b5015610ff0565b90506020813d6020116118b9575b816118aa60209383611bf4565b8101031261020657515f611888565b3d915061189d565b97606490602d8d013560f81c020497610fe9565b60046040517f3066a1f1000000000000000000000000000000000000000000000000000000008152fd5b7f4e487b71000000000000000000000000000000000000000000000000000000005f52603260045260245ffd5b60046040517fc5374e2d000000000000000000000000000000000000000000000000000000008152fd5b60046040517fd25aa106000000000000000000000000000000000000000000000000000000008152fd5b34610206576119c66119cf6119af620186a06119b861199e36611a17565b849d98999295979b91949394611e86565b909d919d612681565b99945097929c9150996127fa565b92010190611f57565b629896809182018092116117a15760209161066591612015565b9181601f840112156102065782359167ffffffffffffffff8311610206576020838186019501011161020657565b907ffffffffffffffffffffffffffffffffffffffffffffffffffffffffffffffffc82016101c0811261020657610100136102065760049167ffffffffffffffff90610104358281116102065781611a71916004016119e9565b9390939261012435926101443573ffffffffffffffffffffffffffffffffffffffff811681036102065792610164359261018435926101a43591821161020657611abd916004016119e9565b9091565b7ffffffffffffffffffffffffffffffffffffffffffffffffffffffffffffffffc81016101e0811261020657610100136102065760049167ffffffffffffffff610104358181116102065783611b19916004016119e9565b9390939261012435926101443573ffffffffffffffffffffffffffffffffffffffff811681036102065792610164359261018435926101a435926101c43591821161020657611abd916004016119e9565b7ffffffffffffffffffffffffffffffffffffffffffffffffffffffffffffffffc90602082820112610206576004359167ffffffffffffffff83116102065782610120920301126102065760040190565b6040810190811067ffffffffffffffff8211176109f857604052565b610120810190811067ffffffffffffffff8211176109f857604052565b90601f7fffffffffffffffffffffffffffffffffffffffffffffffffffffffffffffffe0910116810190811067ffffffffffffffff8211176109f857604052565b919082018092116117a157565b67ffffffffffffffff81116109f857601f017fffffffffffffffffffffffffffffffffffffffffffffffffffffffffffffffe01660200190565b90939293848311610206578411610206578101920390565b7fffffffffffffffffffffffffffffffffffffffff0000000000000000000000009035818116939260148110611cc957505050565b60140360031b82901b16169150565b919082039182116117a157565b601f82602094937fffffffffffffffffffffffffffffffffffffffffffffffffffffffffffffffe093818652868601375f8582860101520116010190565b91908251928382525f5b848110611d6b5750507fffffffffffffffffffffffffffffffffffffffffffffffffffffffffffffffe0601f845f6020809697860101520116010190565b602081830181015184830182015201611d2d565b73ffffffffffffffffffffffffffffffffffffffff5f54163303611d9f57565b60246040517f118cdaa7000000000000000000000000000000000000000000000000000000008152336004820152fd5b610100808201357fffffffffffffffffffffffffffffffffffffffffffffffffffffffffffffffe1833603018112156102065782019081359167ffffffffffffffff8311610206576020019180360383136102065780604051938437822090610120809484378201522090565b818102929181159184041417156117a157565b8115611e59570490565b7f4e487b71000000000000000000000000000000000000000000000000000000005f52601260045260245ffd5b91908060031161020657823560e81c8160071161020657600384013560e01c9080158015611f4f575b15611f385750505f925b81600b1161020657600781013560e01c82600e116102065782601111610206577fffffffffffffffffffffffffffffffffffffffffffffffffffffffffffffffef611f1d9301916011810191600b600e83013560e81c92013560e81c810190612499565b909390929181811115611f305703929190565b50505f929190565b620f424091611f48914802611e4f565b0492611eb9565b508115611eaf565b620186a0917fffffffffffffffffffffffffffffffffffffffffffffffffffffffffffffffff83830992808302928380861095039480860395146120055784831115611fed5790829109815f038216809204600280826003021880830282030280830282030280830282030280830282030280830282030280920290030293600183805f03040190848311900302920304170290565b82634e487b715f52156003026011186020526024601cfd5b5050906120129250611e4f565b90565b62989680917fffffffffffffffffffffffffffffffffffffffffffffffffffffffffffffffff83830992808302928380861095039480860395146120055784831115611fed5790829109815f038216809204600280826003021880830282030280830282030280830282030280830282030280830282030280920290030293600183805f03040190848311900302920304170290565b7fffffffffffffffffffffffffffffffffffffffffffffffffffffffffffffffff82820982820291828083109203918083039214612137578160641115612125577f5c28f5c28f5c28f5c28f5c28f5c28f5c28f5c28f5c28f5c28f5c28f5c28f5c29936064910990828211900360fe1b910360021c170290565b634e487b715f5260116020526024601cfd5b5050606491500490565b907fffffffffffffffffffffffffffffffffffffffffffffffffffffffffffffffff818309818302918280831092039180830392146121bd57620186a09082821115612125577f58cd20afa2f05a708ede54b48d3ae685db76b3bb83cf2cf95d4e8fb00bcbe61d940990828211900360fb1b910360051c170290565b5050620186a091500490565b907fffffffffffffffffffffffffffffffffffffffffffffffffffffffffffffffff8183098183029182808310920391808303921461224557629896809082821115612125577f5fb648fcc913daa857a27e44a97d3c6bc1193a63a91cc45be5032477ae8d46a5940990828211900360f91b910360071c170290565b50506298968091500490565b90917fffffffffffffffffffffffffffffffffffffffffffffffffffffffffffffffff83830992808302928380861095039480860395146120055784831115611fed5790829109815f038216809204600280826003021880830282030280830282030280830282030280830282030280830282030280920290030293600183805f03040190848311900302920304170290565b9291906122f5846110408385611cd8565b907fffffffffffffffffffffffffffffffffffffffffffffffffffffffffffffffff918281019081116117a157836123308661233593611e3c565b611e4f565b94810361234f5750505050600281018091116117a1571490565b80830361236a575b50505050600181018091116117a1571490565b6123749083611cd8565b9081019081116117a15761238b9261233091611e3c565b811461239a575f808080612357565b50505f90565b91909160208310612417578035907fffffffffffffffffffffffffffffffffffffffffffffffffffffffffffffffe063ffffffff8360c01c169260e01c940184116123ef578101602001920390565b7f9605a010000000000000000000000000000000000000000000000000000000005f5260045ffd5b505f91508190565b60559173ffffffffffffffffffffffffffffffffffffffff93600b92604051926040840152602083015281520160ff8153201690565b7fffff000000000000000000000000000000000000000000000000000000000000903581811693926002811061248a57505050565b60020360031b82901b16169150565b949290828686156118ff57833560f81c6001948860011161020657600101977fffffffffffffffffffffffffffffffffffffffffffffffffffffffffffffffff0160056124ea82848302818d611c7c565b909b909a904211612502575050505050505050929190565b90919293949580979a9998504210156125c4579291905f915b83831061253f57505050505061253a9394955082039142900302611e4f565b929190565b909192939460039082821161020657863560e81c918385116102065787013560f01c810197884211156125a15750909695830194938b0192917ffffffffffffffffffffffffffffffffffffffffffffffffffffffffffffffffb01905061251b565b9550969750945050505061253a9495965082840393429003029142030201611e4f565b505f999850505050505050565b919269ffffffffffffffffffff5f94169180156118ff57833560f81c600a9481600a02956001938760010190816001116102065780821161020657600184019361261d92908290611c7c565b979097965f935b8585106126345750505050505050565b82841161020657803560b01c8214612676577ffffffffffffffffffffffffffffffffffffffffffffffffffffffffffffffff684889201930194019391612624565b509498505050505050565b9161268c8284612455565b60f01c9282600210156118ff57600281013560f81c926064841161192c5780600311610206576126e17ffffffffffffffffffffffffffffffffffffffffffffffffffffffffffffffffd820160038401612455565b60f01c9281600510156118ff57600583013560f81c92606484116118d557826006116102065760067ffffffffffffffffffffffffffffffffffffffffffffffffffffffffffffffffa612736940191016125d1565b91969092876127425750565b60649194020492565b949073ffffffffffffffffffffffffffffffffffffffff926120129a98959997946127d2926127c3896101c09260e08091803584526020810135602085015260408101356040850152606081013560608501526080810135608085015260a081013560a085015260c081013560c08501520135910152565b806101008a0152880191611ce5565b97610120860152166101408401526101608301526101808201526101a0818503910152611ce5565b90979496939594929390601484106128cc576128168483611c94565b60601c9584601411610206576020986014987fffffffffffffffffffffffffffffffffffffffffffffffffffffffffffffffec97612888966040519d8e9c8d9b8c9b7f1d9671c3000000000000000000000000000000000000000000000000000000008d520198019660048b0161274b565b03915afa908115611796575f9161289d575090565b90506020813d6020116128c4575b816128b860209383611bf4565b81010312610206575190565b3d91506128ab565b9695505050505050612012925060a060c0830135920135612251565b919269ffffffffffffffffffff5f9416918335907fffffffff0000000000000000000000000000000000000000000000000000000080831690600493848410612afb575b505060e01c9080831015612acf578286013560f81c600c9181600c02908160050190816005116102065780821161020657612971918160058c9796959701969b611c7c565b989098975f905b8382106129b657505050505050421061298e5750565b6040517f9da6e025000000000000000000000000000000000000000000000000000000008152fd5b9091929394955f9b9a9998979b5086357fffffffffffffffffffff0000000000000000000000000000000000000000000080821690600a92838810612abb575b50508242105f14612a2a578d6040517f9da6e025000000000000000000000000000000000000000000000000000000008152fd5b60b09d999a9b9c9d1c8314612aac5784811161020657612a6f907ffffffffffffffffffffffffffffffffffffffffffffffffffffffffffffffff68601908901612455565b60f01c01958386116102065785019493927ffffffffffffffffffffffffffffffffffffffffffffffffffffffffffffffff4019160010190612978565b5060019b505050505050505050565b9080925087840360031b1b16165f806129f6565b6032837f4e487b71000000000000000000000000000000000000000000000000000000005f525260245ffd5b9080925083850360031b1b16165f8061292c565b9097949693959492939060148410612b9d57612b2b8483611c94565b60601c9584601411610206576020986014987fffffffffffffffffffffffffffffffffffffffffffffffffffffffffffffffec97612888966040519d8e9c8d9b8c9b7fd7ff8a80000000000000000000000000000000000000000000000000000000008d520198019660048b0161274b565b975050505050505060a060c0830135920135612bba818385612251565b918115611e59576120129309151590611c3556fea2646970667358221220718ef778b7e2759f06be081bd346490a6901088ef23e87ef8ecba4ab79da977664736f6c63430008170033610100346100f357601f61102c38819003918201601f19168301916001600160401b038311848410176100f75780849260409485528339810103126100f35780519063ffffffff82168092036100f35760200151906001600160a01b03821682036100f3573360c05260a0526080526e5af43d82803e903d91602b57fd5bf360205230601152763d602d80600a3d3981f3363d3d373d3d3d363d730000003060881c175f52603760092060e052604051610f20908161010c823960805181610353015260a05181818160a30152610249015260c0518181816104910152610b4e015260e0518181816104240152610b230152f35b5f80fd5b634e487b7160e01b5f52604160045260245ffdfe6080604090808252600480361015610015575f80fd5b60e05f35811c9283632537a347146104b5575082632dd310001461044757826334862b6a146103ef5782633e99ca75146102f95782635e504d03146101a657826378a5e1a1146100ca57505063f56cd69c1461006f575f80fd5b346100c6575f7ffffffffffffffffffffffffffffffffffffffffffffffffffffffffffffffffc3601126100c657602090517f00000000000000000000000000000000000000000000000000000000000000008152f35b5f80fd5b8390346100c6576100da366105e5565b92909173ffffffffffffffffffffffffffffffffffffffff606085013516330361017e5763ffffffff8185013580921c9160801c16810180911161015257421061012a5761012883836106a8565b005b8390517f6f7eac26000000000000000000000000000000000000000000000000000000008152fd5b6011857f4e487b71000000000000000000000000000000000000000000000000000000005f525260245ffd5b8482517f48f5c3ed000000000000000000000000000000000000000000000000000000008152fd5b8390346100c6577ffffffffffffffffffffffffffffffffffffffffffffffffffffffffffffffffc906060823601126100c65783359373ffffffffffffffffffffffffffffffffffffffff91828616938487036100c657602435936044359167ffffffffffffffff83116100c6576101209083360301126100c65760648201351633036102d1578061024361023e60e4938601610a96565b610b03565b0135901c7f00000000000000000000000000000000000000000000000000000000000000000142106102aa575061029d817fc4474c2790e13695f6d2b6f1d8e164290b55370f87a542fd7711abe0a1bf40ac953390610bef565b82519182526020820152a1005b83517f6f7eac26000000000000000000000000000000000000000000000000000000008152fd5b8286517f48f5c3ed000000000000000000000000000000000000000000000000000000008152fd5b8390346100c657610309366105e5565b92909181517f70a08231000000000000000000000000000000000000000000000000000000008152338682015260208160248173ffffffffffffffffffffffffffffffffffffffff7f0000000000000000000000000000000000000000000000000000000000000000165afa9081156103e5575f916103b3575b501561017e5763ffffffff8185013580921c9160a01c16810180911161015257421061012a5761012883836106a8565b90506020813d6020116103dd575b816103ce6020938361063a565b810103126100c6575186610383565b3d91506103c1565b83513d5f823e3d90fd5b83346100c6575f7ffffffffffffffffffffffffffffffffffffffffffffffffffffffffffffffffc3601126100c657602090517f00000000000000000000000000000000000000000000000000000000000000008152f35b83346100c6575f7ffffffffffffffffffffffffffffffffffffffffffffffffffffffffffffffffc3601126100c6576020905173ffffffffffffffffffffffffffffffffffffffff7f0000000000000000000000000000000000000000000000000000000000000000168152f35b849150346100c6577ffffffffffffffffffffffffffffffffffffffffffffffffffffffffffffffffc926020843601126100c65780359367ffffffffffffffff85116100c6576101209085360301126100c65773ffffffffffffffffffffffffffffffffffffffff9283606486013516928333036105be575061053c61023e868401610a96565b61054960e4860135610ba8565b42106105985761057260c48661056a60a48201358760848401358a16610bef565b013533610ce9565b7f6e3be9294e58d10b9c8053cfd5e09871b67e442fe394d6b0870d336b9df984a95f80a1005b517f6f7eac26000000000000000000000000000000000000000000000000000000008152fd5b90507f48f5c3ed000000000000000000000000000000000000000000000000000000008152fd5b907ffffffffffffffffffffffffffffffffffffffffffffffffffffffffffffffffc6040818401126100c657600435926024359167ffffffffffffffff83116100c65782610120920301126100c65760040190565b90601f7fffffffffffffffffffffffffffffffffffffffffffffffffffffffffffffffe0910116810190811067ffffffffffffffff82111761067b57604052565b7f4e487b71000000000000000000000000000000000000000000000000000000005f52604160045260245ffd5b6106b560e0830135610ba8565b421015610a6c576106c861023e83610a96565b602090805f5281830135825f2003610a4257610734926106e83682610d4f565b9073__$d70ffefbbc28bdd447039bb50caad9b5c3$__846040938451809881927fcc51c71700000000000000000000000000000000000000000000000000000000835260048301610e1b565b0381845af49586156103e5575f96610a11575b5061078990856107573685610d4f565b8551809481927f967d204400000000000000000000000000000000000000000000000000000000835260048301610e1b565b0381845af4918215610a07575f926109d8575b5086610919575b81610819575b508161056a6107eb60c0936107e67fe346f5c97a360db5188bfa5d3ec5f0583abde420c6ba4d08b6cfe61addc171059a60a0610812980135610edd565b610edd565b73ffffffffffffffffffffffffffffffffffffffff80878501351690608085013516610bef565b51908152a1565b956108728673ffffffffffffffffffffffffffffffffffffffff9861083e3687610d4f565b90875180809581947f6e30c3eb00000000000000000000000000000000000000000000000000000000835260048301610e1b565b03915af490811561090f575f916108d8575b506107eb836107e661081296946108cb60c0978d7fe346f5c97a360db5188bfa5d3ec5f0583abde420c6ba4d08b6cfe61addc171059e61056a98169060808a013516610bef565b9a505093505050916107a9565b92939190508683813d8311610908575b6108f2818361063a565b810103126100c6579151909291906107eb610884565b503d6108e8565b85513d5f823e3d90fd5b73ffffffffffffffffffffffffffffffffffffffff61096e8761093c3687610d4f565b8751809381927f505ba09b00000000000000000000000000000000000000000000000000000000835260048301610e1b565b0381865af49081156109ce579089915f9161099d575b509180610998931690608087013516610bef565b6107a3565b809250898092503d83116109c7575b6109b6818361063a565b810103126100c65751889082610984565b503d6109ac565b86513d5f823e3d90fd5b9091508581813d8311610a00575b6109f0818361063a565b810103126100c65751905f61079c565b503d6109e6565b84513d5f823e3d90fd5b9095508481813d8311610a3b575b610a29818361063a565b810103126100c6575194610789610747565b503d610a1f565b60046040517fabab6bd7000000000000000000000000000000000000000000000000000000008152fd5b60046040517f6f7eac26000000000000000000000000000000000000000000000000000000008152fd5b610100808201357fffffffffffffffffffffffffffffffffffffffffffffffffffffffffffffffe1833603018112156100c65782019081359167ffffffffffffffff83116100c6576020019180360383136100c65780604051938437822090610120809484378201522090565b6055600b73ffffffffffffffffffffffffffffffffffffffff92604051907f0000000000000000000000000000000000000000000000000000000000000000604083015260208201527f000000000000000000000000000000000000000000000000000000000000000081520160ff815320163003610b7e57565b60046040517fa269484a000000000000000000000000000000000000000000000000000000008152fd5b63ffffffff8160e01c9160c01c168101809111610bc25790565b7f4e487b71000000000000000000000000000000000000000000000000000000005f52601160045260245ffd5b73ffffffffffffffffffffffffffffffffffffffff16919082610c1857610c169250610ce9565b565b60445f91602093604051917fa9059cbb0000000000000000000000000000000000000000000000000000000083526004830152602482015282855af19081610c8d575b5015610c6357565b60046040517ffb7f5079000000000000000000000000000000000000000000000000000000008152fd5b90503d15610ca7575060015f5114601f3d11165b5f610c5b565b3b1515610ca1565b67ffffffffffffffff811161067b57601f017fffffffffffffffffffffffffffffffffffffffffffffffffffffffffffffffe01660200190565b5f80809381935af13d15610d4a573d610d0181610caf565b90610d0f604051928361063a565b81525f60203d92013e5b15610d2057565b60046040517f8a0332d5000000000000000000000000000000000000000000000000000000008152fd5b610d19565b91906101209283818303126100c65760405167ffffffffffffffff9481018581118282101761067b57604052809482358252602090818401358284015260408401356040840152606084013560608401526080840135608084015260a084013560a084015260c084013560c084015260e084013560e084015261010093848101359182116100c657019084601f830112156100c6578135610def81610caf565b95610dfd604051978861063a565b8187528282850101116100c65780825f940183880137850101520152565b6020916020825280516020830152602081015160408301526040810151606083015260608101516080830152608081015160a083015260a081015160c083015260c081015160e083015260e081015190610100918284015201519161012080830152825192836101408401525f5b848110610ec8575050507fffffffffffffffffffffffffffffffffffffffffffffffffffffffffffffffe0601f610160935f8582860101520116010190565b81810183015184820161016001528201610e89565b91908203918211610bc25756fea26469706673582212202b310aaa4f37981ad6f125f302dcd0a2979172f31eb933d9520376eae53df30064736f6c63430008170033610100346100fa57601f610eee38819003918201601f19168301916001600160401b038311848410176100fe5780849260409485528339810103126100fa5780519063ffffffff82168092036100fa5760200151906001600160a01b03821682036100fa573360c05260a0526080526e5af43d82803e903d91602b57fd5bf360205230601152763d602d80600a3d3981f3363d3d373d3d3d363d730000003060881c175f52603760092060e052604051610ddb908161011382396080518181816105ab015261092a015260a05181818160b901526102e3015260c0518181816108130152610c1f015260e0518181816107a60152610bf40152f35b5f80fd5b634e487b7160e01b5f52604160045260245ffdfe6080604090808252600480361015610015575f80fd5b60e05f35811c928363056fb477146108d1575082632537a347146108375782632dd31000146107c957826334862b6a146107715782633e99ca751461054c5782634c345901146103a85782635e504d031461024757826378a5e1a1146100e057505063f56cd69c14610085575f80fd5b346100dc575f7ffffffffffffffffffffffffffffffffffffffffffffffffffffffffffffffffc3601126100dc57602090517f00000000000000000000000000000000000000000000000000000000000000008152f35b5f80fd5b8390346100dc576100f036610a46565b91909373ffffffffffffffffffffffffffffffffffffffff9182606085013516330361021f5783013561012281610b50565b42106101f75761013190610b09565b4210156101d05761014961014484610b67565b610bd4565b845f52602083013560205f20036101a9577fe346f5c97a360db5188bfa5d3ec5f0583abde420c6ba4d08b6cfe61addc17105602086866101a260c08861019a60a08201353360808401358c16610c79565b013533610d11565b51908152a1005b83517fabab6bd7000000000000000000000000000000000000000000000000000000008152fd5b83517f6f7eac26000000000000000000000000000000000000000000000000000000008152fd5b5083517f6f7eac26000000000000000000000000000000000000000000000000000000008152fd5b5083517f48f5c3ed000000000000000000000000000000000000000000000000000000008152fd5b8390346100dc577ffffffffffffffffffffffffffffffffffffffffffffffffffffffffffffffffc6060813601126100dc5783359173ffffffffffffffffffffffffffffffffffffffff918284168094036100dc57602435926044359167ffffffffffffffff83116100dc576101209083360301126100dc57606482013516330361038057806102dd61014460e4938901610b67565b0135901c7f0000000000000000000000000000000000000000000000000000000000000000014210610358577fc4474c2790e13695f6d2b6f1d8e164290b55370f87a542fd7711abe0a1bf40ac9350816103485761033b8133610d11565b82519182526020820152a1005b610353813384610c79565b61033b565b5050517f6f7eac26000000000000000000000000000000000000000000000000000000008152fd5b8585517f48f5c3ed000000000000000000000000000000000000000000000000000000008152fd5b5082346100dc577ffffffffffffffffffffffffffffffffffffffffffffffffffffffffffffffffc6060813601126100dc5782359260243573ffffffffffffffffffffffffffffffffffffffff9182821682036100dc576044359367ffffffffffffffff85116100dc576101209085360301126100dc578260648501351633036105255760e484013561043a81610b50565b42106104fd5761044990610b09565b4210156104d65761045e610144858301610b67565b855f52602484013560205f20036104af577fe346f5c97a360db5188bfa5d3ec5f0583abde420c6ba4d08b6cfe61addc17105602087876101a260c48961019a60a48201358a60848401358d16610c79565b84517fabab6bd7000000000000000000000000000000000000000000000000000000008152fd5b84517f6f7eac26000000000000000000000000000000000000000000000000000000008152fd5b5084517f6f7eac26000000000000000000000000000000000000000000000000000000008152fd5b84517f48f5c3ed000000000000000000000000000000000000000000000000000000008152fd5b9150346100dc5761055c36610a46565b93909173ffffffffffffffffffffffffffffffffffffffff908251947f70a0823100000000000000000000000000000000000000000000000000000000865233828701526020958681602481877f0000000000000000000000000000000000000000000000000000000000000000165afa908115610767575f9161073a575b5015610712578087013580911c63ffffffff82881c1681018091116106e65742106106be5761060990610b09565b4210156106975761061c61014487610b67565b835f5284860135855f2003610670575060c08561019a6101a29360a07fe346f5c97a360db5188bfa5d3ec5f0583abde420c6ba4d08b6cfe61addc17105990135908060608501351690608085013516610c79565b82517fabab6bd7000000000000000000000000000000000000000000000000000000008152fd5b82517f6f7eac26000000000000000000000000000000000000000000000000000000008152fd5b5082517f6f7eac26000000000000000000000000000000000000000000000000000000008152fd5b6011837f4e487b71000000000000000000000000000000000000000000000000000000005f525260245ffd5b5082517f48f5c3ed000000000000000000000000000000000000000000000000000000008152fd5b90508681813d8311610760575b6107518183610a9b565b810103126100dc57515f6105db565b503d610747565b85513d5f823e3d90fd5b83346100dc575f7ffffffffffffffffffffffffffffffffffffffffffffffffffffffffffffffffc3601126100dc57602090517f00000000000000000000000000000000000000000000000000000000000000008152f35b83346100dc575f7ffffffffffffffffffffffffffffffffffffffffffffffffffffffffffffffffc3601126100dc576020905173ffffffffffffffffffffffffffffffffffffffff7f0000000000000000000000000000000000000000000000000000000000000000168152f35b8390346100dc57610847366109f5565b9273ffffffffffffffffffffffffffffffffffffffff918260608601351633036107125761087790850135610b09565b4210610697576108ab60c08561019a868661089461014485610b67565b8060a0850135928501351690608085013516610c79565b7f6e3be9294e58d10b9c8053cfd5e09871b67e442fe394d6b0870d336b9df984a95f80a1005b849192346100dc576108e2366109f5565b9373ffffffffffffffffffffffffffffffffffffffff927f70a082310000000000000000000000000000000000000000000000000000000081523383820152602081602481877f0000000000000000000000000000000000000000000000000000000000000000165afa908115610767575f916109c3575b50156107125763ffffffff8186013580921c9160601c168101809111610997574210610697576108ab60c08561019a868661089461014485610b67565b6011827f4e487b71000000000000000000000000000000000000000000000000000000005f525260245ffd5b90506020813d6020116109ed575b816109de60209383610a9b565b810103126100dc57518661095a565b3d91506109d1565b7ffffffffffffffffffffffffffffffffffffffffffffffffffffffffffffffffc906020828201126100dc576004359167ffffffffffffffff83116100dc5782610120920301126100dc5760040190565b907ffffffffffffffffffffffffffffffffffffffffffffffffffffffffffffffffc6040818401126100dc57600435926024359167ffffffffffffffff83116100dc5782610120920301126100dc5760040190565b90601f7fffffffffffffffffffffffffffffffffffffffffffffffffffffffffffffffe0910116810190811067ffffffffffffffff821117610adc57604052565b7f4e487b71000000000000000000000000000000000000000000000000000000005f52604160045260245ffd5b63ffffffff8160e01c9160401c168101809111610b235790565b7f4e487b71000000000000000000000000000000000000000000000000000000005f52601160045260245ffd5b63ffffffff8160e01c91168101809111610b235790565b610100808201357fffffffffffffffffffffffffffffffffffffffffffffffffffffffffffffffe1833603018112156100dc5782019081359167ffffffffffffffff83116100dc576020019180360383136100dc5780604051938437822090610120809484378201522090565b6055600b73ffffffffffffffffffffffffffffffffffffffff92604051907f0000000000000000000000000000000000000000000000000000000000000000604083015260208201527f000000000000000000000000000000000000000000000000000000000000000081520160ff815320163003610c4f57565b60046040517fa269484a000000000000000000000000000000000000000000000000000000008152fd5b9160446020925f92604051917fa9059cbb0000000000000000000000000000000000000000000000000000000083526004830152602482015282855af19081610cef575b5015610cc557565b60046040517ffb7f5079000000000000000000000000000000000000000000000000000000008152fd5b90503d15610d09575060015f5114601f3d11165b5f610cbd565b3b1515610d03565b5f80809381935af13d15610da0573d67ffffffffffffffff8111610adc5760405190610d6560207fffffffffffffffffffffffffffffffffffffffffffffffffffffffffffffffe0601f8401160183610a9b565b81525f60203d92013e5b15610d7657565b60046040517f8a0332d5000000000000000000000000000000000000000000000000000000008152fd5b610d6f56fea2646970667358221220b8d6ec63e49dfa406e00d5d94f2e4bb868be96b7aa75e4299fbb94230a2b5e3464736f6c63430008170033","linkReferences":{"contracts/libraries/ImmutablesLib.sol":{"ImmutablesLib":[{"start":14068,"length":20}]}}},"methodIdentifiers":{"ESCROW_DST_IMPLEMENTATION()":"ba551177","ESCROW_SRC_IMPLEMENTATION()":"7040f173","addressOfEscrowDst((bytes32,bytes32,uint256,uint256,uint256,uint256,uint256,uint256,bytes))":"b4bf21c2","addressOfEscrowSrc((bytes32,bytes32,uint256,uint256,uint256,uint256,uint256,uint256,bytes))":"fd6de035","createDstEscrow((bytes32,bytes32,uint256,uint256,uint256,uint256,uint256,uint256,bytes),uint256)":"ede88f38","getMakingAmount((uint256,uint256,uint256,uint256,uint256,uint256,uint256,uint256),bytes,bytes32,address,uint256,uint256,bytes)":"1d9671c3","getTakingAmount((uint256,uint256,uint256,uint256,uint256,uint256,uint256,uint256),bytes,bytes32,address,uint256,uint256,bytes)":"d7ff8a80","lastValidated(bytes32)":"acf4ce5c","owner()":"8da5cb5b","postInteraction((uint256,uint256,uint256,uint256,uint256,uint256,uint256,uint256),bytes,bytes32,address,uint256,uint256,uint256,bytes)":"462ebde2","renounceOwnership()":"715018a6","rescueFunds(address,uint256)":"78e3214f","takerInteraction((uint256,uint256,uint256,uint256,uint256,uint256,uint256,uint256),bytes,bytes32,address,uint256,uint256,uint256,bytes)":"adf38ba1","transferOwnership(address)":"f2fde38b"},"id":4}