{"abi":[{"type":"function","name":"integratorFeeAmountCd","inputs":[{"name":"immutables","type":"tuple","internalType":"struct IBaseEscrow.Immutables","components":[{"name":"orderHash","type":"bytes32","internalType":"bytes32"},{"name":"hashlock","type":"bytes32","internalType":"bytes32"},{"name":"maker","type":"uint256","internalType":"Address"},{"name":"taker","type":"uint256","internalType":"Address"},{"name":"token","type":"uint256","internalType":"Address"},{"name":"amount","type":"uint256","internalType":"uint256"},{"name":"safetyDeposit","type":"uint256","internalType":"uint256"},{"name":"timelocks","type":"uint256","internalType":"Timelocks"},{"name":"parameters","type":"bytes","internalType":"bytes"}]}],"outputs":[{"name":"ret","type":"uint256","internalType":"uint256"}],"stateMutability":"pure"},{"type":"function","name":"integratorFeeRecipientCd","inputs":[{"name":"immutables","type":"tuple","internalType":"struct IBaseEscrow.Immutables","components":[{"name":"orderHash","type":"bytes32","internalType":"bytes32"},{"name":"hashlock","type":"bytes32","internalType":"bytes32"},{"name":"maker","type":"uint256","internalType":"Address"},{"name":"taker","type":"uint256","internalType":"Address"},{"name":"token","type":"uint256","internalType":"Address"},{"name":"amount","type":"uint256","internalType":"uint256"},{"name":"safetyDeposit","type":"uint256","internalType":"uint256"},{"name":"timelocks","type":"uint256","internalType":"Timelocks"},{"name":"parameters","type":"bytes","internalType":"bytes"}]}],"outputs":[{"name":"ret","type":"uint256","internalType":"Address"}],"stateMutability":"pure"},{"type":"function","name":"protocolFeeAmountCd","inputs":[{"name":"immutables","type":"tuple","internalType":"struct IBaseEscrow.Immutables","components":[{"name":"orderHash","type":"bytes32","internalType":"bytes32"},{"name":"hashlock","type":"bytes32","internalType":"bytes32"},{"name":"maker","type":"uint256","internalType":"Address"},{"name":"taker","type":"uint256","internalType":"Address"},{"name":"token","type":"uint256","internalType":"Address"},{"name":"amount","type":"uint256","internalType":"uint256"},{"name":"safetyDeposit","type":"uint256","internalType":"uint256"},{"name":"timelocks","type":"uint256","internalType":"Timelocks"},{"name":"parameters","type":"bytes","internalType":"bytes"}]}],"outputs":[{"name":"ret","type":"uint256","internalType":"uint256"}],"stateMutability":"pure"},{"type":"function","name":"protocolFeeRecipientCd","inputs":[{"name":"immutables","type":"tuple","internalType":"struct IBaseEscrow.Immutables","components":[{"name":"orderHash","type":"bytes32","internalType":"bytes32"},{"name":"hashlock","type":"bytes32","internalType":"bytes32"},{"name":"maker","type":"uint256","internalType":"Address"},{"name":"taker","type":"uint256","internalType":"Address"},{"name":"token","type":"uint256","internalType":"Address"},{"name":"amount","type":"uint256","internalType":"uint256"},{"name":"safetyDeposit","type":"uint256","internalType":"uint256"},{"name":"timelocks","type":"uint256","internalType":"Timelocks"},{"name":"parameters","type":"bytes","internalType":"bytes"}]}],"outputs":[{"name":"ret","type":"uint256","internalType":"Address"}],"stateMutability":"pure"},{"type":"error","name":"IndexOutOfRange","inputs":[]}],"bytecode":{"object":"0x6080806040523461001a5761020d908161001f823930815050f35b5f80fdfe60806040908082526004361015610014575f80fd5b5f3560e01c908163505ba09b146100e3575080636e30c3eb146100c0578063967d20441461009f5763cc51c7171461004a575f80fd5b8061006261005736610131565b610100810190610186565b919091106100765760208092519101358152f35b600482517f1390f2a1000000000000000000000000000000000000000000000000000000008152fd5b5060206100ae61005736610131565b91909110610076576020915190358152f35b5060606100cf61005736610131565b919091106100765781602092519101358152f35b608091506100f361005736610131565b9290921061010957506060602092519101358152f35b807f1390f2a10000000000000000000000000000000000000000000000000000000060049252fd5b7ffffffffffffffffffffffffffffffffffffffffffffffffffffffffffffffffc90602082820112610182576004359167ffffffffffffffff83116101825782610120920301126101825760040190565b5f80fd5b9035907fffffffffffffffffffffffffffffffffffffffffffffffffffffffffffffffe181360301821215610182570180359067ffffffffffffffff8211610182576020019181360383136101825756fea2646970667358221220350a405fd764b49dee64d08e9ab0b15d9cb43269395739a9b0caf7ee2acef8f264736f6c63430008170033","linkReferences":{}},"methodIdentifiers":{"integratorFeeAmountCd(IBaseEscrow.Immutables)":"cc51c717","integratorFeeRecipientCd(IBaseEscrow.Immutables)":"505ba09b","protocolFeeAmountCd(IBaseEscrow.Immutables)":"967d2044","protocolFeeRecipientCd(IBaseEscrow.Immutables)":"6e30c3eb"},"id":15}