{
  "address": "0x2Ad5004c60e16E54d5007C80CE329Adde5B51Ef5",
  "abi": [
    {
      "inputs": [
        {
          "internalType": "address",
          "name": "limitOrderProtocol",
          "type": "address"
        },
        {
          "internalType": "contract IERC20",
          "name": "accessToken",
          "type": "address"
        },
        {
          "internalType": "address",
          "name": "weth",
          "type": "address"
        },
        {
          "internalType": "address",
          "name": "owner",
          "type": "address"
        }
      ],
      "stateMutability": "nonpayable",
      "type": "constructor"
    },
    {
      "inputs": [],
      "name": "AllowedTimeViolation",
      "type": "error"
    },
    {
      "inputs": [],
      "name": "ETHTransferFailed",
      "type": "error"
    },
    {
      "inputs": [],
      "name": "EthTransferFailed",
      "type": "error"
    },
    {
      "inputs": [],
      "name": "InconsistentFee",
      "type": "error"
    },
    {
      "inputs": [],
      "name": "InsufficientBalance",
      "type": "error"
    },
    {
      "inputs": [],
      "name": "InvalidEstimatedTakingAmount",
      "type": "error"
    },
    {
      "inputs": [],
      "name": "InvalidIntegratorShare",
      "type": "error"
    },
    {
      "inputs": [],
      "name": "InvalidProtocolSurplusFee",
      "type": "error"
    },
    {
      "inputs": [],
      "name": "InvalidWhitelistDiscountNumerator",
      "type": "error"
    },
    {
      "inputs": [],
      "name": "OnlyLimitOrderProtocol",
      "type": "error"
    },
    {
      "inputs": [],
      "name": "OnlyWhitelistOrAccessToken",
      "type": "error"
    },
    {
      "inputs": [
        {
          "internalType": "address",
          "name": "owner",
          "type": "address"
        }
      ],
      "name": "OwnableInvalidOwner",
      "type": "error"
    },
    {
      "inputs": [
        {
          "internalType": "address",
          "name": "account",
          "type": "address"
        }
      ],
      "name": "OwnableUnauthorizedAccount",
      "type": "error"
    },
    {
      "inputs": [],
      "name": "SafeTransferFailed",
      "type": "error"
    },
    {
      "anonymous": false,
      "inputs": [
        {
          "indexed": true,
          "internalType": "address",
          "name": "previousOwner",
          "type": "address"
        },
        {
          "indexed": true,
          "internalType": "address",
          "name": "newOwner",
          "type": "address"
        }
      ],
      "name": "OwnershipTransferred",
      "type": "event"
    },
    {
      "inputs": [
        {
          "components": [
            {
              "internalType": "uint256",
              "name": "salt",
              "type": "uint256"
            },
            {
              "internalType": "Address",
              "name": "maker",
              "type": "uint256"
            },
            {
              "internalType": "Address",
              "name": "receiver",
              "type": "uint256"
            },
            {
              "internalType": "Address",
              "name": "makerAsset",
              "type": "uint256"
            },
            {
              "internalType": "Address",
              "name": "takerAsset",
              "type": "uint256"
            },
            {
              "internalType": "uint256",
              "name": "makingAmount",
              "type": "uint256"
            },
            {
              "internalType": "uint256",
              "name": "takingAmount",
              "type": "uint256"
            },
            {
              "internalType": "MakerTraits",
              "name": "makerTraits",
              "type": "uint256"
            }
          ],
          "internalType": "struct IOrderMixin.Order",
          "name": "order",
          "type": "tuple"
        },
        {
          "internalType": "bytes",
          "name": "extension",
          "type": "bytes"
        },
        {
          "internalType": "bytes32",
          "name": "orderHash",
          "type": "bytes32"
        },
        {
          "internalType": "address",
          "name": "taker",
          "type": "address"
        },
        {
          "internalType": "uint256",
          "name": "takingAmount",
          "type": "uint256"
        },
        {
          "internalType": "uint256",
          "name": "remainingMakingAmount",
          "type": "uint256"
        },
        {
          "internalType": "bytes",
          "name": "extraData",
          "type": "bytes"
        }
      ],
      "name": "getMakingAmount",
      "outputs": [
        {
          "internalType": "uint256",
          "name": "",
          "type": "uint256"
        }
      ],
      "stateMutability": "view",
      "type": "function"
    },
    {
      "inputs": [
        {
          "components": [
            {
              "internalType": "uint256",
              "name": "salt",
              "type": "uint256"
            },
            {
              "internalType": "Address",
              "name": "maker",
              "type": "uint256"
            },
            {
              "internalType": "Address",
              "name": "receiver",
              "type": "uint256"
            },
            {
              "internalType": "Address",
              "name": "makerAsset",
              "type": "uint256"
            },
            {
              "internalType": "Address",
              "name": "takerAsset",
              "type": "uint256"
            },
            {
              "internalType": "uint256",
              "name": "makingAmount",
              "type": "uint256"
            },
            {
              "internalType": "uint256",
              "name": "takingAmount",
              "type": "uint256"
            },
            {
              "internalType": "MakerTraits",
              "name": "makerTraits",
              "type": "uint256"
            }
          ],
          "internalType": "struct IOrderMixin.Order",
          "name": "order",
          "type": "tuple"
        },
        {
          "internalType": "bytes",
          "name": "extension",
          "type": "bytes"
        },
        {
          "internalType": "bytes32",
          "name": "orderHash",
          "type": "bytes32"
        },
        {
          "internalType": "address",
          "name": "taker",
          "type": "address"
        },
        {
          "internalType": "uint256",
          "name": "makingAmount",
          "type": "uint256"
        },
        {
          "internalType": "uint256",
          "name": "remainingMakingAmount",
          "type": "uint256"
        },
        {
          "internalType": "bytes",
          "name": "extraData",
          "type": "bytes"
        }
      ],
      "name": "getTakingAmount",
      "outputs": [
        {
          "internalType": "uint256",
          "name": "",
          "type": "uint256"
        }
      ],
      "stateMutability": "view",
      "type": "function"
    },
    {
      "inputs": [],
      "name": "owner",
      "outputs": [
        {
          "internalType": "address",
          "name": "",
          "type": "address"
        }
      ],
      "stateMutability": "view",
      "type": "function"
    },
    {
      "inputs": [
        {
          "components": [
            {
              "internalType": "uint256",
              "name": "salt",
              "type": "uint256"
            },
            {
              "internalType": "Address",
              "name": "maker",
              "type": "uint256"
            },
            {
              "internalType": "Address",
              "name": "receiver",
              "type": "uint256"
            },
            {
              "internalType": "Address",
              "name": "makerAsset",
              "type": "uint256"
            },
            {
              "internalType": "Address",
              "name": "takerAsset",
              "type": "uint256"
            },
            {
              "internalType": "uint256",
              "name": "makingAmount",
              "type": "uint256"
            },
            {
              "internalType": "uint256",
              "name": "takingAmount",
              "type": "uint256"
            },
            {
              "internalType": "MakerTraits",
              "name": "makerTraits",
              "type": "uint256"
            }
          ],
          "internalType": "struct IOrderMixin.Order",
          "name": "order",
          "type": "tuple"
        },
        {
          "internalType": "bytes",
          "name": "extension",
          "type": "bytes"
        },
        {
          "internalType": "bytes32",
          "name": "orderHash",
          "type": "bytes32"
        },
        {
          "internalType": "address",
          "name": "taker",
          "type": "address"
        },
        {
          "internalType": "uint256",
          "name": "makingAmount",
          "type": "uint256"
        },
        {
          "internalType": "uint256",
          "name": "takingAmount",
          "type": "uint256"
        },
        {
          "internalType": "uint256",
          "name": "remainingMakingAmount",
          "type": "uint256"
        },
        {
          "internalType": "bytes",
          "name": "extraData",
          "type": "bytes"
        }
      ],
      "name": "postInteraction",
      "outputs": [],
      "stateMutability": "nonpayable",
      "type": "function"
    },
    {
      "inputs": [],
      "name": "renounceOwnership",
      "outputs": [],
      "stateMutability": "nonpayable",
      "type": "function"
    },
    {
      "inputs": [
        {
          "internalType": "contract IERC20",
          "name": "token",
          "type": "address"
        },
        {
          "internalType": "uint256",
          "name": "amount",
          "type": "uint256"
        }
      ],
      "name": "rescueFunds",
      "outputs": [],
      "stateMutability": "nonpayable",
      "type": "function"
    },
    {
      "inputs": [
        {
          "internalType": "address",
          "name": "newOwner",
          "type": "address"
        }
      ],
      "name": "transferOwnership",
      "outputs": [],
      "stateMutability": "nonpayable",
      "type": "function"
    },
    {
      "stateMutability": "payable",
      "type": "receive"
    }
  ],
  "transactionHash": "0x76ec4b2a92b818037bed1f30e5d5d520d9291854d68f0a256c6e3f43fcdaf378",
  "args": [
    "0x111111125421ca6dc452d289314280a0f8842a65",
    "0xAccE550000863572B867E661647CD7D97b72C507",
    "0xe5D7C2a44FfDDf6b295A15c148167daaAf5Cf34f",
    "0x56E44874F624EbDE6efCc783eFD685f0FBDC6dcF"
  ],
  "numDeployments": 1,
  "bytecode": "0x60e0346200011357601f620020d838819003918201601f19168301916001600160401b03831184841017620001185780849260809460405283398101031262000113576200004d816200012e565b60208201516001600160a01b0392909183831683036200011357836200008460606200007c604086016200012e565b94016200012e565b168015620000fa57600080546001600160a01b03198116831782556040519616907f8be0079c531659141344cd1fd0a4f28419497f9722a3daafe3b4186f6b6457e09080a360805260a05260c052611f949081620001448239608051816104e3015260a0518161074e015260c05181610c670152f35b604051631e4fbdf760e01b815260006004820152602490fd5b600080fd5b634e487b7160e01b600052604160045260246000fd5b51906001600160a01b0382168203620001135756fe6080604052600436101561001b575b361561001957600080fd5b005b6000803560e01c80631d9671c314610e97578063462ebde214610429578063715018a61461038c57806378e3214f146102685780638da5cb5b14610217578063d7ff8a80146101605763f2fde38b14610074575061000e565b3461015d5760207ffffffffffffffffffffffffffffffffffffffffffffffffffffffffffffffffc36011261015d5760043573ffffffffffffffffffffffffffffffffffffffff808216809203610158576100cd611122565b811561012757600054827fffffffffffffffffffffffff0000000000000000000000000000000000000000821617600055167f8be0079c531659141344cd1fd0a4f28419497f9722a3daafe3b4186f6b6457e0600080a380f35b602483604051907f1e4fbdf70000000000000000000000000000000000000000000000000000000082526004820152fd5b600080fd5b80fd5b503461015d576101a36101c061018c61019561017b36610f31565b849c98999295979a9194939461120a565b909c919c611a10565b99945097929b915099611c7e565b91620186a0910181016101b681846114d0565b9209151590610fdb565b9162989680918201908183116101ea5760206101e28585856101b68184611559565b604051908152f35b807f4e487b7100000000000000000000000000000000000000000000000000000000602492526011600452fd5b503461015d57807ffffffffffffffffffffffffffffffffffffffffffffffffffffffffffffffffc36011261015d5773ffffffffffffffffffffffffffffffffffffffff6020915416604051908152f35b503461015d5760407ffffffffffffffffffffffffffffffffffffffffffffffffffffffffffffffffc36011261015d5760043573ffffffffffffffffffffffffffffffffffffffff81169081810361038857602435916102c6611122565b826102cf578380f35b801590811561036a575b5015610359575080471061032f578180808093335af16102f7611173565b5015610305575b3880808380f35b60046040517fb12d13eb000000000000000000000000000000000000000000000000000000008152fd5b60046040517ff4d678b8000000000000000000000000000000000000000000000000000000008152fd5b90610365913390611683565b6102fe565b73eeeeeeeeeeeeeeeeeeeeeeeeeeeeeeeeeeeeeeee915014386102d9565b8280fd5b503461015d57807ffffffffffffffffffffffffffffffffffffffffffffffffffffffffffffffffc36011261015d576103c3611122565b600073ffffffffffffffffffffffffffffffffffffffff81547fffffffffffffffffffffffff000000000000000000000000000000000000000081168355167f8be0079c531659141344cd1fd0a4f28419497f9722a3daafe3b4186f6b6457e08280a380f35b503461015d577ffffffffffffffffffffffffffffffffffffffffffffffffffffffffffffffffc36016101e08112610e93576101001361015d576101043567ffffffffffffffff8111610e9357610484903690600401610f03565b9073ffffffffffffffffffffffffffffffffffffffff610144351661014435036103885767ffffffffffffffff6101c43511610388576104ca366101c435600401610f03565b919073ffffffffffffffffffffffffffffffffffffffff7f0000000000000000000000000000000000000000000000000000000000000000163303610e69578215610e3c57826015116109be57826029116109be5760298101917fffffffffffffffffffffffffffffffffffffffffffffffffffffffffffffffd784019173ffffffffffffffffffffffffffffffffffffffff60243516947f01000000000000000000000000000000000000000000000000000000000000008083351614610da5575b506105988385611780565b60f01c948360021015610d78576064600286013560f81c11610d4e5783600311610aad576105eb7ffffffffffffffffffffffffffffffffffffffffffffffffffffffffffffffffd850160038701611780565b60f01c938060051015610d21576064600587013560f81c11610cf75780600611610cf357610643907ffffffffffffffffffffffffffffffffffffffffffffffffffffffffffffffffa61014435910160068801611d28565b959180979197610cdf575b1580610c04575b610bda57620186a08881018111610bad5782916106a861069c60026106906106856106b2988f6106ad9801610fdb565b809e610184356115e2565b93013560f81c83611438565b9a8b94610184356115e2565b610fdb565b611676565b85359660208610610b7c575b60c4358810610b525789976106ec6106dd846106ad8561018435611676565b9160a435906101643590611760565b90818111610ab1575b505085602111610aad5760443573ffffffffffffffffffffffffffffffffffffffff163003610a715773ffffffffffffffffffffffffffffffffffffffff6084351673ffffffffffffffffffffffffffffffffffffffff7f000000000000000000000000000000000000000000000000000000000000000016811480610a45575b156109ef575061079b93816109d9575b82806109c2575b50506101843503039061171d565b60137fffffffffffffffffffffffffffffffffffffffffffffffffffffffffffffffdf8301116107c9578380f35b6107f87fffffffffffffffffffffffffffffffffffffffffffffffffffffffffffffffdf83016021850161102f565b60601c917fffffffffffffffffffffffffffffffffffffffffffffffffffffffffffffffdf81016014116109be57823b156109be577fffffffffffffffffffffffffffffffffffffffffffffffffffffffffffffffcb9561095786926108db9660356040519a8b998a9889977f462ebde200000000000000000000000000000000000000000000000000000000895260043560048a015260243560248a015260443560448a015260643560648a015260843560848a015260a43560a48a015260c43560c48a015260e43560e48a01526101e06101048a01526101e48901916110e3565b936101243561012488015273ffffffffffffffffffffffffffffffffffffffff610144351661014488015261016435610164880152610184356101848801526101a4356101a48801527ffffffffffffffffffffffffffffffffffffffffffffffffffffffffffffffffc878603016101c48801520191016110e3565b03925af180156109b35761096e575b818180808380f35b67ffffffffffffffff81116109865760405238610966565b6024827f4e487b710000000000000000000000000000000000000000000000000000000081526041600452fd5b6040513d84823e3d90fd5b8480fd5b60156109d292013560601c61171d565b388261078d565b6109ea82600183013560601c61171d565b610786565b929190610a119481610a2e575b8280610a16575b505061018435030391611683565b61079b565b6015610a2792013560601c86611683565b3882610a03565b610a4082600183013560601c87611683565b6109fc565b507e8000000000000000000000000000000000000000000000000000000000000060e435161515610776565b92509295505001610a8357849261079b565b60046040517f679a57eb000000000000000000000000000000000000000000000000000000008152fd5b8780fd5b91929098508660201015610b25576064602089013560f81c11610afb57610aed610af392610ae88d9b60208c013560f81c92611676565b611438565b90610fdb565b9038806106f5565b60046040517f200c0aaf000000000000000000000000000000000000000000000000000000008152fd5b60248b7f4e487b710000000000000000000000000000000000000000000000000000000081526032600452fd5b60046040517f71cb4582000000000000000000000000000000000000000000000000000000008152fd5b967fffffffffffffffffffffffffffffffffffffffffffffffffffffffffffffffff8660200360031b1b16966106be565b60248b7f4e487b710000000000000000000000000000000000000000000000000000000081526011600452fd5b60046040517f0155201f000000000000000000000000000000000000000000000000000000008152fd5b506040517f70a0823100000000000000000000000000000000000000000000000000000000815273ffffffffffffffffffffffffffffffffffffffff6101443516600482015260208160248173ffffffffffffffffffffffffffffffffffffffff7f0000000000000000000000000000000000000000000000000000000000000000165afa908115610cd4578b91610c9e575b5015610655565b90506020813d602011610ccc575b81610cb960209383611073565b81010312610cc8575138610c97565b8a80fd5b3d9150610cac565b6040513d8d823e3d90fd5b91606490600583013560f81c02049161064e565b8880fd5b60046040517f3066a1f1000000000000000000000000000000000000000000000000000000008152fd5b6024897f4e487b710000000000000000000000000000000000000000000000000000000081526032600452fd5b60046040517fc5374e2d000000000000000000000000000000000000000000000000000000008152fd5b6024887f4e487b710000000000000000000000000000000000000000000000000000000081526032600452fd5b610ddc9295508094507fffffffffffffffffffffffffffffffffffffffffffffffffffffffffffffffd7919350016029830161102f565b60601c927fffffffffffffffffffffffffffffffffffffffffffffffffffffffffffffffd78301601411610e38577fffffffffffffffffffffffffffffffffffffffffffffffffffffffffffffffc3603d83019301913861058d565b8580fd5b6024857f4e487b710000000000000000000000000000000000000000000000000000000081526032600452fd5b60046040517fd25aa106000000000000000000000000000000000000000000000000000000008152fd5b5080fd5b503461015d57610edf90610ee8610ec8620186a0610ed1610eb736610f31565b849e98999295979b9194939461120a565b909e919e611a10565b99945097929c915099611b83565b920101906112dd565b90629896809283018093116101ea5760206101e2848461139f565b9181601f840112156101585782359167ffffffffffffffff8311610158576020838186019501011161015857565b907ffffffffffffffffffffffffffffffffffffffffffffffffffffffffffffffffc82016101c0811261015857610100136101585760049167ffffffffffffffff90610104358281116101585781610f8b91600401610f03565b9390939261012435926101443573ffffffffffffffffffffffffffffffffffffffff811681036101585792610164359261018435926101a43591821161015857610fd791600401610f03565b9091565b91908201809211610fe857565b7f4e487b7100000000000000000000000000000000000000000000000000000000600052601160045260246000fd5b90939293848311610158578411610158578101920390565b7fffffffffffffffffffffffffffffffffffffffff000000000000000000000000903581811693926014811061106457505050565b60140360031b82901b16169150565b90601f7fffffffffffffffffffffffffffffffffffffffffffffffffffffffffffffffe0910116810190811067ffffffffffffffff8211176110b457604052565b7f4e487b7100000000000000000000000000000000000000000000000000000000600052604160045260246000fd5b601f82602094937fffffffffffffffffffffffffffffffffffffffffffffffffffffffffffffffe0938186528686013760008582860101520116010190565b73ffffffffffffffffffffffffffffffffffffffff60005416330361114357565b60246040517f118cdaa7000000000000000000000000000000000000000000000000000000008152336004820152fd5b3d156111cc573d9067ffffffffffffffff82116110b457604051916111c060207fffffffffffffffffffffffffffffffffffffffffffffffffffffffffffffffe0601f8401160184611073565b82523d6000602084013e565b606090565b81156111db570490565b7f4e487b7100000000000000000000000000000000000000000000000000000000600052601260045260246000fd5b91908060031161015857823560e81c8160071161015857600384013560e01c90801580156112d5575b156112be5750506000925b81600b1161015857600781013560e01c82600e116101585782601111610158577fffffffffffffffffffffffffffffffffffffffffffffffffffffffffffffffef6112a29301916011810191600b600e83013560e81c92013560e81c8101906117c4565b9093909291818111156112b55703929190565b50506000929190565b620f4240916112ce9148026111d1565b049261123e565b508115611233565b90620186a090818302917fffffffffffffffffffffffffffffffffffffffffffffffffffffffffffffffff8185099383808610950394808603951461138f5784831115611376579082910981600003821680920460028082600302188083028203028083028203028083028203028083028203028083028203028092029003029360018380600003040190848311900302920304170290565b82634e487b71600052156003026011186020526024601cfd5b50509061139c92506111d1565b90565b906298968090818302917fffffffffffffffffffffffffffffffffffffffffffffffffffffffffffffffff8185099383808610950394808603951461138f5784831115611376579082910981600003821680920460028082600302188083028203028083028203028083028203028083028203028083028203028092029003029360018380600003040190848311900302920304170290565b818102907fffffffffffffffffffffffffffffffffffffffffffffffffffffffffffffffff838209908280831092039180830392146114c65781606411156114b3577f5c28f5c28f5c28f5c28f5c28f5c28f5c28f5c28f5c28f5c28f5c28f5c28f5c29936064910990828211900360fe1b910360021c170290565b634e487b7160005260116020526024601cfd5b5050606491500490565b90808202907fffffffffffffffffffffffffffffffffffffffffffffffffffffffffffffffff8184099082808310920391808303921461154d57620186a090828211156114b3577f58cd20afa2f05a708ede54b48d3ae685db76b3bb83cf2cf95d4e8fb00bcbe61d940990828211900360fb1b910360051c170290565b5050620186a091500490565b90808202907fffffffffffffffffffffffffffffffffffffffffffffffffffffffffffffffff818409908280831092039180830392146115d6576298968090828211156114b3577f5fb648fcc913daa857a27e44a97d3c6bc1193a63a91cc45be5032477ae8d46a5940990828211900360f91b910360071c170290565b50506298968091500490565b91818302917fffffffffffffffffffffffffffffffffffffffffffffffffffffffffffffffff8185099383808610950394808603951461138f5784831115611376579082910981600003821680920460028082600302188083028203028083028203028083028203028083028203028083028203028092029003029360018380600003040190848311900302920304170290565b91908203918211610fe857565b916044602092600092604051917fa9059cbb0000000000000000000000000000000000000000000000000000000083526004830152602482015282855af190816116fa575b50156116d057565b60046040517ffb7f5079000000000000000000000000000000000000000000000000000000008152fd5b90503d156117155750600160005114601f3d11165b386116c8565b3b151561170f565b600080809381935af161172e611173565b501561173657565b60046040517f6d963f88000000000000000000000000000000000000000000000000000000008152fd5b9161176c8183856115e2565b9181156111db5761139c9309151590610fdb565b7fffff00000000000000000000000000000000000000000000000000000000000090358181169392600281106117b557505050565b60020360031b82901b16169150565b949290828686156118fe57833560f81c6001948860011161015857600101977fffffffffffffffffffffffffffffffffffffffffffffffffffffffffffffffff01600561181582848302818d611017565b909b909a90421161182d575050505050505050929190565b90919293949580979a9998504210156118f0579291906000915b83831061186b57505050505061186693949550820391429003026111d1565b929190565b909192939460039082821161015857863560e81c918385116101585787013560f01c810197884211156118cd5750909695830194938b0192917ffffffffffffffffffffffffffffffffffffffffffffffffffffffffffffffffb019050611847565b9550969750945050505061186694959650828403934290030291420302016111d1565b506000999850505050505050565b7f4e487b7100000000000000000000000000000000000000000000000000000000600052603260045260246000fd5b91909260009369ffffffffffffffffffff600093169381156119e357803560f81c90600a82600a026001948160010180600111610cf357818111610cf357600185019461197d9291908290611017565b9890989780945b868610611995575050505050505050565b838511610e9357803560b01c83146119d7577ffffffffffffffffffffffffffffffffffffffffffffffffffffffffffffffff685899201940195019492611984565b50959950505050505050565b6024847f4e487b710000000000000000000000000000000000000000000000000000000081526032600452fd5b91611a1b8284611780565b60f01c9282600210156118fe57600281013560f81c9260648411610d4e578060031161015857611a707ffffffffffffffffffffffffffffffffffffffffffffffffffffffffffffffffd820160038401611780565b60f01c9281600510156118fe57600583013560f81c9260648411610cf757826006116101585760067ffffffffffffffffffffffffffffffffffffffffffffffffffffffffffffffffa611ac59401910161192d565b9196909287611ad15750565b60649194020492565b949073ffffffffffffffffffffffffffffffffffffffff9261139c9a9895999794611b5b9260e06101c09180358b52602081013560208c0152604081013560408c0152606081013560608c0152608081013560808c015260a081013560a08c015260c081013560c08c0152013560e08a0152806101008a01528801916110e3565b97610120860152166101408401526101608301526101808201526101a08185039101526110e3565b9097949693959492939060148410611c6257611b9f848361102f565b60601c9584601411610158576020986014987fffffffffffffffffffffffffffffffffffffffffffffffffffffffffffffffec97611c11966040519d8e9c8d9b8c9b7f1d9671c3000000000000000000000000000000000000000000000000000000008d520198019660048b01611ada565b03915afa908115611c5657600091611c27575090565b90506020813d602011611c4e575b81611c4260209383611073565b81010312610158575190565b3d9150611c35565b6040513d6000823e3d90fd5b969550505050505061139c925060a060c08301359201356115e2565b9097949693959492939060148410611d0c57611c9a848361102f565b60601c9584601411610158576020986014987fffffffffffffffffffffffffffffffffffffffffffffffffffffffffffffffec97611c11966040519d8e9c8d9b8c9b7fd7ff8a80000000000000000000000000000000000000000000000000000000008d520198019660048b01611ada565b969550505050505061139c925060c060a0830135920135611760565b9260009369ffffffffffffffffffff60009416928135917fffffffff0000000000000000000000000000000000000000000000000000000080841690600494858510611f4a575b505060e01c9180841015611f1e578382013560f81c90600c9082600c02908160050180600511610cc857818111610cc85790611db791816005889d9c9796959801979c611017565b9990999880945b848610611dfd57505050505050504210611dd55750565b6040517f9da6e025000000000000000000000000000000000000000000000000000000008152fd5b90919293949596829c9b9a99989c5087357fffffffffffffffffffff0000000000000000000000000000000000000000000080821690600a92838810611f0a575b5050824210600014611e73578e6040517f9da6e025000000000000000000000000000000000000000000000000000000008152fd5b60b09e9a9b9c9d9e1c8314611efa57848111611ef657611eb8907ffffffffffffffffffffffffffffffffffffffffffffffffffffffffffffffff68601908a01611780565b60f01c0196838511610388578401956001019493927ffffffffffffffffffffffffffffffffffffffffffffffffffffffffffffffff4019190611dbe565b8380fd5b5060019c50505050505050505050565b9080925087840360031b1b16163880611e3e565b6024876032867f4e487b7100000000000000000000000000000000000000000000000000000000835252fd5b9080925084860360031b1b16163880611d6f56fea264697066735822122080be78e11e52f416e5f57e189bae0929c142696bd0afdc4f7ad3c9bdc168396264736f6c63430008170033"
}