{"abi":[{"type":"constructor","inputs":[{"name":"name","type":"string","internalType":"string"},{"name":"symbol","type":"string","internalType":"string"},{"name":"amount","type":"uint256","internalType":"uint256"},{"name":"decimals_","type":"uint8","internalType":"uint8"}],"stateMutability":"nonpayable"},{"type":"function","name":"DOMAIN_SEPARATOR","inputs":[],"outputs":[{"name":"","type":"bytes32","internalType":"bytes32"}],"stateMutability":"view"},{"type":"function","name":"allowance","inputs":[{"name":"owner","type":"address","internalType":"address"},{"name":"spender","type":"address","internalType":"address"}],"outputs":[{"name":"","type":"uint256","internalType":"uint256"}],"stateMutability":"view"},{"type":"function","name":"approve","inputs":[{"name":"spender","type":"address","internalType":"address"},{"name":"value","type":"uint256","internalType":"uint256"}],"outputs":[{"name":"","type":"bool","internalType":"bool"}],"stateMutability":"nonpayable"},{"type":"function","name":"balanceOf","inputs":[{"name":"account","type":"address","internalType":"address"}],"outputs":[{"name":"","type":"uint256","internalType":"uint256"}],"stateMutability":"view"},{"type":"function","name":"burn","inputs":[{"name":"account","type":"address","internalType":"address"},{"name":"amount","type":"uint256","internalType":"uint256"}],"outputs":[],"stateMutability":"nonpayable"},{"type":"function","name":"decimals","inputs":[],"outputs":[{"name":"","type":"uint8","internalType":"uint8"}],"stateMutability":"view"},{"type":"function","name":"eip712Domain","inputs":[],"outputs":[{"name":"fields","type":"bytes1","internalType":"bytes1"},{"name":"name","type":"string","internalType":"string"},{"name":"version","type":"string","internalType":"string"},{"name":"chainId","type":"uint256","internalType":"uint256"},{"name":"verifyingContract","type":"address","internalType":"address"},{"name":"salt","type":"bytes32","internalType":"bytes32"},{"name":"extensions","type":"uint256[]","internalType":"uint256[]"}],"stateMutability":"view"},{"type":"function","name":"mint","inputs":[{"name":"account","type":"address","internalType":"address"},{"name":"amount","type":"uint256","internalType":"uint256"}],"outputs":[],"stateMutability":"nonpayable"},{"type":"function","name":"name","inputs":[],"outputs":[{"name":"","type":"string","internalType":"string"}],"stateMutability":"view"},{"type":"function","name":"nonces","inputs":[{"name":"owner","type":"address","internalType":"address"}],"outputs":[{"name":"","type":"uint256","internalType":"uint256"}],"stateMutability":"view"},{"type":"function","name":"owner","inputs":[],"outputs":[{"name":"","type":"address","internalType":"address"}],"stateMutability":"view"},{"type":"function","name":"permit","inputs":[{"name":"owner","type":"address","internalType":"address"},{"name":"spender","type":"address","internalType":"address"},{"name":"value","type":"uint256","internalType":"uint256"},{"name":"deadline","type":"uint256","internalType":"uint256"},{"name":"v","type":"uint8","internalType":"uint8"},{"name":"r","type":"bytes32","internalType":"bytes32"},{"name":"s","type":"bytes32","internalType":"bytes32"}],"outputs":[],"stateMutability":"nonpayable"},{"type":"function","name":"renounceOwnership","inputs":[],"outputs":[],"stateMutability":"nonpayable"},{"type":"function","name":"symbol","inputs":[],"outputs":[{"name":"","type":"string","internalType":"string"}],"stateMutability":"view"},{"type":"function","name":"totalSupply","inputs":[],"outputs":[{"name":"","type":"uint256","internalType":"uint256"}],"stateMutability":"view"},{"type":"function","name":"transfer","inputs":[{"name":"to","type":"address","internalType":"address"},{"name":"value","type":"uint256","internalType":"uint256"}],"outputs":[{"name":"","type":"bool","internalType":"bool"}],"stateMutability":"nonpayable"},{"type":"function","name":"transferFrom","inputs":[{"name":"from","type":"address","internalType":"address"},{"name":"to","type":"address","internalType":"address"},{"name":"value","type":"uint256","internalType":"uint256"}],"outputs":[{"name":"","type":"bool","internalType":"bool"}],"stateMutability":"nonpayable"},{"type":"function","name":"transferOwnership","inputs":[{"name":"newOwner","type":"address","internalType":"address"}],"outputs":[],"stateMutability":"nonpayable"},{"type":"event","name":"Approval","inputs":[{"name":"owner","type":"address","indexed":true,"internalType":"address"},{"name":"spender","type":"address","indexed":true,"internalType":"address"},{"name":"value","type":"uint256","indexed":false,"internalType":"uint256"}],"anonymous":false},{"type":"event","name":"EIP712DomainChanged","inputs":[],"anonymous":false},{"type":"event","name":"OwnershipTransferred","inputs":[{"name":"previousOwner","type":"address","indexed":true,"internalType":"address"},{"name":"newOwner","type":"address","indexed":true,"internalType":"address"}],"anonymous":false},{"type":"event","name":"Transfer","inputs":[{"name":"from","type":"address","indexed":true,"internalType":"address"},{"name":"to","type":"address","indexed":true,"internalType":"address"},{"name":"value","type":"uint256","indexed":false,"internalType":"uint256"}],"anonymous":false},{"type":"error","name":"ECDSAInvalidSignature","inputs":[]},{"type":"error","name":"ECDSAInvalidSignatureLength","inputs":[{"name":"length","type":"uint256","internalType":"uint256"}]},{"type":"error","name":"ECDSAInvalidSignatureS","inputs":[{"name":"s","type":"bytes32","internalType":"bytes32"}]},{"type":"error","name":"ERC20InsufficientAllowance","inputs":[{"name":"spender","type":"address","internalType":"address"},{"name":"allowance","type":"uint256","internalType":"uint256"},{"name":"needed","type":"uint256","internalType":"uint256"}]},{"type":"error","name":"ERC20InsufficientBalance","inputs":[{"name":"sender","type":"address","internalType":"address"},{"name":"balance","type":"uint256","internalType":"uint256"},{"name":"needed","type":"uint256","internalType":"uint256"}]},{"type":"error","name":"ERC20InvalidApprover","inputs":[{"name":"approver","type":"address","internalType":"address"}]},{"type":"error","name":"ERC20InvalidReceiver","inputs":[{"name":"receiver","type":"address","internalType":"address"}]},{"type":"error","name":"ERC20InvalidSender","inputs":[{"name":"sender","type":"address","internalType":"address"}]},{"type":"error","name":"ERC20InvalidSpender","inputs":[{"name":"spender","type":"address","internalType":"address"}]},{"type":"error","name":"ERC2612ExpiredSignature","inputs":[{"name":"deadline","type":"uint256","internalType":"uint256"}]},{"type":"error","name":"ERC2612InvalidSigner","inputs":[{"name":"signer","type":"address","internalType":"address"},{"name":"owner","type":"address","internalType":"address"}]},{"type":"error","name":"InvalidAccountNonce","inputs":[{"name":"account","type":"address","internalType":"address"},{"name":"currentNonce","type":"uint256","internalType":"uint256"}]},{"type":"error","name":"InvalidShortString","inputs":[]},{"type":"error","name":"OwnableInvalidOwner","inputs":[{"name":"owner","type":"address","internalType":"address"}]},{"type":"error","name":"OwnableUnauthorizedAccount","inputs":[{"name":"account","type":"address","internalType":"address"}]},{"type":"error","name":"StringTooLong","inputs":[{"name":"str","type":"string","internalType":"string"}]}],"bytecode":{"object":"0x610180604081815234620004ec5762001ffe8038038091620000228286620004f0565b84398201608083820312620004ec5782516001600160401b039290838111620004ec57826200005391860162000537565b906020928386015190858211620004ec576200007191870162000537565b946060828201519101519360ff85168503620004ec57825196838801888110888211176200040057845260019687895282890197603160f81b89528651828111620004005760038054918383811c93168015620004e1575b87841014620004cd57601f9283811162000485575b50808784821160011462000420575f9162000414575b505f1982841b1c191690841b1781555b845191848311620004005760049586548581811c91168015620003f5575b89821014620003e2578281116200039a575b508791841160011462000333579383949184925f9562000327575b50501b925f19911b1c19161782555b620001698662000592565b976101209889526200017b8a6200072d565b96610140978852848151910120998a60e05251902061010099818b524660a052865191858301917f8b73c3c69bb8fe3d512ecc4cf759cc79239f7b179b0ffacaa9a75d522b39400f83528884015260608301524660808301523060a083015260a0825260c0820192828410908411176200031457828752815190206080523060c0523315620002fe57505060088054336001600160a01b0319821681179092556001600160a01b03167f8be0079c531659141344cd1fd0a4f28419497f9722a3daafe3b4186f6b6457e05f80a360025490838201809211620002eb57505f917fddf252ad1be2c89b69c2b068fc378daa952ba7f163c4a11628f55a4df523b3ef9160025533835282815284832084815401905584519384523393a3610160928352519261178294856200087c8639608051856111cb015260a05185611297015260c0518561119c015260e0518561121a01525184611240015251836107740152518261079e01525181610b920152f35b601190634e487b7160e01b5f525260245ffd5b631e4fbdf760e01b82525f60c490910152602490fd5b604184634e487b7160e01b5f525260245ffd5b015193505f806200014f565b9190601f19841692875f5284895f20945f5b8b8983831062000382575050501062000368575b50505050811b0182556200015e565b01519060f8845f19921b161c191690555f80808062000359565b86860151895590970196948501948893500162000345565b875f52885f208380870160051c8201928b8810620003d8575b0160051c019086905b828110620003cc57505062000134565b5f8155018690620003bc565b92508192620003b3565b602288634e487b7160e01b5f525260245ffd5b90607f169062000122565b634e487b7160e01b5f52604160045260245ffd5b90508a01515f620000f4565b5f8481528981208794509190601f198416908b8f5b8383106200046d57505050831162000455575b5050811b01815562000104565b8c01515f1983861b60f8161c191690555f8062000448565b840151855589969094019392830192018b8f62000435565b825f52875f208480840160051c8201928a8510620004c3575b0160051c019085905b828110620004b7575050620000de565b5f8155018590620004a7565b925081926200049e565b634e487b7160e01b5f52602260045260245ffd5b92607f1692620000c9565b5f80fd5b601f909101601f19168101906001600160401b038211908210176200040057604052565b5f5b838110620005265750505f910152565b818101518382015260200162000516565b81601f82011215620004ec5780516001600160401b0381116200040057604051926200056e601f8301601f191660200185620004f0565b81845260208284010111620004ec576200058f916020808501910162000514565b90565b8051602091908281101562000611575090601f825111620005cf5780825192015190808310620005c157501790565b825f19910360031b1b161790565b604490620006039260405193849263305a27a960e01b84528060048501528251928391826024870152868601910162000514565b601f01601f19168101030190fd5b6001600160401b03811162000400576005928354926001938481811c9116801562000722575b83821014620004cd57601f8111620006ee575b5081601f84116001146200068857509282939183925f946200067c575b50501b915f199060031b1c191617905560ff90565b015192505f8062000667565b919083601f198116875f52845f20945f905b88838310620006d35750505010620006ba575b505050811b01905560ff90565b01515f1960f88460031b161c191690555f8080620006ad565b8587015188559096019594850194879350908101906200069a565b855f5284601f845f209201871c820191601f8601881c015b828110620007165750506200064a565b5f815501859062000706565b90607f169062000637565b8051602090818110156200075a5750601f825111620005cf5780825192015190808310620005c157501790565b906001600160401b0382116200040057600654926001938481811c9116801562000870575b83821014620004cd57601f811162000839575b5081601f8411600114620007d157509282939183925f94620007c5575b50501b915f199060031b1c19161760065560ff90565b015192505f80620007af565b919083601f19811660065f52845f20945f905b888383106200081e575050501062000805575b505050811b0160065560ff90565b01515f1960f88460031b161c191690555f8080620007f7565b858701518855909601959485019487935090810190620007e4565b60065f5284601f845f20920160051c820191601f860160051c015b8281106200086457505062000792565b5f815501859062000854565b90607f16906200077f56fe608060409080825260049081361015610016575f80fd5b5f3560e01c90816306fdde0314610dc057508063095ea7b314610d7957806318160ddd14610d3d57806323b872dd14610bb6578063313ce56714610b5b5780633644e51514610b1a57806340c10f1914610a0f57806370a08231146109ae578063715018a6146109125780637ecebe00146108b057806384b0196e146107405780638da5cb5b146106ee57806395d89b41146105c75780639dc29fac14610480578063a9059cbb14610432578063d505accf14610241578063dd62ed3e146101cc5763f2fde38b146100e6575f80fd5b346101c85760207ffffffffffffffffffffffffffffffffffffffffffffffffffffffffffffffffc3601126101c85761011d610f27565b906101266112bd565b73ffffffffffffffffffffffffffffffffffffffff809216928315610199575050600854827fffffffffffffffffffffffff0000000000000000000000000000000000000000821617600855167f8be0079c531659141344cd1fd0a4f28419497f9722a3daafe3b4186f6b6457e05f80a3005b905f60249251917f1e4fbdf7000000000000000000000000000000000000000000000000000000008352820152fd5b5f80fd5b82346101c857807ffffffffffffffffffffffffffffffffffffffffffffffffffffffffffffffffc3601126101c857602090610206610f27565b61020e610f4a565b9073ffffffffffffffffffffffffffffffffffffffff8091165f5260018452825f2091165f528252805f20549051908152f35b50346101c85760e07ffffffffffffffffffffffffffffffffffffffffffffffffffffffffffffffffc3601126101c857610279610f27565b610281610f4a565b906044359260643560843560ff811681036101c8578142116104035773ffffffffffffffffffffffffffffffffffffffff9081851692835f526007602052885f209081549160018301905589519060208201927f6e71edae12b1b97f4d1f60370fef10105fa2faae0126114a169c64845d6126c98452868c840152858a1660608401528a608084015260a083015260c082015260c0815260e0810181811067ffffffffffffffff8211176103d7578a5251902061038e9161038591610344611185565b908b51917f190100000000000000000000000000000000000000000000000000000000000083526002830152602282015260c43591604260a43592206115cd565b90929192611667565b168181036103a3576103a186868661130e565b005b604493508651927f4b800e460000000000000000000000000000000000000000000000000000000084528301526024820152fd5b6041877f4e487b71000000000000000000000000000000000000000000000000000000005f525260245ffd5b602483838951917f62791302000000000000000000000000000000000000000000000000000000008352820152fd5b82346101c857807ffffffffffffffffffffffffffffffffffffffffffffffffffffffffffffffffc3601126101c85760209061047961046f610f27565b6024359033611048565b5160018152f35b5090346101c857807ffffffffffffffffffffffffffffffffffffffffffffffffffffffffffffffffc3601126101c8576104b8610f27565b90602435926104c56112bd565b73ffffffffffffffffffffffffffffffffffffffff831692831561059857835f525f602052825f205491858310610539575f857fddf252ad1be2c89b69c2b068fc378daa952ba7f163c4a11628f55a4df523b3ef6020898881898688528785520381872055816002540360025551908152a3005b610594868486519485947fe450d38c000000000000000000000000000000000000000000000000000000008652850160409194939273ffffffffffffffffffffffffffffffffffffffff606083019616825260208201520152565b0390fd5b505f60249251917f96c6fd1e000000000000000000000000000000000000000000000000000000008352820152fd5b50346101c8575f7ffffffffffffffffffffffffffffffffffffffffffffffffffffffffffffffffc3601126101c857815191825f835461060681610f6d565b90818452602095600191876001821691825f146106a957505060011461064d575b505050610649929161063a910385611007565b51928284938452830190610ecb565b0390f35b5f90815286935091907f8a35acfbc15ff81a39ae7d344fd709f28e8600b4aa8c65c6b64bfe7fe36bd19b5b828410610691575050508201018161063a610649610627565b8054848a018601528895508794909301928101610678565b7fffffffffffffffffffffffffffffffffffffffffffffffffffffffffffffff00168782015293151560051b8601909301935084925061063a91506106499050610627565b82346101c8575f7ffffffffffffffffffffffffffffffffffffffffffffffffffffffffffffffffc3601126101c85760209073ffffffffffffffffffffffffffffffffffffffff600854169051908152f35b50346101c8575f7ffffffffffffffffffffffffffffffffffffffffffffffffffffffffffffffffc3601126101c8576107987f00000000000000000000000000000000000000000000000000000000000000006113d8565b916107c27f0000000000000000000000000000000000000000000000000000000000000000611510565b815191602091602084019484861067ffffffffffffffff8711176108845750610839826020928761082c99989795525f855281519889987f0f000000000000000000000000000000000000000000000000000000000000008a5260e0868b015260e08a0190610ecb565b9188830390890152610ecb565b914660608701523060808701525f60a087015285830360c087015251918281520192915f5b82811061086d57505050500390f35b83518552869550938101939281019260010161085e565b6041907f4e487b71000000000000000000000000000000000000000000000000000000005f525260245ffd5b82346101c85760207ffffffffffffffffffffffffffffffffffffffffffffffffffffffffffffffffc3601126101c85760209073ffffffffffffffffffffffffffffffffffffffff610900610f27565b165f5260078252805f20549051908152f35b346101c8575f7ffffffffffffffffffffffffffffffffffffffffffffffffffffffffffffffffc3601126101c8576109486112bd565b5f73ffffffffffffffffffffffffffffffffffffffff6008547fffffffffffffffffffffffff00000000000000000000000000000000000000008116600855167f8be0079c531659141344cd1fd0a4f28419497f9722a3daafe3b4186f6b6457e08280a3005b82346101c85760207ffffffffffffffffffffffffffffffffffffffffffffffffffffffffffffffffc3601126101c85760209073ffffffffffffffffffffffffffffffffffffffff6109fe610f27565b165f525f8252805f20549051908152f35b5090346101c857807ffffffffffffffffffffffffffffffffffffffffffffffffffffffffffffffffc3601126101c857610a47610f27565b9073ffffffffffffffffffffffffffffffffffffffff60243592610a696112bd565b16928315610aec5760025490838201809211610ac057505f927fddf252ad1be2c89b69c2b068fc378daa952ba7f163c4a11628f55a4df523b3ef9260209260025585855284835280852082815401905551908152a3005b6011907f4e487b71000000000000000000000000000000000000000000000000000000005f525260245ffd5b5f60249251917fec442f05000000000000000000000000000000000000000000000000000000008352820152fd5b82346101c8575f7ffffffffffffffffffffffffffffffffffffffffffffffffffffffffffffffffc3601126101c857602090610b54611185565b9051908152f35b82346101c8575f7ffffffffffffffffffffffffffffffffffffffffffffffffffffffffffffffffc3601126101c8576020905160ff7f0000000000000000000000000000000000000000000000000000000000000000168152f35b50346101c85760607ffffffffffffffffffffffffffffffffffffffffffffffffffffffffffffffffc3601126101c857610bee610f27565b610bf6610f4a565b906044359273ffffffffffffffffffffffffffffffffffffffff8216805f526001602052855f20335f52602052855f2054917fffffffffffffffffffffffffffffffffffffffffffffffffffffffffffffffff8310610c5e575b602087610479888888611048565b858310610cf8578115610cc9573315610c9a57505f90815260016020908152868220338352815290869020918590039091558290610479610c50565b6024905f8851917f94280d62000000000000000000000000000000000000000000000000000000008352820152fd5b6024905f8851917fe602df05000000000000000000000000000000000000000000000000000000008352820152fd5b86517ffb8f41b2000000000000000000000000000000000000000000000000000000008152339181019182526020820193909352604081018690528291506060010390fd5b82346101c8575f7ffffffffffffffffffffffffffffffffffffffffffffffffffffffffffffffffc3601126101c8576020906002549051908152f35b82346101c857807ffffffffffffffffffffffffffffffffffffffffffffffffffffffffffffffffc3601126101c857602090610479610db6610f27565b602435903361130e565b83346101c8575f7ffffffffffffffffffffffffffffffffffffffffffffffffffffffffffffffffc3601126101c85760035490825f610dfe84610f6d565b808352602094600190866001821691825f14610e8b575050600114610e30575b5050610649929161063a910385611007565b9085925060035f527fc2575a0e9e593c00f959f8c92f12db2869c3395a3b0502d05e2516446f71f85b915f925b828410610e73575050508201018161063a610e1e565b8054848a018601528895508794909301928101610e5d565b7fffffffffffffffffffffffffffffffffffffffffffffffffffffffffffffff00168682015292151560051b8501909201925083915061063a9050610e1e565b91908251928382525f5b848110610f135750507fffffffffffffffffffffffffffffffffffffffffffffffffffffffffffffffe0601f845f6020809697860101520116010190565b602081830181015184830182015201610ed5565b6004359073ffffffffffffffffffffffffffffffffffffffff821682036101c857565b6024359073ffffffffffffffffffffffffffffffffffffffff821682036101c857565b90600182811c92168015610fb4575b6020831014610f8757565b7f4e487b71000000000000000000000000000000000000000000000000000000005f52602260045260245ffd5b91607f1691610f7c565b6040810190811067ffffffffffffffff821117610fda57604052565b7f4e487b71000000000000000000000000000000000000000000000000000000005f52604160045260245ffd5b90601f7fffffffffffffffffffffffffffffffffffffffffffffffffffffffffffffffe0910116810190811067ffffffffffffffff821117610fda57604052565b9173ffffffffffffffffffffffffffffffffffffffff808416928315611155571692831561112557825f525f60205260405f2054908282106110cd5750817fddf252ad1be2c89b69c2b068fc378daa952ba7f163c4a11628f55a4df523b3ef92602092855f525f84520360405f2055845f5260405f20818154019055604051908152a3565b6040517fe450d38c00000000000000000000000000000000000000000000000000000000815273ffffffffffffffffffffffffffffffffffffffff919091166004820152602481019190915260448101829052606490fd5b60246040517fec442f050000000000000000000000000000000000000000000000000000000081525f6004820152fd5b60246040517f96c6fd1e0000000000000000000000000000000000000000000000000000000081525f6004820152fd5b73ffffffffffffffffffffffffffffffffffffffff7f000000000000000000000000000000000000000000000000000000000000000016301480611294575b156111ed577f000000000000000000000000000000000000000000000000000000000000000090565b60405160208101907f8b73c3c69bb8fe3d512ecc4cf759cc79239f7b179b0ffacaa9a75d522b39400f82527f000000000000000000000000000000000000000000000000000000000000000060408201527f000000000000000000000000000000000000000000000000000000000000000060608201524660808201523060a082015260a0815260c0810181811067ffffffffffffffff821117610fda5760405251902090565b507f000000000000000000000000000000000000000000000000000000000000000046146111c4565b73ffffffffffffffffffffffffffffffffffffffff6008541633036112de57565b60246040517f118cdaa7000000000000000000000000000000000000000000000000000000008152336004820152fd5b73ffffffffffffffffffffffffffffffffffffffff8091169182156113a857169182156113785760207f8c5be1e5ebec7d5bd14f71427d1e84f3dd0314c0f7b2291e5b200ac8c7c3b92591835f526001825260405f20855f5282528060405f2055604051908152a3565b60246040517f94280d620000000000000000000000000000000000000000000000000000000081525f6004820152fd5b60246040517fe602df050000000000000000000000000000000000000000000000000000000081525f6004820152fd5b60ff811461142e5760ff811690601f821161140457604051916113fa83610fbe565b8252602082015290565b60046040517fb3512b0c000000000000000000000000000000000000000000000000000000008152fd5b50604051600554815f61144083610f6d565b808352926020906001908181169081156114cd575060011461146e575b505061146b92500382611007565b90565b91509260055f527f036b6384b5eca791c62761152d0c79bb0604c104a5fb6f4eb0703f3154bb3db0935f925b8284106114b5575061146b9450505081016020015f8061145d565b8554878501830152948501948694509281019261149a565b90506020935061146b9592507fffffffffffffffffffffffffffffffffffffffffffffffffffffffffffffff0091501682840152151560051b8201015f8061145d565b60ff81146115325760ff811690601f821161140457604051916113fa83610fbe565b50604051600654815f61154483610f6d565b808352926020906001908181169081156114cd575060011461156e57505061146b92500382611007565b91509260065f527ff652222313e28459528d920b65115c16c04f3efc82aaedc97be59f3f377c0d3f935f925b8284106115b5575061146b9450505081016020015f8061145d565b8554878501830152948501948694509281019261159a565b91907f7fffffffffffffffffffffffffffffff5d576e7357a4501ddfe92f46681b20a0841161165c579160209360809260ff5f9560405194855216868401526040830152606082015282805260015afa15611651575f5173ffffffffffffffffffffffffffffffffffffffff81161561164757905f905f90565b505f906001905f90565b6040513d5f823e3d90fd5b5050505f9160039190565b600481101561171f5780611679575050565b600181036116ab5760046040517ff645eedf000000000000000000000000000000000000000000000000000000008152fd5b600281036116e457602482604051907ffce698f70000000000000000000000000000000000000000000000000000000082526004820152fd5b6003146116ee5750565b602490604051907fd78bce0c0000000000000000000000000000000000000000000000000000000082526004820152fd5b7f4e487b71000000000000000000000000000000000000000000000000000000005f52602160045260245ffdfea26469706673582212203cc3aed00fe30deb689bba4af70f85e8a1461e37b12e330c79210c252bc1160864736f6c63430008170033","linkReferences":{}},"methodIdentifiers":{"DOMAIN_SEPARATOR()":"3644e515","allowance(address,address)":"dd62ed3e","approve(address,uint256)":"095ea7b3","balanceOf(address)":"70a08231","burn(address,uint256)":"9dc29fac","decimals()":"313ce567","eip712Domain()":"84b0196e","mint(address,uint256)":"40c10f19","name()":"06fdde03","nonces(address)":"7ecebe00","owner()":"8da5cb5b","permit(address,address,uint256,uint256,uint8,bytes32,bytes32)":"d505accf","renounceOwnership()":"715018a6","symbol()":"95d89b41","totalSupply()":"18160ddd","transfer(address,uint256)":"a9059cbb","transferFrom(address,address,uint256)":"23b872dd","transferOwnership(address)":"f2fde38b"},"id":113}