{"abi":[{"type":"constructor","inputs":[{"name":"rescueDelay","type":"uint32","internalType":"uint32"},{"name":"accessToken","type":"address","internalType":"contract IERC20"}],"stateMutability":"nonpayable"},{"type":"function","name":"FACTORY","inputs":[],"outputs":[{"name":"","type":"address","internalType":"address"}],"stateMutability":"view"},{"type":"function","name":"PROXY_BYTECODE_HASH","inputs":[],"outputs":[{"name":"","type":"bytes32","internalType":"bytes32"}],"stateMutability":"view"},{"type":"function","name":"RESCUE_DELAY","inputs":[],"outputs":[{"name":"","type":"uint256","internalType":"uint256"}],"stateMutability":"view"},{"type":"function","name":"cancel","inputs":[{"name":"immutables","type":"tuple","internalType":"struct IBaseEscrow.Immutables","components":[{"name":"orderHash","type":"bytes32","internalType":"bytes32"},{"name":"hashlock","type":"bytes32","internalType":"bytes32"},{"name":"maker","type":"uint256","internalType":"Address"},{"name":"taker","type":"uint256","internalType":"Address"},{"name":"token","type":"uint256","internalType":"Address"},{"name":"amount","type":"uint256","internalType":"uint256"},{"name":"safetyDeposit","type":"uint256","internalType":"uint256"},{"name":"timelocks","type":"uint256","internalType":"Timelocks"},{"name":"parameters","type":"bytes","internalType":"bytes"}]}],"outputs":[],"stateMutability":"nonpayable"},{"type":"function","name":"publicWithdraw","inputs":[{"name":"secret","type":"bytes32","internalType":"bytes32"},{"name":"immutables","type":"tuple","internalType":"struct IBaseEscrow.Immutables","components":[{"name":"orderHash","type":"bytes32","internalType":"bytes32"},{"name":"hashlock","type":"bytes32","internalType":"bytes32"},{"name":"maker","type":"uint256","internalType":"Address"},{"name":"taker","type":"uint256","internalType":"Address"},{"name":"token","type":"uint256","internalType":"Address"},{"name":"amount","type":"uint256","internalType":"uint256"},{"name":"safetyDeposit","type":"uint256","internalType":"uint256"},{"name":"timelocks","type":"uint256","internalType":"Timelocks"},{"name":"parameters","type":"bytes","internalType":"bytes"}]}],"outputs":[],"stateMutability":"nonpayable"},{"type":"function","name":"rescueFunds","inputs":[{"name":"token","type":"address","internalType":"address"},{"name":"amount","type":"uint256","internalType":"uint256"},{"name":"immutables","type":"tuple","internalType":"struct IBaseEscrow.Immutables","components":[{"name":"orderHash","type":"bytes32","internalType":"bytes32"},{"name":"hashlock","type":"bytes32","internalType":"bytes32"},{"name":"maker","type":"uint256","internalType":"Address"},{"name":"taker","type":"uint256","internalType":"Address"},{"name":"token","type":"uint256","internalType":"Address"},{"name":"amount","type":"uint256","internalType":"uint256"},{"name":"safetyDeposit","type":"uint256","internalType":"uint256"},{"name":"timelocks","type":"uint256","internalType":"Timelocks"},{"name":"parameters","type":"bytes","internalType":"bytes"}]}],"outputs":[],"stateMutability":"nonpayable"},{"type":"function","name":"withdraw","inputs":[{"name":"secret","type":"bytes32","internalType":"bytes32"},{"name":"immutables","type":"tuple","internalType":"struct IBaseEscrow.Immutables","components":[{"name":"orderHash","type":"bytes32","internalType":"bytes32"},{"name":"hashlock","type":"bytes32","internalType":"bytes32"},{"name":"maker","type":"uint256","internalType":"Address"},{"name":"taker","type":"uint256","internalType":"Address"},{"name":"token","type":"uint256","internalType":"Address"},{"name":"amount","type":"uint256","internalType":"uint256"},{"name":"safetyDeposit","type":"uint256","internalType":"uint256"},{"name":"timelocks","type":"uint256","internalType":"Timelocks"},{"name":"parameters","type":"bytes","internalType":"bytes"}]}],"outputs":[],"stateMutability":"nonpayable"},{"type":"event","name":"EscrowCancelled","inputs":[],"anonymous":false},{"type":"event","name":"EscrowWithdrawal","inputs":[{"name":"secret","type":"bytes32","indexed":false,"internalType":"bytes32"}],"anonymous":false},{"type":"event","name":"FundsRescued","inputs":[{"name":"token","type":"address","indexed":false,"internalType":"address"},{"name":"amount","type":"uint256","indexed":false,"internalType":"uint256"}],"anonymous":false},{"type":"error","name":"InvalidCaller","inputs":[]},{"type":"error","name":"InvalidImmutables","inputs":[]},{"type":"error","name":"InvalidSecret","inputs":[]},{"type":"error","name":"InvalidTime","inputs":[]},{"type":"error","name":"NativeTokenSendingFailure","inputs":[]},{"type":"error","name":"SafeTransferFailed","inputs":[]}],"bytecode":{"object":"0x6101203461014f576001600160401b0390601f6111a638819003918201601f19168301918483118484101761013b57808492604094855283398101031261014f5780519063ffffffff821680920361014f5760200151906001600160a01b038216820361014f573360c05260a0526080526e5af43d82803e903d91602b57fd5bf360205230601152763d602d80600a3d3981f3363d3d373d3d3d363d730000003060881c175f52603760092060e05260405160208101903082526020815260408101928184109084111761013b57826040525190209061010091825261105291826101548339608051826103fc015260a05182818160a301526102ca015260c0518281816102640152818161053a0152818161060c015261084c015260e051826104cd0152518181816102930152818161063b015261087a0152f35b634e487b7160e01b5f52604160045260245ffd5b5f80fdfe6080604090808252600480361015610015575f80fd5b60e05f35811c9283632537a3471461055e575082632dd31000146104f057826334862b6a146104985782633e99ca75146103a25782635e504d03146101a657826378a5e1a1146100ca57505063f56cd69c1461006f575f80fd5b346100c6575f7ffffffffffffffffffffffffffffffffffffffffffffffffffffffffffffffffc3601126100c657602090517f00000000000000000000000000000000000000000000000000000000000000008152f35b5f80fd5b8390346100c6576100da3661073a565b92909173ffffffffffffffffffffffffffffffffffffffff606085013516330361017e5763ffffffff8185013580921c9160801c16810180911161015257421061012a5761012883836107fd565b005b8390517f6f7eac26000000000000000000000000000000000000000000000000000000008152fd5b6011857f4e487b71000000000000000000000000000000000000000000000000000000005f525260245ffd5b8482517f48f5c3ed000000000000000000000000000000000000000000000000000000008152fd5b8390346100c6577ffffffffffffffffffffffffffffffffffffffffffffffffffffffffffffffffc906060823601126100c65783359373ffffffffffffffffffffffffffffffffffffffff91828616938487036100c657602435936044359167ffffffffffffffff83116100c6576101209083360301126100c65780606483013516330361037a57610239828501610c6d565b90303f8851927f2020dba91b30cc0006188af794c2fb30dd8520db7e2c088b7fc7c103c00ca49484527f000000000000000000000000000000000000000000000000000000000000000060208501528984015260608301527f0000000000000000000000000000000000000000000000000000000000000000608083015260a030922016036103525760e40135901c7f000000000000000000000000000000000000000000000000000000000000000001421061032b575061031e817fc4474c2790e13695f6d2b6f1d8e164290b55370f87a542fd7711abe0a1bf40ac953390610d21565b82519182526020820152a1005b83517f6f7eac26000000000000000000000000000000000000000000000000000000008152fd5b8286517fa269484a000000000000000000000000000000000000000000000000000000008152fd5b8387517f48f5c3ed000000000000000000000000000000000000000000000000000000008152fd5b8390346100c6576103b23661073a565b92909181517f70a08231000000000000000000000000000000000000000000000000000000008152338682015260208160248173ffffffffffffffffffffffffffffffffffffffff7f0000000000000000000000000000000000000000000000000000000000000000165afa90811561048e575f9161045c575b501561017e5763ffffffff8185013580921c9160a01c16810180911161015257421061012a5761012883836107fd565b90506020813d602011610486575b816104776020938361078f565b810103126100c657518661042c565b3d915061046a565b83513d5f823e3d90fd5b83346100c6575f7ffffffffffffffffffffffffffffffffffffffffffffffffffffffffffffffffc3601126100c657602090517f00000000000000000000000000000000000000000000000000000000000000008152f35b83346100c6575f7ffffffffffffffffffffffffffffffffffffffffffffffffffffffffffffffffc3601126100c6576020905173ffffffffffffffffffffffffffffffffffffffff7f0000000000000000000000000000000000000000000000000000000000000000168152f35b849150346100c6577ffffffffffffffffffffffffffffffffffffffffffffffffffffffffffffffffc926020843601126100c65780359367ffffffffffffffff85116100c6576101209085360301126100c65773ffffffffffffffffffffffffffffffffffffffff92836064860135169283330361071357506105e2858301610c6d565b303f8251917f2020dba91b30cc0006188af794c2fb30dd8520db7e2c088b7fc7c103c00ca49483527f000000000000000000000000000000000000000000000000000000000000000060208401528383015260608201527f000000000000000000000000000000000000000000000000000000000000000060808201528460a030922016036106ed5761067860e4860135610cda565b42106106c7576106a160c48661069960a48201358760848401358a16610d21565b013533610e1b565b7f6e3be9294e58d10b9c8053cfd5e09871b67e442fe394d6b0870d336b9df984a95f80a1005b517f6f7eac26000000000000000000000000000000000000000000000000000000008152fd5b517fa269484a000000000000000000000000000000000000000000000000000000008152fd5b90507f48f5c3ed000000000000000000000000000000000000000000000000000000008152fd5b907ffffffffffffffffffffffffffffffffffffffffffffffffffffffffffffffffc6040818401126100c657600435926024359167ffffffffffffffff83116100c65782610120920301126100c65760040190565b90601f7fffffffffffffffffffffffffffffffffffffffffffffffffffffffffffffffe0910116810190811067ffffffffffffffff8211176107d057604052565b7f4e487b71000000000000000000000000000000000000000000000000000000005f52604160045260245ffd5b61080a60e0830135610cda565b421015610c435761081a82610c6d565b90303f926040908151947f2020dba91b30cc0006188af794c2fb30dd8520db7e2c088b7fc7c103c00ca49486526020947f0000000000000000000000000000000000000000000000000000000000000000868801528387015260608601527f0000000000000000000000000000000000000000000000000000000000000000608086015273ffffffffffffffffffffffffffffffffffffffff948560a03092201603610c1a57825f5283810135845f2003610bf1576109256108dc3683610e81565b8573__$d70ffefbbc28bdd447039bb50caad9b5c3$__918551809481927fcc51c71700000000000000000000000000000000000000000000000000000000835260048301610f4d565b0381845af4908115610be7575f91610bb6575b61097a9250866109483686610e81565b8651809581927f967d204400000000000000000000000000000000000000000000000000000000835260048301610f4d565b0381845af4928315610ad4575f93610b87575b5081610ade575b826109f7575b50916106997fe346f5c97a360db5188bfa5d3ec5f0583abde420c6ba4d08b6cfe61addc17105976109dd60c0946109d86109f09760a087013561100f565b61100f565b9080878501351690608085013516610d21565b51908152a1565b86610a3a91610a063687610e81565b90875180809581947f6e30c3eb00000000000000000000000000000000000000000000000000000000835260048301610f4d565b03915af4908115610ad4575f91610aa1575b50876109dd846109d86109f09795610a9360c0987fe346f5c97a360db5188bfa5d3ec5f0583abde420c6ba4d08b6cfe61addc171059e61069998168760808b013516610d21565b95975050945050975061099a565b90508681819593953d8311610acd575b610abb818361078f565b810103126100c6575190929087610a4c565b503d610ab1565b85513d5f823e3d90fd5b610b1e87610aec3687610e81565b8751809381927f505ba09b00000000000000000000000000000000000000000000000000000000835260048301610f4d565b0381855af48015610b7d578984915f90610b4a575b610b459350168a608088013516610d21565b610994565b5050508781813d8311610b76575b610b62818361078f565b810103126100c6578289610b459251610b33565b503d610b58565b86513d5f823e3d90fd5b9092508681813d8311610baf575b610b9f818361078f565b810103126100c65751915f61098d565b503d610b95565b90508582813d8311610be0575b610bcd818361078f565b810103126100c65761097a915190610938565b503d610bc3565b84513d5f823e3d90fd5b600482517fabab6bd7000000000000000000000000000000000000000000000000000000008152fd5b600482517fa269484a000000000000000000000000000000000000000000000000000000008152fd5b60046040517f6f7eac26000000000000000000000000000000000000000000000000000000008152fd5b610100808201357fffffffffffffffffffffffffffffffffffffffffffffffffffffffffffffffe1833603018112156100c65782019081359167ffffffffffffffff83116100c6576020019180360383136100c65780604051938437822090610120809484378201522090565b63ffffffff8160e01c9160c01c168101809111610cf45790565b7f4e487b71000000000000000000000000000000000000000000000000000000005f52601160045260245ffd5b73ffffffffffffffffffffffffffffffffffffffff16919082610d4a57610d489250610e1b565b565b60445f91602093604051917fa9059cbb0000000000000000000000000000000000000000000000000000000083526004830152602482015282855af19081610dbf575b5015610d9557565b60046040517ffb7f5079000000000000000000000000000000000000000000000000000000008152fd5b90503d15610dd9575060015f5114601f3d11165b5f610d8d565b3b1515610dd3565b67ffffffffffffffff81116107d057601f017fffffffffffffffffffffffffffffffffffffffffffffffffffffffffffffffe01660200190565b5f80809381935af13d15610e7c573d610e3381610de1565b90610e41604051928361078f565b81525f60203d92013e5b15610e5257565b60046040517f8a0332d5000000000000000000000000000000000000000000000000000000008152fd5b610e4b565b91906101209283818303126100c65760405167ffffffffffffffff948101858111828210176107d057604052809482358252602090818401358284015260408401356040840152606084013560608401526080840135608084015260a084013560a084015260c084013560c084015260e084013560e084015261010093848101359182116100c657019084601f830112156100c6578135610f2181610de1565b95610f2f604051978861078f565b8187528282850101116100c65780825f940183880137850101520152565b6020916020825280516020830152602081015160408301526040810151606083015260608101516080830152608081015160a083015260a081015160c083015260c081015160e083015260e081015190610100918284015201519161012080830152825192836101408401525f5b848110610ffa575050507fffffffffffffffffffffffffffffffffffffffffffffffffffffffffffffffe0601f610160935f8582860101520116010190565b81810183015184820161016001528201610fbb565b91908203918211610cf45756fea2646970667358221220f1d42501e8314f174e1362c5da4987cdab53290a83316178da29dfcbb05abf7464736f6c63430008170033","linkReferences":{"contracts/libraries/ImmutablesLib.sol":{"ImmutablesLib":[{"start":2611,"length":20}]}}},"methodIdentifiers":{"FACTORY()":"2dd31000","PROXY_BYTECODE_HASH()":"34862b6a","RESCUE_DELAY()":"f56cd69c","cancel((bytes32,bytes32,uint256,uint256,uint256,uint256,uint256,uint256,bytes))":"2537a347","publicWithdraw(bytes32,(bytes32,bytes32,uint256,uint256,uint256,uint256,uint256,uint256,bytes))":"3e99ca75","rescueFunds(address,uint256,(bytes32,bytes32,uint256,uint256,uint256,uint256,uint256,uint256,bytes))":"5e504d03","withdraw(bytes32,(bytes32,bytes32,uint256,uint256,uint256,uint256,uint256,uint256,bytes))":"78a5e1a1"},"id":21}