{"abi":[{"type":"constructor","inputs":[{"name":"limitOrderProtocol","type":"address","internalType":"address"},{"name":"accessToken","type":"address","internalType":"contract IERC20"},{"name":"weth","type":"address","internalType":"address"},{"name":"owner","type":"address","internalType":"address"}],"stateMutability":"nonpayable"},{"type":"receive","stateMutability":"payable"},{"type":"function","name":"getMakingAmount","inputs":[{"name":"order","type":"tuple","internalType":"struct IOrderMixin.Order","components":[{"name":"salt","type":"uint256","internalType":"uint256"},{"name":"maker","type":"uint256","internalType":"Address"},{"name":"receiver","type":"uint256","internalType":"Address"},{"name":"makerAsset","type":"uint256","internalType":"Address"},{"name":"takerAsset","type":"uint256","internalType":"Address"},{"name":"makingAmount","type":"uint256","internalType":"uint256"},{"name":"takingAmount","type":"uint256","internalType":"uint256"},{"name":"makerTraits","type":"uint256","internalType":"MakerTraits"}]},{"name":"extension","type":"bytes","internalType":"bytes"},{"name":"orderHash","type":"bytes32","internalType":"bytes32"},{"name":"taker","type":"address","internalType":"address"},{"name":"takingAmount","type":"uint256","internalType":"uint256"},{"name":"remainingMakingAmount","type":"uint256","internalType":"uint256"},{"name":"extraData","type":"bytes","internalType":"bytes"}],"outputs":[{"name":"","type":"uint256","internalType":"uint256"}],"stateMutability":"view"},{"type":"function","name":"getTakingAmount","inputs":[{"name":"order","type":"tuple","internalType":"struct IOrderMixin.Order","components":[{"name":"salt","type":"uint256","internalType":"uint256"},{"name":"maker","type":"uint256","internalType":"Address"},{"name":"receiver","type":"uint256","internalType":"Address"},{"name":"makerAsset","type":"uint256","internalType":"Address"},{"name":"takerAsset","type":"uint256","internalType":"Address"},{"name":"makingAmount","type":"uint256","internalType":"uint256"},{"name":"takingAmount","type":"uint256","internalType":"uint256"},{"name":"makerTraits","type":"uint256","internalType":"MakerTraits"}]},{"name":"extension","type":"bytes","internalType":"bytes"},{"name":"orderHash","type":"bytes32","internalType":"bytes32"},{"name":"taker","type":"address","internalType":"address"},{"name":"makingAmount","type":"uint256","internalType":"uint256"},{"name":"remainingMakingAmount","type":"uint256","internalType":"uint256"},{"name":"extraData","type":"bytes","internalType":"bytes"}],"outputs":[{"name":"","type":"uint256","internalType":"uint256"}],"stateMutability":"view"},{"type":"function","name":"owner","inputs":[],"outputs":[{"name":"","type":"address","internalType":"address"}],"stateMutability":"view"},{"type":"function","name":"postInteraction","inputs":[{"name":"order","type":"tuple","internalType":"struct IOrderMixin.Order","components":[{"name":"salt","type":"uint256","internalType":"uint256"},{"name":"maker","type":"uint256","internalType":"Address"},{"name":"receiver","type":"uint256","internalType":"Address"},{"name":"makerAsset","type":"uint256","internalType":"Address"},{"name":"takerAsset","type":"uint256","internalType":"Address"},{"name":"makingAmount","type":"uint256","internalType":"uint256"},{"name":"takingAmount","type":"uint256","internalType":"uint256"},{"name":"makerTraits","type":"uint256","internalType":"MakerTraits"}]},{"name":"extension","type":"bytes","internalType":"bytes"},{"name":"orderHash","type":"bytes32","internalType":"bytes32"},{"name":"taker","type":"address","internalType":"address"},{"name":"makingAmount","type":"uint256","internalType":"uint256"},{"name":"takingAmount","type":"uint256","internalType":"uint256"},{"name":"remainingMakingAmount","type":"uint256","internalType":"uint256"},{"name":"extraData","type":"bytes","internalType":"bytes"}],"outputs":[],"stateMutability":"nonpayable"},{"type":"function","name":"renounceOwnership","inputs":[],"outputs":[],"stateMutability":"nonpayable"},{"type":"function","name":"rescueFunds","inputs":[{"name":"token","type":"address","internalType":"contract IERC20"},{"name":"amount","type":"uint256","internalType":"uint256"}],"outputs":[],"stateMutability":"nonpayable"},{"type":"function","name":"transferOwnership","inputs":[{"name":"newOwner","type":"address","internalType":"address"}],"outputs":[],"stateMutability":"nonpayable"},{"type":"event","name":"OwnershipTransferred","inputs":[{"name":"previousOwner","type":"address","indexed":true,"internalType":"address"},{"name":"newOwner","type":"address","indexed":true,"internalType":"address"}],"anonymous":false},{"type":"error","name":"ETHTransferFailed","inputs":[]},{"type":"error","name":"EthTransferFailed","inputs":[]},{"type":"error","name":"InconsistentFee","inputs":[]},{"type":"error","name":"InsufficientBalance","inputs":[]},{"type":"error","name":"InvalidIntegratorShare","inputs":[]},{"type":"error","name":"InvalidWhitelistDiscountNumerator","inputs":[]},{"type":"error","name":"OnlyLimitOrderProtocol","inputs":[]},{"type":"error","name":"OnlyWhitelistOrAccessToken","inputs":[]},{"type":"error","name":"OwnableInvalidOwner","inputs":[{"name":"owner","type":"address","internalType":"address"}]},{"type":"error","name":"OwnableUnauthorizedAccount","inputs":[{"name":"account","type":"address","internalType":"address"}]},{"type":"error","name":"SafeTransferFailed","inputs":[]}],"bytecode":{"object":"0x60e0346200011157601f620016fc38819003918201601f19168301916001600160401b03831184841017620001155780849260809460405283398101031262000111576200004d8162000129565b60208201516001600160a01b0392909183831683036200011157836200008460606200007c6040860162000129565b940162000129565b168015620000f9575f80546001600160a01b03198116831782556040519616907f8be0079c531659141344cd1fd0a4f28419497f9722a3daafe3b4186f6b6457e09080a360805260a05260c0526115bd90816200013f823960805181610481015260a051816105eb015260c051816109a10152f35b604051631e4fbdf760e01b81525f6004820152602490fd5b5f80fd5b634e487b7160e01b5f52604160045260245ffd5b51906001600160a01b0382168203620001115756fe6080604052600436101561001a575b3615610018575f80fd5b005b5f803560e01c80631d9671c314610af2578063462ebde2146103c8578063715018a61461032c57806378e3214f146102085780638da5cb5b146101b7578063d7ff8a801461015a5763f2fde38b14610072575061000e565b346101575760207ffffffffffffffffffffffffffffffffffffffffffffffffffffffffffffffffc3601126101575760043573ffffffffffffffffffffffffffffffffffffffff808216809203610153576100cb610cd1565b8115610122575f54827fffffffffffffffffffffffff00000000000000000000000000000000000000008216175f55167f8be0079c531659141344cd1fd0a4f28419497f9722a3daafe3b4186f6b6457e05f80a380f35b602483604051907f1e4fbdf70000000000000000000000000000000000000000000000000000000082526004820152fd5b5f80fd5b80fd5b50346101575760206101af61019261018461017436610b64565b849394919a98999295979a610ebd565b99945097929b9150996114c8565b91620186a0910181016101a581846112c6565b92091515906113e1565b604051908152f35b503461015757807ffffffffffffffffffffffffffffffffffffffffffffffffffffffffffffffffc3601126101575773ffffffffffffffffffffffffffffffffffffffff6020915416604051908152f35b50346101575760407ffffffffffffffffffffffffffffffffffffffffffffffffffffffffffffffffc3601126101575760043573ffffffffffffffffffffffffffffffffffffffff8116908181036103285760243591610266610cd1565b8261026f578380f35b801590811561030a575b50156102f957508047106102cf578180808093335af1610297610d21565b50156102a5575b5f80808380f35b60046040517fb12d13eb000000000000000000000000000000000000000000000000000000008152fd5b60046040517ff4d678b8000000000000000000000000000000000000000000000000000000008152fd5b906103059133906113ee565b61029e565b73eeeeeeeeeeeeeeeeeeeeeeeeeeeeeeeeeeeeeeee9150145f610279565b8280fd5b503461015757807ffffffffffffffffffffffffffffffffffffffffffffffffffffffffffffffffc36011261015757610363610cd1565b5f73ffffffffffffffffffffffffffffffffffffffff81547fffffffffffffffffffffffff000000000000000000000000000000000000000081168355167f8be0079c531659141344cd1fd0a4f28419497f9722a3daafe3b4186f6b6457e08280a380f35b5034610153577ffffffffffffffffffffffffffffffffffffffffffffffffffffffffffffffffc36016101e081126101535761010013610153576101043567ffffffffffffffff811161015357610423903690600401610b36565b73ffffffffffffffffffffffffffffffffffffffff610144351661014435036101535767ffffffffffffffff6101c4351161015357610468366101c435600401610b36565b909273ffffffffffffffffffffffffffffffffffffffff7f0000000000000000000000000000000000000000000000000000000000000000163303610ac8578115610a9b5781601511610153578160291161015357602984017fffffffffffffffffffffffffffffffffffffffffffffffffffffffffffffffd7830173ffffffffffffffffffffffffffffffffffffffff60243516937f01000000000000000000000000000000000000000000000000000000000000008088351614610a0a575b5090610539916101443591610ebd565b9894969391929096158061093e575b61091457620186a08281018091116108e7576105929261058361057c6105718761058d956113e1565b80936101843561134e565b9384611230565b946101843561134e565b6113e1565b9283828103116108e75760443573ffffffffffffffffffffffffffffffffffffffff1630036108b15773ffffffffffffffffffffffffffffffffffffffff6084351673ffffffffffffffffffffffffffffffffffffffff7f000000000000000000000000000000000000000000000000000000000000000016811480610885575b15610829575061063c93829182610813575b8282036107f9575b50039061018435030390611486565b60138411610648578480f35b6106528483610c0e565b60601c908460141161015357813b15610153575f80946107907fffffffffffffffffffffffffffffffffffffffffffffffffffffffffffffffec976107149660146040519a8b998a9889977f462ebde200000000000000000000000000000000000000000000000000000000895260043560048a015260243560248a015260443560448a015260643560648a015260843560848a015260a43560a48a015260c43560c48a015260e43560e48a01526101e06101048a01526101e4890191610c93565b936101243561012488015273ffffffffffffffffffffffffffffffffffffffff610144351661014488015261016435610164880152610184356101848801526101a4356101a48801527ffffffffffffffffffffffffffffffffffffffffffffffffffffffffffffffffc878603016101c4880152019101610c93565b03925af180156107ee576107a6575b8080808480f35b905067ffffffffffffffff81116107c1576040525f8061079f565b7f4e487b71000000000000000000000000000000000000000000000000000000005f52604160045260245ffd5b6040513d5f823e3d90fd5b61080d90601584840391013560601c611486565b5f61062d565b61082483600183013560601c611486565b610625565b929161084e9481928261086e575b828203610853575b500390610184350303916113ee565b61063c565b61086890601584840391013560601c876113ee565b5f61083f565b61088083600183013560601c886113ee565b610837565b507e8000000000000000000000000000000000000000000000000000000000000060e435161515610613565b509182915003011561063c5760046040517f679a57eb000000000000000000000000000000000000000000000000000000008152fd5b7f4e487b71000000000000000000000000000000000000000000000000000000005f52601160045260245ffd5b60046040517f0155201f000000000000000000000000000000000000000000000000000000008152fd5b506040517f70a0823100000000000000000000000000000000000000000000000000000000815273ffffffffffffffffffffffffffffffffffffffff6101443516600482015260208160248173ffffffffffffffffffffffffffffffffffffffff7f0000000000000000000000000000000000000000000000000000000000000000165afa9081156107ee575f916109d8575b5015610548565b90506020813d602011610a02575b816109f360209383610c52565b8101031261015357515f6109d1565b3d91506109e6565b9350610a3e9150507fffffffffffffffffffffffffffffffffffffffffffffffffffffffffffffffd7830160298601610c0e565b60601c917fffffffffffffffffffffffffffffffffffffffffffffffffffffffffffffffd7810160141161015357603d8501907fffffffffffffffffffffffffffffffffffffffffffffffffffffffffffffffc301610539610529565b7f4e487b71000000000000000000000000000000000000000000000000000000005f52603260045260245ffd5b60046040517fd25aa106000000000000000000000000000000000000000000000000000000008152fd5b346101535760206101af610b2d620186a0610b1f610b0f36610b64565b849394919b98999295979b610ebd565b99945097929c915099611087565b92010190611175565b9181601f840112156101535782359167ffffffffffffffff8311610153576020838186019501011161015357565b907ffffffffffffffffffffffffffffffffffffffffffffffffffffffffffffffffc82016101c0811261015357610100136101535760049167ffffffffffffffff90610104358281116101535781610bbe91600401610b36565b9390939261012435926101443573ffffffffffffffffffffffffffffffffffffffff811681036101535792610164359261018435926101a43591821161015357610c0a91600401610b36565b9091565b7fffffffffffffffffffffffffffffffffffffffff0000000000000000000000009035818116939260148110610c4357505050565b60140360031b82901b16169150565b90601f7fffffffffffffffffffffffffffffffffffffffffffffffffffffffffffffffe0910116810190811067ffffffffffffffff8211176107c157604052565b601f82602094937fffffffffffffffffffffffffffffffffffffffffffffffffffffffffffffffe093818652868601375f8582860101520116010190565b73ffffffffffffffffffffffffffffffffffffffff5f54163303610cf157565b60246040517f118cdaa7000000000000000000000000000000000000000000000000000000008152336004820152fd5b3d15610d79573d9067ffffffffffffffff82116107c15760405191610d6e60207fffffffffffffffffffffffffffffffffffffffffffffffffffffffffffffffe0601f8401160184610c52565b82523d5f602084013e565b606090565b90919269ffffffffffffffffffff5f9416918315610a9b57600190803560f81c90600a808302848101808611610153578810610153578281018501978190037fffffffffffffffffffffffffffffffffffffffffffffffffffffffffffffffff01965f9386015b858510610df55750505050505050565b82841161015357803560b01c8214610e37577ffffffffffffffffffffffffffffffffffffffffffffffffffffffffffffffff684889201930194019391610de5565b509498505050505050565b7fffff0000000000000000000000000000000000000000000000000000000000009035818116939260028110610e7757505050565b60020360031b82901b16169150565b8115610e90570490565b7f4e487b71000000000000000000000000000000000000000000000000000000005f52601260045260245ffd5b91610ec88284610e42565b60f01c928260021015610a9b57600281013560f81c9260648411610fb1578060031161015357610f1d7ffffffffffffffffffffffffffffffffffffffffffffffffffffffffffffffffd820160038401610e42565b60f01c928160051015610a9b57600583013560f81c9260648411610f8757826006116101535760067ffffffffffffffffffffffffffffffffffffffffffffffffffffffffffffffffa610f7294019101610d7e565b9196909287610f7e5750565b60649194020492565b60046040517f3066a1f1000000000000000000000000000000000000000000000000000000008152fd5b60046040517fc5374e2d000000000000000000000000000000000000000000000000000000008152fd5b949073ffffffffffffffffffffffffffffffffffffffff926110849a989599979461105c9260e06101c09180358b52602081013560208c0152604081013560408c0152606081013560608c0152608081013560808c015260a081013560a08c015260c081013560c08c0152013560e08a0152806101008a0152880191610c93565b97610120860152166101408401526101608301526101808201526101a0818503910152610c93565b90565b9097949693959492939060148410611159576110a38483610c0e565b60601c9584601411610153576020986014987fffffffffffffffffffffffffffffffffffffffffffffffffffffffffffffffec97611115966040519d8e9c8d9b8c9b7f1d9671c3000000000000000000000000000000000000000000000000000000008d520198019660048b01610fdb565b03915afa9081156107ee575f9161112a575090565b90506020813d602011611151575b8161114560209383610c52565b81010312610153575190565b3d9150611138565b9695505050505050611084925060a060c083013592013561134e565b620186a0917fffffffffffffffffffffffffffffffffffffffffffffffffffffffffffffffff8383099280830292838086109503948086039514611223578483111561120b5790829109815f038216809204600280826003021880830282030280830282030280830282030280830282030280830282030280920290030293600183805f03040190848311900302920304170290565b82634e487b715f52156003026011186020526024601cfd5b5050906110849250610e86565b7fffffffffffffffffffffffffffffffffffffffffffffffffffffffffffffffff828209828202918280831092039180830392146112bc5781606411156112aa577f5c28f5c28f5c28f5c28f5c28f5c28f5c28f5c28f5c28f5c28f5c28f5c28f5c29936064910990828211900360fe1b910360021c170290565b634e487b715f5260116020526024601cfd5b5050606491500490565b907fffffffffffffffffffffffffffffffffffffffffffffffffffffffffffffffff8183098183029182808310920391808303921461134257620186a090828211156112aa577f58cd20afa2f05a708ede54b48d3ae685db76b3bb83cf2cf95d4e8fb00bcbe61d940990828211900360fb1b910360051c170290565b5050620186a091500490565b90917fffffffffffffffffffffffffffffffffffffffffffffffffffffffffffffffff8383099280830292838086109503948086039514611223578483111561120b5790829109815f038216809204600280826003021880830282030280830282030280830282030280830282030280830282030280920290030293600183805f03040190848311900302920304170290565b919082018092116108e757565b9160446020925f92604051917fa9059cbb0000000000000000000000000000000000000000000000000000000083526004830152602482015282855af19081611464575b501561143a57565b60046040517ffb7f5079000000000000000000000000000000000000000000000000000000008152fd5b90503d1561147e575060015f5114601f3d11165b5f611432565b3b1515611478565b5f80809381935af1611496610d21565b501561149e57565b60046040517f6d963f88000000000000000000000000000000000000000000000000000000008152fd5b9097949693959492939060148410611556576114e48483610c0e565b60601c9584601411610153576020986014987fffffffffffffffffffffffffffffffffffffffffffffffffffffffffffffffec97611115966040519d8e9c8d9b8c9b7fd7ff8a80000000000000000000000000000000000000000000000000000000008d520198019660048b01610fdb565b975050505050505060a060c083013592013561157381838561134e565b918115610e905761108493091515906113e156fea2646970667358221220f6febb44157b397e936f570ccab150b9ba88e58f0332734851d36a3acb97ecb964736f6c63430008170033","linkReferences":{}},"methodIdentifiers":{"getMakingAmount((uint256,uint256,uint256,uint256,uint256,uint256,uint256,uint256),bytes,bytes32,address,uint256,uint256,bytes)":"1d9671c3","getTakingAmount((uint256,uint256,uint256,uint256,uint256,uint256,uint256,uint256),bytes,bytes32,address,uint256,uint256,bytes)":"d7ff8a80","owner()":"8da5cb5b","postInteraction((uint256,uint256,uint256,uint256,uint256,uint256,uint256,uint256),bytes,bytes32,address,uint256,uint256,uint256,bytes)":"462ebde2","renounceOwnership()":"715018a6","rescueFunds(address,uint256)":"78e3214f","transferOwnership(address)":"f2fde38b"},"id":52}