{"abi":[{"type":"constructor","inputs":[{"name":"rescueDelay","type":"uint32","internalType":"uint32"},{"name":"accessToken","type":"address","internalType":"contract IERC20"}],"stateMutability":"nonpayable"},{"type":"function","name":"FACTORY","inputs":[],"outputs":[{"name":"","type":"address","internalType":"address"}],"stateMutability":"view"},{"type":"function","name":"PROXY_BYTECODE_HASH","inputs":[],"outputs":[{"name":"","type":"bytes32","internalType":"bytes32"}],"stateMutability":"view"},{"type":"function","name":"RESCUE_DELAY","inputs":[],"outputs":[{"name":"","type":"uint256","internalType":"uint256"}],"stateMutability":"view"},{"type":"function","name":"cancel","inputs":[{"name":"immutables","type":"tuple","internalType":"struct IBaseEscrow.Immutables","components":[{"name":"orderHash","type":"bytes32","internalType":"bytes32"},{"name":"hashlock","type":"bytes32","internalType":"bytes32"},{"name":"maker","type":"uint256","internalType":"Address"},{"name":"taker","type":"uint256","internalType":"Address"},{"name":"token","type":"uint256","internalType":"Address"},{"name":"amount","type":"uint256","internalType":"uint256"},{"name":"safetyDeposit","type":"uint256","internalType":"uint256"},{"name":"timelocks","type":"uint256","internalType":"Timelocks"},{"name":"parameters","type":"bytes","internalType":"bytes"}]}],"outputs":[],"stateMutability":"nonpayable"},{"type":"function","name":"publicCancel","inputs":[{"name":"immutables","type":"tuple","internalType":"struct IBaseEscrow.Immutables","components":[{"name":"orderHash","type":"bytes32","internalType":"bytes32"},{"name":"hashlock","type":"bytes32","internalType":"bytes32"},{"name":"maker","type":"uint256","internalType":"Address"},{"name":"taker","type":"uint256","internalType":"Address"},{"name":"token","type":"uint256","internalType":"Address"},{"name":"amount","type":"uint256","internalType":"uint256"},{"name":"safetyDeposit","type":"uint256","internalType":"uint256"},{"name":"timelocks","type":"uint256","internalType":"Timelocks"},{"name":"parameters","type":"bytes","internalType":"bytes"}]}],"outputs":[],"stateMutability":"nonpayable"},{"type":"function","name":"publicWithdraw","inputs":[{"name":"secret","type":"bytes32","internalType":"bytes32"},{"name":"immutables","type":"tuple","internalType":"struct IBaseEscrow.Immutables","components":[{"name":"orderHash","type":"bytes32","internalType":"bytes32"},{"name":"hashlock","type":"bytes32","internalType":"bytes32"},{"name":"maker","type":"uint256","internalType":"Address"},{"name":"taker","type":"uint256","internalType":"Address"},{"name":"token","type":"uint256","internalType":"Address"},{"name":"amount","type":"uint256","internalType":"uint256"},{"name":"safetyDeposit","type":"uint256","internalType":"uint256"},{"name":"timelocks","type":"uint256","internalType":"Timelocks"},{"name":"parameters","type":"bytes","internalType":"bytes"}]}],"outputs":[],"stateMutability":"nonpayable"},{"type":"function","name":"rescueFunds","inputs":[{"name":"token","type":"address","internalType":"address"},{"name":"amount","type":"uint256","internalType":"uint256"},{"name":"immutables","type":"tuple","internalType":"struct IBaseEscrow.Immutables","components":[{"name":"orderHash","type":"bytes32","internalType":"bytes32"},{"name":"hashlock","type":"bytes32","internalType":"bytes32"},{"name":"maker","type":"uint256","internalType":"Address"},{"name":"taker","type":"uint256","internalType":"Address"},{"name":"token","type":"uint256","internalType":"Address"},{"name":"amount","type":"uint256","internalType":"uint256"},{"name":"safetyDeposit","type":"uint256","internalType":"uint256"},{"name":"timelocks","type":"uint256","internalType":"Timelocks"},{"name":"parameters","type":"bytes","internalType":"bytes"}]}],"outputs":[],"stateMutability":"nonpayable"},{"type":"function","name":"withdraw","inputs":[{"name":"secret","type":"bytes32","internalType":"bytes32"},{"name":"immutables","type":"tuple","internalType":"struct IBaseEscrow.Immutables","components":[{"name":"orderHash","type":"bytes32","internalType":"bytes32"},{"name":"hashlock","type":"bytes32","internalType":"bytes32"},{"name":"maker","type":"uint256","internalType":"Address"},{"name":"taker","type":"uint256","internalType":"Address"},{"name":"token","type":"uint256","internalType":"Address"},{"name":"amount","type":"uint256","internalType":"uint256"},{"name":"safetyDeposit","type":"uint256","internalType":"uint256"},{"name":"timelocks","type":"uint256","internalType":"Timelocks"},{"name":"parameters","type":"bytes","internalType":"bytes"}]}],"outputs":[],"stateMutability":"nonpayable"},{"type":"function","name":"withdrawTo","inputs":[{"name":"secret","type":"bytes32","internalType":"bytes32"},{"name":"target","type":"address","internalType":"address"},{"name":"immutables","type":"tuple","internalType":"struct IBaseEscrow.Immutables","components":[{"name":"orderHash","type":"bytes32","internalType":"bytes32"},{"name":"hashlock","type":"bytes32","internalType":"bytes32"},{"name":"maker","type":"uint256","internalType":"Address"},{"name":"taker","type":"uint256","internalType":"Address"},{"name":"token","type":"uint256","internalType":"Address"},{"name":"amount","type":"uint256","internalType":"uint256"},{"name":"safetyDeposit","type":"uint256","internalType":"uint256"},{"name":"timelocks","type":"uint256","internalType":"Timelocks"},{"name":"parameters","type":"bytes","internalType":"bytes"}]}],"outputs":[],"stateMutability":"nonpayable"},{"type":"event","name":"EscrowCancelled","inputs":[],"anonymous":false},{"type":"event","name":"EscrowWithdrawal","inputs":[{"name":"secret","type":"bytes32","indexed":false,"internalType":"bytes32"}],"anonymous":false},{"type":"event","name":"FundsRescued","inputs":[{"name":"token","type":"address","indexed":false,"internalType":"address"},{"name":"amount","type":"uint256","indexed":false,"internalType":"uint256"}],"anonymous":false},{"type":"error","name":"InvalidCaller","inputs":[]},{"type":"error","name":"InvalidImmutables","inputs":[]},{"type":"error","name":"InvalidSecret","inputs":[]},{"type":"error","name":"InvalidTime","inputs":[]},{"type":"error","name":"NativeTokenSendingFailure","inputs":[]},{"type":"error","name":"SafeTransferFailed","inputs":[]}],"bytecode":{"object":"0x61012034610172576001600160401b0390601f6111d238819003918201601f19168301918483118484101761015e5780849260409485528339810103126101725780519063ffffffff82168092036101725760200151906001600160a01b0382168203610172573360c05260a0526080526e5af43d82803e903d91602b57fd5bf360205230601152763d602d80600a3d3981f3363d3d373d3d3d363d730000003060881c175f52603760092060e05260405160208101903082526020815260408101928184109084111761015e57826040525190209061010091825261105b918261017783396080518281816107ae0152610c5d015260a05182818160b90152610411015260c05182818161016b015281816103ab015281816105db0152818161084601528181610ac20152610b5f015260e05182610a5501525181818161019a015281816103da0152818161060a015281816108740152610b8e0152f35b634e487b7160e01b5f52604160045260245ffd5b5f80fdfe6080604090808252600480361015610015575f80fd5b60e05f35811c928363056fb47714610c04575082632537a34714610ae65782632dd3100014610a7857826334862b6a14610a205782633e99ca751461074f5782634c345901146104fe5782635e504d03146102ef57826378a5e1a1146100e057505063f56cd69c14610085575f80fd5b346100dc575f7ffffffffffffffffffffffffffffffffffffffffffffffffffffffffffffffffc3601126100dc57602090517f00000000000000000000000000000000000000000000000000000000000000008152f35b5f80fd5b8390346100dc576100f036610d6b565b91909373ffffffffffffffffffffffffffffffffffffffff918260608501351633036102c75783013561012281610e75565b421061029f5761013190610e2e565b4210156102785761014183610e8c565b303f8551917f2020dba91b30cc0006188af794c2fb30dd8520db7e2c088b7fc7c103c00ca49483527f000000000000000000000000000000000000000000000000000000000000000060208401528683015260608201527f000000000000000000000000000000000000000000000000000000000000000060808201528260a0309220160361025157845f52602083013560205f200361022a577fe346f5c97a360db5188bfa5d3ec5f0583abde420c6ba4d08b6cfe61addc171056020868661022360c08861021b60a08201353360808401358c16610ef9565b013533610f91565b51908152a1005b83517fabab6bd7000000000000000000000000000000000000000000000000000000008152fd5b83517fa269484a000000000000000000000000000000000000000000000000000000008152fd5b83517f6f7eac26000000000000000000000000000000000000000000000000000000008152fd5b5083517f6f7eac26000000000000000000000000000000000000000000000000000000008152fd5b5083517f48f5c3ed000000000000000000000000000000000000000000000000000000008152fd5b8390346100dc577ffffffffffffffffffffffffffffffffffffffffffffffffffffffffffffffffc6060813601126100dc5783359173ffffffffffffffffffffffffffffffffffffffff918284168094036100dc57602435926044359167ffffffffffffffff83116100dc576101209083360301126100dc578060648301351633036104d657610380828801610e8c565b90303f8751927f2020dba91b30cc0006188af794c2fb30dd8520db7e2c088b7fc7c103c00ca49484527f000000000000000000000000000000000000000000000000000000000000000060208501528884015260608301527f0000000000000000000000000000000000000000000000000000000000000000608083015260a030922016036104ae5760e40135901c7f0000000000000000000000000000000000000000000000000000000000000000014210610486577fc4474c2790e13695f6d2b6f1d8e164290b55370f87a542fd7711abe0a1bf40ac935081610476576104698133610f91565b82519182526020820152a1005b610481813384610ef9565b610469565b5050517f6f7eac26000000000000000000000000000000000000000000000000000000008152fd5b8585517fa269484a000000000000000000000000000000000000000000000000000000008152fd5b8686517f48f5c3ed000000000000000000000000000000000000000000000000000000008152fd5b5082346100dc577ffffffffffffffffffffffffffffffffffffffffffffffffffffffffffffffffc6060813601126100dc5782359260243573ffffffffffffffffffffffffffffffffffffffff9182821682036100dc576044359367ffffffffffffffff85116100dc576101209085360301126100dc578260648501351633036107285760e484013561059081610e75565b42106107005761059f90610e2e565b4210156106d9576105b1848201610e8c565b303f8651917f2020dba91b30cc0006188af794c2fb30dd8520db7e2c088b7fc7c103c00ca49483527f000000000000000000000000000000000000000000000000000000000000000060208401528783015260608201527f000000000000000000000000000000000000000000000000000000000000000060808201528360a030922016036106b257855f52602484013560205f200361068b577fe346f5c97a360db5188bfa5d3ec5f0583abde420c6ba4d08b6cfe61addc171056020878761022360c48961021b60a48201358a60848401358d16610ef9565b84517fabab6bd7000000000000000000000000000000000000000000000000000000008152fd5b84517fa269484a000000000000000000000000000000000000000000000000000000008152fd5b84517f6f7eac26000000000000000000000000000000000000000000000000000000008152fd5b5084517f6f7eac26000000000000000000000000000000000000000000000000000000008152fd5b84517f48f5c3ed000000000000000000000000000000000000000000000000000000008152fd5b9150346100dc5761075f36610d6b565b93909173ffffffffffffffffffffffffffffffffffffffff908251947f70a0823100000000000000000000000000000000000000000000000000000000865233828701526020958681602481877f0000000000000000000000000000000000000000000000000000000000000000165afa908115610a16575f916109e9575b50156109c1578087013580911c63ffffffff82881c16810180911161099557421061096d5761080c90610e2e565b4210156109465761081c86610e8c565b303f8451917f2020dba91b30cc0006188af794c2fb30dd8520db7e2c088b7fc7c103c00ca49483527f0000000000000000000000000000000000000000000000000000000000000000888401528583015260608201527f000000000000000000000000000000000000000000000000000000000000000060808201528260a0309220160361091f57835f5284860135855f20036108f8575060c08561021b6102239360a07fe346f5c97a360db5188bfa5d3ec5f0583abde420c6ba4d08b6cfe61addc17105990135908060608501351690608085013516610ef9565b82517fabab6bd7000000000000000000000000000000000000000000000000000000008152fd5b82517fa269484a000000000000000000000000000000000000000000000000000000008152fd5b82517f6f7eac26000000000000000000000000000000000000000000000000000000008152fd5b5082517f6f7eac26000000000000000000000000000000000000000000000000000000008152fd5b6011837f4e487b71000000000000000000000000000000000000000000000000000000005f525260245ffd5b5082517f48f5c3ed000000000000000000000000000000000000000000000000000000008152fd5b90508681813d8311610a0f575b610a008183610dc0565b810103126100dc57515f6107de565b503d6109f6565b85513d5f823e3d90fd5b83346100dc575f7ffffffffffffffffffffffffffffffffffffffffffffffffffffffffffffffffc3601126100dc57602090517f00000000000000000000000000000000000000000000000000000000000000008152f35b83346100dc575f7ffffffffffffffffffffffffffffffffffffffffffffffffffffffffffffffffc3601126100dc576020905173ffffffffffffffffffffffffffffffffffffffff7f0000000000000000000000000000000000000000000000000000000000000000168152f35b8390346100dc57610af636610d1a565b9273ffffffffffffffffffffffffffffffffffffffff918260608601351633036109c157610b2690850135610e2e565b421061094657610b3584610e8c565b303f8451917f2020dba91b30cc0006188af794c2fb30dd8520db7e2c088b7fc7c103c00ca49483527f000000000000000000000000000000000000000000000000000000000000000060208401528583015260608201527f000000000000000000000000000000000000000000000000000000000000000060808201528260a0309220160361091f57610bde60c08561021b60a082013587830135871660808401358816610ef9565b7f6e3be9294e58d10b9c8053cfd5e09871b67e442fe394d6b0870d336b9df984a95f80a1005b849192346100dc57610c1536610d1a565b9373ffffffffffffffffffffffffffffffffffffffff927f70a082310000000000000000000000000000000000000000000000000000000081523383820152602081602481877f0000000000000000000000000000000000000000000000000000000000000000165afa908115610a16575f91610ce8575b50156109c15763ffffffff8186013580921c9160601c168101809111610cbc57421061094657610b3584610e8c565b6011827f4e487b71000000000000000000000000000000000000000000000000000000005f525260245ffd5b90506020813d602011610d12575b81610d0360209383610dc0565b810103126100dc575186610c8d565b3d9150610cf6565b7ffffffffffffffffffffffffffffffffffffffffffffffffffffffffffffffffc906020828201126100dc576004359167ffffffffffffffff83116100dc5782610120920301126100dc5760040190565b907ffffffffffffffffffffffffffffffffffffffffffffffffffffffffffffffffc6040818401126100dc57600435926024359167ffffffffffffffff83116100dc5782610120920301126100dc5760040190565b90601f7fffffffffffffffffffffffffffffffffffffffffffffffffffffffffffffffe0910116810190811067ffffffffffffffff821117610e0157604052565b7f4e487b71000000000000000000000000000000000000000000000000000000005f52604160045260245ffd5b63ffffffff8160e01c9160401c168101809111610e485790565b7f4e487b71000000000000000000000000000000000000000000000000000000005f52601160045260245ffd5b63ffffffff8160e01c91168101809111610e485790565b610100808201357fffffffffffffffffffffffffffffffffffffffffffffffffffffffffffffffe1833603018112156100dc5782019081359167ffffffffffffffff83116100dc576020019180360383136100dc5780604051938437822090610120809484378201522090565b9160446020925f92604051917fa9059cbb0000000000000000000000000000000000000000000000000000000083526004830152602482015282855af19081610f6f575b5015610f4557565b60046040517ffb7f5079000000000000000000000000000000000000000000000000000000008152fd5b90503d15610f89575060015f5114601f3d11165b5f610f3d565b3b1515610f83565b5f80809381935af13d15611020573d67ffffffffffffffff8111610e015760405190610fe560207fffffffffffffffffffffffffffffffffffffffffffffffffffffffffffffffe0601f8401160183610dc0565b81525f60203d92013e5b15610ff657565b60046040517f8a0332d5000000000000000000000000000000000000000000000000000000008152fd5b610fef56fea264697066735822122065b5031df585e991dcf79b1d87d2e6771090f5882570747d7eb4588962343a3c64736f6c63430008170033","linkReferences":{}},"methodIdentifiers":{"FACTORY()":"2dd31000","PROXY_BYTECODE_HASH()":"34862b6a","RESCUE_DELAY()":"f56cd69c","cancel((bytes32,bytes32,uint256,uint256,uint256,uint256,uint256,uint256,bytes))":"2537a347","publicCancel((bytes32,bytes32,uint256,uint256,uint256,uint256,uint256,uint256,bytes))":"056fb477","publicWithdraw(bytes32,(bytes32,bytes32,uint256,uint256,uint256,uint256,uint256,uint256,bytes))":"3e99ca75","rescueFunds(address,uint256,(bytes32,bytes32,uint256,uint256,uint256,uint256,uint256,uint256,bytes))":"5e504d03","withdraw(bytes32,(bytes32,bytes32,uint256,uint256,uint256,uint256,uint256,uint256,bytes))":"78a5e1a1","withdrawTo(bytes32,address,(bytes32,bytes32,uint256,uint256,uint256,uint256,uint256,uint256,bytes))":"4c345901"},"id":23}