{"abi":[{"type":"function","name":"and","inputs":[{"name":"offsets","type":"uint256","internalType":"uint256"},{"name":"data","type":"bytes","internalType":"bytes"}],"outputs":[{"name":"","type":"bool","internalType":"bool"}],"stateMutability":"view"},{"type":"function","name":"arbitraryStaticCall","inputs":[{"name":"target","type":"address","internalType":"address"},{"name":"data","type":"bytes","internalType":"bytes"}],"outputs":[{"name":"","type":"uint256","internalType":"uint256"}],"stateMutability":"view"},{"type":"function","name":"eq","inputs":[{"name":"value","type":"uint256","internalType":"uint256"},{"name":"data","type":"bytes","internalType":"bytes"}],"outputs":[{"name":"","type":"bool","internalType":"bool"}],"stateMutability":"view"},{"type":"function","name":"gt","inputs":[{"name":"value","type":"uint256","internalType":"uint256"},{"name":"data","type":"bytes","internalType":"bytes"}],"outputs":[{"name":"","type":"bool","internalType":"bool"}],"stateMutability":"view"},{"type":"function","name":"lt","inputs":[{"name":"value","type":"uint256","internalType":"uint256"},{"name":"data","type":"bytes","internalType":"bytes"}],"outputs":[{"name":"","type":"bool","internalType":"bool"}],"stateMutability":"view"},{"type":"function","name":"not","inputs":[{"name":"data","type":"bytes","internalType":"bytes"}],"outputs":[{"name":"","type":"bool","internalType":"bool"}],"stateMutability":"view"},{"type":"function","name":"or","inputs":[{"name":"offsets","type":"uint256","internalType":"uint256"},{"name":"data","type":"bytes","internalType":"bytes"}],"outputs":[{"name":"","type":"bool","internalType":"bool"}],"stateMutability":"view"},{"type":"error","name":"ArbitraryStaticCallFailed","inputs":[]}],"bytecode":{"object":"0x6080806040523461001657610415908161001b8239f35b5f80fdfe604060808152600480361015610013575f80fd5b5f3560e01c9081634f38e2b81461023f5781636fe7b0ba1461020e57816374261145146101f3578163bf15fcd814610143578163bf797959146100cd57508063bfa75143146100a95763ca4ece221461006a575f80fd5b346100a55761008860209161007e3661029e565b90939193306103bb565b8193919361009b575b5050519015158152f35b1091505f80610091565b5f80fd5b50346100a5576020906100c46100be3661029e565b9161035f565b90519015158152f35b82346100a55760207ffffffffffffffffffffffffffffffffffffffffffffffffffffffffffffffffc3601126100a55781359167ffffffffffffffff83116100a55761012161012891602094369101610270565b90306103bb565b8192919261013a575b50519015158152f35b15915083610131565b82346100a557807ffffffffffffffffffffffffffffffffffffffffffffffffffffffffffffffffc3601126100a557813573ffffffffffffffffffffffffffffffffffffffff811681036100a5576024359067ffffffffffffffff82116100a5576101b46101ba9236908601610270565b916103bb565b9190156101cb576020925051908152f35b9050517f1f1b8f61000000000000000000000000000000000000000000000000000000008152fd5b82346100a5576020906100c46102083661029e565b91610308565b82346100a55761022360209161007e3661029e565b81939193610235575050519015158152f35b1491508380610091565b82346100a55761025460209161007e3661029e565b81939193610266575050519015158152f35b1191508380610091565b9181601f840112156100a55782359167ffffffffffffffff83116100a557602083818601950101116100a557565b9060407ffffffffffffffffffffffffffffffffffffffffffffffffffffffffffffffffc8301126100a557600435916024359067ffffffffffffffff82116100a5576102ec91600401610270565b9091565b909392938483116100a55784116100a5578101920390565b929091925f5b63ffffffff8216908115610355576101218261032b9288886102f0565b8161034a575b50610340579060201c9061030e565b5050915050600190565b60019150145f610331565b5050509150505f90565b929091925f5b63ffffffff82169081156103b057610121826103829288886102f0565b90159081156103a4575b5061039b579060201c90610365565b50509150505f90565b6001915014155f61038c565b505050915050600190565b915f906020928294826040519283375afa60203d141691826103d957565b5f51915056fea2646970667358221220829bd5a25a7d4e423718b1988edb0579c7147d35a25e81080bdd589b3b6d483764736f6c63430008170033","linkReferences":{}},"methodIdentifiers":{"and(uint256,bytes)":"bfa75143","arbitraryStaticCall(address,bytes)":"bf15fcd8","eq(uint256,bytes)":"6fe7b0ba","gt(uint256,bytes)":"4f38e2b8","lt(uint256,bytes)":"ca4ece22","not(bytes)":"bf797959","or(uint256,bytes)":"74261145"},"id":53}