{"abi":[{"type":"constructor","inputs":[{"name":"rescueDelay","type":"uint32","internalType":"uint32"},{"name":"accessToken","type":"address","internalType":"contract IERC20"}],"stateMutability":"nonpayable"},{"type":"function","name":"FACTORY","inputs":[],"outputs":[{"name":"","type":"address","internalType":"address"}],"stateMutability":"view"},{"type":"function","name":"PROXY_BYTECODE_HASH","inputs":[],"outputs":[{"name":"","type":"bytes32","internalType":"bytes32"}],"stateMutability":"view"},{"type":"function","name":"RESCUE_DELAY","inputs":[],"outputs":[{"name":"","type":"uint256","internalType":"uint256"}],"stateMutability":"view"},{"type":"function","name":"cancel","inputs":[{"name":"immutables","type":"tuple","internalType":"struct IBaseEscrow.Immutables","components":[{"name":"orderHash","type":"bytes32","internalType":"bytes32"},{"name":"hashlock","type":"bytes32","internalType":"bytes32"},{"name":"maker","type":"uint256","internalType":"Address"},{"name":"taker","type":"uint256","internalType":"Address"},{"name":"token","type":"uint256","internalType":"Address"},{"name":"amount","type":"uint256","internalType":"uint256"},{"name":"safetyDeposit","type":"uint256","internalType":"uint256"},{"name":"timelocks","type":"uint256","internalType":"Timelocks"},{"name":"parameters","type":"bytes","internalType":"bytes"}]}],"outputs":[],"stateMutability":"nonpayable"},{"type":"function","name":"publicCancel","inputs":[{"name":"immutables","type":"tuple","internalType":"struct IBaseEscrow.Immutables","components":[{"name":"orderHash","type":"bytes32","internalType":"bytes32"},{"name":"hashlock","type":"bytes32","internalType":"bytes32"},{"name":"maker","type":"uint256","internalType":"Address"},{"name":"taker","type":"uint256","internalType":"Address"},{"name":"token","type":"uint256","internalType":"Address"},{"name":"amount","type":"uint256","internalType":"uint256"},{"name":"safetyDeposit","type":"uint256","internalType":"uint256"},{"name":"timelocks","type":"uint256","internalType":"Timelocks"},{"name":"parameters","type":"bytes","internalType":"bytes"}]}],"outputs":[],"stateMutability":"nonpayable"},{"type":"function","name":"publicWithdraw","inputs":[{"name":"secret","type":"bytes32","internalType":"bytes32"},{"name":"immutables","type":"tuple","internalType":"struct IBaseEscrow.Immutables","components":[{"name":"orderHash","type":"bytes32","internalType":"bytes32"},{"name":"hashlock","type":"bytes32","internalType":"bytes32"},{"name":"maker","type":"uint256","internalType":"Address"},{"name":"taker","type":"uint256","internalType":"Address"},{"name":"token","type":"uint256","internalType":"Address"},{"name":"amount","type":"uint256","internalType":"uint256"},{"name":"safetyDeposit","type":"uint256","internalType":"uint256"},{"name":"timelocks","type":"uint256","internalType":"Timelocks"},{"name":"parameters","type":"bytes","internalType":"bytes"}]}],"outputs":[],"stateMutability":"nonpayable"},{"type":"function","name":"rescueFunds","inputs":[{"name":"token","type":"address","internalType":"address"},{"name":"amount","type":"uint256","internalType":"uint256"},{"name":"immutables","type":"tuple","internalType":"struct IBaseEscrow.Immutables","components":[{"name":"orderHash","type":"bytes32","internalType":"bytes32"},{"name":"hashlock","type":"bytes32","internalType":"bytes32"},{"name":"maker","type":"uint256","internalType":"Address"},{"name":"taker","type":"uint256","internalType":"Address"},{"name":"token","type":"uint256","internalType":"Address"},{"name":"amount","type":"uint256","internalType":"uint256"},{"name":"safetyDeposit","type":"uint256","internalType":"uint256"},{"name":"timelocks","type":"uint256","internalType":"Timelocks"},{"name":"parameters","type":"bytes","internalType":"bytes"}]}],"outputs":[],"stateMutability":"nonpayable"},{"type":"function","name":"withdraw","inputs":[{"name":"secret","type":"bytes32","internalType":"bytes32"},{"name":"immutables","type":"tuple","internalType":"struct IBaseEscrow.Immutables","components":[{"name":"orderHash","type":"bytes32","internalType":"bytes32"},{"name":"hashlock","type":"bytes32","internalType":"bytes32"},{"name":"maker","type":"uint256","internalType":"Address"},{"name":"taker","type":"uint256","internalType":"Address"},{"name":"token","type":"uint256","internalType":"Address"},{"name":"amount","type":"uint256","internalType":"uint256"},{"name":"safetyDeposit","type":"uint256","internalType":"uint256"},{"name":"timelocks","type":"uint256","internalType":"Timelocks"},{"name":"parameters","type":"bytes","internalType":"bytes"}]}],"outputs":[],"stateMutability":"nonpayable"},{"type":"function","name":"withdrawTo","inputs":[{"name":"secret","type":"bytes32","internalType":"bytes32"},{"name":"target","type":"address","internalType":"address"},{"name":"immutables","type":"tuple","internalType":"struct IBaseEscrow.Immutables","components":[{"name":"orderHash","type":"bytes32","internalType":"bytes32"},{"name":"hashlock","type":"bytes32","internalType":"bytes32"},{"name":"maker","type":"uint256","internalType":"Address"},{"name":"taker","type":"uint256","internalType":"Address"},{"name":"token","type":"uint256","internalType":"Address"},{"name":"amount","type":"uint256","internalType":"uint256"},{"name":"safetyDeposit","type":"uint256","internalType":"uint256"},{"name":"timelocks","type":"uint256","internalType":"Timelocks"},{"name":"parameters","type":"bytes","internalType":"bytes"}]}],"outputs":[],"stateMutability":"nonpayable"},{"type":"event","name":"EscrowCancelled","inputs":[],"anonymous":false},{"type":"event","name":"EscrowWithdrawal","inputs":[{"name":"secret","type":"bytes32","indexed":false,"internalType":"bytes32"}],"anonymous":false},{"type":"event","name":"FundsRescued","inputs":[{"name":"token","type":"address","indexed":false,"internalType":"address"},{"name":"amount","type":"uint256","indexed":false,"internalType":"uint256"}],"anonymous":false},{"type":"error","name":"InvalidCaller","inputs":[]},{"type":"error","name":"InvalidImmutables","inputs":[]},{"type":"error","name":"InvalidSecret","inputs":[]},{"type":"error","name":"InvalidTime","inputs":[]},{"type":"error","name":"NativeTokenSendingFailure","inputs":[]},{"type":"error","name":"SafeTransferFailed","inputs":[]}],"bytecode":{"object":"0x610100346100fa57601f610eee38819003918201601f19168301916001600160401b038311848410176100fe5780849260409485528339810103126100fa5780519063ffffffff82168092036100fa5760200151906001600160a01b03821682036100fa573360c05260a0526080526e5af43d82803e903d91602b57fd5bf360205230601152763d602d80600a3d3981f3363d3d373d3d3d363d730000003060881c175f52603760092060e052604051610ddb908161011382396080518181816105ab015261092a015260a05181818160b901526102e3015260c0518181816108130152610c1f015260e0518181816107a60152610bf40152f35b5f80fd5b634e487b7160e01b5f52604160045260245ffdfe6080604090808252600480361015610015575f80fd5b60e05f35811c928363056fb477146108d1575082632537a347146108375782632dd31000146107c957826334862b6a146107715782633e99ca751461054c5782634c345901146103a85782635e504d031461024757826378a5e1a1146100e057505063f56cd69c14610085575f80fd5b346100dc575f7ffffffffffffffffffffffffffffffffffffffffffffffffffffffffffffffffc3601126100dc57602090517f00000000000000000000000000000000000000000000000000000000000000008152f35b5f80fd5b8390346100dc576100f036610a46565b91909373ffffffffffffffffffffffffffffffffffffffff9182606085013516330361021f5783013561012281610b50565b42106101f75761013190610b09565b4210156101d05761014961014484610b67565b610bd4565b845f52602083013560205f20036101a9577fe346f5c97a360db5188bfa5d3ec5f0583abde420c6ba4d08b6cfe61addc17105602086866101a260c08861019a60a08201353360808401358c16610c79565b013533610d11565b51908152a1005b83517fabab6bd7000000000000000000000000000000000000000000000000000000008152fd5b83517f6f7eac26000000000000000000000000000000000000000000000000000000008152fd5b5083517f6f7eac26000000000000000000000000000000000000000000000000000000008152fd5b5083517f48f5c3ed000000000000000000000000000000000000000000000000000000008152fd5b8390346100dc577ffffffffffffffffffffffffffffffffffffffffffffffffffffffffffffffffc6060813601126100dc5783359173ffffffffffffffffffffffffffffffffffffffff918284168094036100dc57602435926044359167ffffffffffffffff83116100dc576101209083360301126100dc57606482013516330361038057806102dd61014460e4938901610b67565b0135901c7f0000000000000000000000000000000000000000000000000000000000000000014210610358577fc4474c2790e13695f6d2b6f1d8e164290b55370f87a542fd7711abe0a1bf40ac9350816103485761033b8133610d11565b82519182526020820152a1005b610353813384610c79565b61033b565b5050517f6f7eac26000000000000000000000000000000000000000000000000000000008152fd5b8585517f48f5c3ed000000000000000000000000000000000000000000000000000000008152fd5b5082346100dc577ffffffffffffffffffffffffffffffffffffffffffffffffffffffffffffffffc6060813601126100dc5782359260243573ffffffffffffffffffffffffffffffffffffffff9182821682036100dc576044359367ffffffffffffffff85116100dc576101209085360301126100dc578260648501351633036105255760e484013561043a81610b50565b42106104fd5761044990610b09565b4210156104d65761045e610144858301610b67565b855f52602484013560205f20036104af577fe346f5c97a360db5188bfa5d3ec5f0583abde420c6ba4d08b6cfe61addc17105602087876101a260c48961019a60a48201358a60848401358d16610c79565b84517fabab6bd7000000000000000000000000000000000000000000000000000000008152fd5b84517f6f7eac26000000000000000000000000000000000000000000000000000000008152fd5b5084517f6f7eac26000000000000000000000000000000000000000000000000000000008152fd5b84517f48f5c3ed000000000000000000000000000000000000000000000000000000008152fd5b9150346100dc5761055c36610a46565b93909173ffffffffffffffffffffffffffffffffffffffff908251947f70a0823100000000000000000000000000000000000000000000000000000000865233828701526020958681602481877f0000000000000000000000000000000000000000000000000000000000000000165afa908115610767575f9161073a575b5015610712578087013580911c63ffffffff82881c1681018091116106e65742106106be5761060990610b09565b4210156106975761061c61014487610b67565b835f5284860135855f2003610670575060c08561019a6101a29360a07fe346f5c97a360db5188bfa5d3ec5f0583abde420c6ba4d08b6cfe61addc17105990135908060608501351690608085013516610c79565b82517fabab6bd7000000000000000000000000000000000000000000000000000000008152fd5b82517f6f7eac26000000000000000000000000000000000000000000000000000000008152fd5b5082517f6f7eac26000000000000000000000000000000000000000000000000000000008152fd5b6011837f4e487b71000000000000000000000000000000000000000000000000000000005f525260245ffd5b5082517f48f5c3ed000000000000000000000000000000000000000000000000000000008152fd5b90508681813d8311610760575b6107518183610a9b565b810103126100dc57515f6105db565b503d610747565b85513d5f823e3d90fd5b83346100dc575f7ffffffffffffffffffffffffffffffffffffffffffffffffffffffffffffffffc3601126100dc57602090517f00000000000000000000000000000000000000000000000000000000000000008152f35b83346100dc575f7ffffffffffffffffffffffffffffffffffffffffffffffffffffffffffffffffc3601126100dc576020905173ffffffffffffffffffffffffffffffffffffffff7f0000000000000000000000000000000000000000000000000000000000000000168152f35b8390346100dc57610847366109f5565b9273ffffffffffffffffffffffffffffffffffffffff918260608601351633036107125761087790850135610b09565b4210610697576108ab60c08561019a868661089461014485610b67565b8060a0850135928501351690608085013516610c79565b7f6e3be9294e58d10b9c8053cfd5e09871b67e442fe394d6b0870d336b9df984a95f80a1005b849192346100dc576108e2366109f5565b9373ffffffffffffffffffffffffffffffffffffffff927f70a082310000000000000000000000000000000000000000000000000000000081523383820152602081602481877f0000000000000000000000000000000000000000000000000000000000000000165afa908115610767575f916109c3575b50156107125763ffffffff8186013580921c9160601c168101809111610997574210610697576108ab60c08561019a868661089461014485610b67565b6011827f4e487b71000000000000000000000000000000000000000000000000000000005f525260245ffd5b90506020813d6020116109ed575b816109de60209383610a9b565b810103126100dc57518661095a565b3d91506109d1565b7ffffffffffffffffffffffffffffffffffffffffffffffffffffffffffffffffc906020828201126100dc576004359167ffffffffffffffff83116100dc5782610120920301126100dc5760040190565b907ffffffffffffffffffffffffffffffffffffffffffffffffffffffffffffffffc6040818401126100dc57600435926024359167ffffffffffffffff83116100dc5782610120920301126100dc5760040190565b90601f7fffffffffffffffffffffffffffffffffffffffffffffffffffffffffffffffe0910116810190811067ffffffffffffffff821117610adc57604052565b7f4e487b71000000000000000000000000000000000000000000000000000000005f52604160045260245ffd5b63ffffffff8160e01c9160401c168101809111610b235790565b7f4e487b71000000000000000000000000000000000000000000000000000000005f52601160045260245ffd5b63ffffffff8160e01c91168101809111610b235790565b610100808201357fffffffffffffffffffffffffffffffffffffffffffffffffffffffffffffffe1833603018112156100dc5782019081359167ffffffffffffffff83116100dc576020019180360383136100dc5780604051938437822090610120809484378201522090565b6055600b73ffffffffffffffffffffffffffffffffffffffff92604051907f0000000000000000000000000000000000000000000000000000000000000000604083015260208201527f000000000000000000000000000000000000000000000000000000000000000081520160ff815320163003610c4f57565b60046040517fa269484a000000000000000000000000000000000000000000000000000000008152fd5b9160446020925f92604051917fa9059cbb0000000000000000000000000000000000000000000000000000000083526004830152602482015282855af19081610cef575b5015610cc557565b60046040517ffb7f5079000000000000000000000000000000000000000000000000000000008152fd5b90503d15610d09575060015f5114601f3d11165b5f610cbd565b3b1515610d03565b5f80809381935af13d15610da0573d67ffffffffffffffff8111610adc5760405190610d6560207fffffffffffffffffffffffffffffffffffffffffffffffffffffffffffffffe0601f8401160183610a9b565b81525f60203d92013e5b15610d7657565b60046040517f8a0332d5000000000000000000000000000000000000000000000000000000008152fd5b610d6f56fea2646970667358221220b8d6ec63e49dfa406e00d5d94f2e4bb868be96b7aa75e4299fbb94230a2b5e3464736f6c63430008170033","linkReferences":{}},"methodIdentifiers":{"FACTORY()":"2dd31000","PROXY_BYTECODE_HASH()":"34862b6a","RESCUE_DELAY()":"f56cd69c","cancel((bytes32,bytes32,uint256,uint256,uint256,uint256,uint256,uint256,bytes))":"2537a347","publicCancel((bytes32,bytes32,uint256,uint256,uint256,uint256,uint256,uint256,bytes))":"056fb477","publicWithdraw(bytes32,(bytes32,bytes32,uint256,uint256,uint256,uint256,uint256,uint256,bytes))":"3e99ca75","rescueFunds(address,uint256,(bytes32,bytes32,uint256,uint256,uint256,uint256,uint256,uint256,bytes))":"5e504d03","withdraw(bytes32,(bytes32,bytes32,uint256,uint256,uint256,uint256,uint256,uint256,bytes))":"78a5e1a1","withdrawTo(bytes32,address,(bytes32,bytes32,uint256,uint256,uint256,uint256,uint256,uint256,bytes))":"4c345901"},"id":6}