{"abi":[{"type":"function","name":"dstCancellation","inputs":[{"name":"timelocks","type":"uint256","internalType":"Timelocks"}],"outputs":[{"name":"","type":"uint256","internalType":"uint256"}],"stateMutability":"pure"},{"type":"function","name":"dstPublicWithdrawal","inputs":[{"name":"timelocks","type":"uint256","internalType":"Timelocks"}],"outputs":[{"name":"","type":"uint256","internalType":"uint256"}],"stateMutability":"pure"},{"type":"function","name":"dstWithdrawal","inputs":[{"name":"timelocks","type":"uint256","internalType":"Timelocks"}],"outputs":[{"name":"","type":"uint256","internalType":"uint256"}],"stateMutability":"pure"},{"type":"function","name":"rescueStart","inputs":[{"name":"timelocks","type":"uint256","internalType":"Timelocks"},{"name":"rescueDelay","type":"uint256","internalType":"uint256"}],"outputs":[{"name":"","type":"uint256","internalType":"uint256"}],"stateMutability":"pure"},{"type":"function","name":"setDeployedAt","inputs":[{"name":"timelocks","type":"uint256","internalType":"Timelocks"},{"name":"value","type":"uint256","internalType":"uint256"}],"outputs":[{"name":"","type":"uint256","internalType":"Timelocks"}],"stateMutability":"pure"},{"type":"function","name":"srcCancellation","inputs":[{"name":"timelocks","type":"uint256","internalType":"Timelocks"}],"outputs":[{"name":"","type":"uint256","internalType":"uint256"}],"stateMutability":"pure"},{"type":"function","name":"srcPublicCancellation","inputs":[{"name":"timelocks","type":"uint256","internalType":"Timelocks"}],"outputs":[{"name":"","type":"uint256","internalType":"uint256"}],"stateMutability":"pure"},{"type":"function","name":"srcWithdrawal","inputs":[{"name":"timelocks","type":"uint256","internalType":"Timelocks"}],"outputs":[{"name":"","type":"uint256","internalType":"uint256"}],"stateMutability":"pure"}],"bytecode":{"object":"0x6080806040523461001657610357908161001b8239f35b5f80fdfe608060409080825260049081361015610016575f80fd5b60e0915f35831c918263044922e71461029d575081630665637a1461024a57816318a7970f146101fa5781636a429b88146101a757816398b362e61461016b578163a8d4240a14610118578163e87b55f414610099575063f4b045571461007b575f80fd5b346100955760209161008c366102ed565b9151921c018152f35b5f80fd5b8284346100955760207ffffffffffffffffffffffffffffffffffffffffffffffffffffffffffffffffc3601126100955763ffffffff833580931c9260a01c1682018092116100ec576020925051908152f35b6011837f4e487b71000000000000000000000000000000000000000000000000000000005f525260245ffd5b8284346100955760207ffffffffffffffffffffffffffffffffffffffffffffffffffffffffffffffffc3601126100955763ffffffff833580931c9260801c1682018092116100ec576020925051908152f35b505034610095576020917bffffffffffffffffffffffffffffffffffffffffffffffffffffffff61019b366102ed565b909251931b9116178152f35b8284346100955760207ffffffffffffffffffffffffffffffffffffffffffffffffffffffffffffffffc3601126100955763ffffffff833580931c9260c01c1682018092116100ec576020925051908152f35b8284346100955760207ffffffffffffffffffffffffffffffffffffffffffffffffffffffffffffffffc3601126100955763ffffffff833580931c921682018092116100ec576020925051908152f35b8284346100955760207ffffffffffffffffffffffffffffffffffffffffffffffffffffffffffffffffc3601126100955763ffffffff833580931c9260601c1682018092116100ec576020925051908152f35b8484346100955760207ffffffffffffffffffffffffffffffffffffffffffffffffffffffffffffffffc3601126100955763ffffffff90843580911c921c1681018091116100ec57602092508152f35b7ffffffffffffffffffffffffffffffffffffffffffffffffffffffffffffffffc604091011261009557600435906024359056fea2646970667358221220b30e5f2d25da7e5eaa4a5287c11f3df48fe9d10208581407eed2f61ed70697cb64736f6c63430008170033","linkReferences":{}},"methodIdentifiers":{"dstCancellation(uint256)":"6a429b88","dstPublicWithdrawal(uint256)":"e87b55f4","dstWithdrawal(uint256)":"a8d4240a","rescueStart(uint256,uint256)":"f4b04557","setDeployedAt(uint256,uint256)":"98b362e6","srcCancellation(uint256)":"044922e7","srcPublicCancellation(uint256)":"0665637a","srcWithdrawal(uint256)":"18a7970f"},"id":140}