{"abi":[{"type":"constructor","inputs":[{"name":"factory","type":"address","internalType":"contract IEscrowFactory"},{"name":"lop","type":"address","internalType":"contract IOrderMixin"},{"name":"initialOwner","type":"address","internalType":"address"}],"stateMutability":"nonpayable"},{"type":"receive","stateMutability":"payable"},{"type":"function","name":"deploySrc","inputs":[{"name":"immutables","type":"tuple","internalType":"struct IBaseEscrow.Immutables","components":[{"name":"orderHash","type":"bytes32","internalType":"bytes32"},{"name":"hashlock","type":"bytes32","internalType":"bytes32"},{"name":"maker","type":"uint256","internalType":"Address"},{"name":"taker","type":"uint256","internalType":"Address"},{"name":"token","type":"uint256","internalType":"Address"},{"name":"amount","type":"uint256","internalType":"uint256"},{"name":"safetyDeposit","type":"uint256","internalType":"uint256"},{"name":"timelocks","type":"uint256","internalType":"Timelocks"},{"name":"parameters","type":"bytes","internalType":"bytes"}]},{"name":"order","type":"tuple","internalType":"struct IOrderMixin.Order","components":[{"name":"salt","type":"uint256","internalType":"uint256"},{"name":"maker","type":"uint256","internalType":"Address"},{"name":"receiver","type":"uint256","internalType":"Address"},{"name":"makerAsset","type":"uint256","internalType":"Address"},{"name":"takerAsset","type":"uint256","internalType":"Address"},{"name":"makingAmount","type":"uint256","internalType":"uint256"},{"name":"takingAmount","type":"uint256","internalType":"uint256"},{"name":"makerTraits","type":"uint256","internalType":"MakerTraits"}]},{"name":"r","type":"bytes32","internalType":"bytes32"},{"name":"vs","type":"bytes32","internalType":"bytes32"},{"name":"amount","type":"uint256","internalType":"uint256"},{"name":"takerTraits","type":"uint256","internalType":"TakerTraits"},{"name":"args","type":"bytes","internalType":"bytes"}],"outputs":[],"stateMutability":"nonpayable"},{"type":"function","name":"owner","inputs":[],"outputs":[{"name":"","type":"address","internalType":"address"}],"stateMutability":"view"},{"type":"function","name":"renounceOwnership","inputs":[],"outputs":[],"stateMutability":"nonpayable"},{"type":"function","name":"takerInteraction","inputs":[{"name":"order","type":"tuple","internalType":"struct IOrderMixin.Order","components":[{"name":"salt","type":"uint256","internalType":"uint256"},{"name":"maker","type":"uint256","internalType":"Address"},{"name":"receiver","type":"uint256","internalType":"Address"},{"name":"makerAsset","type":"uint256","internalType":"Address"},{"name":"takerAsset","type":"uint256","internalType":"Address"},{"name":"makingAmount","type":"uint256","internalType":"uint256"},{"name":"takingAmount","type":"uint256","internalType":"uint256"},{"name":"makerTraits","type":"uint256","internalType":"MakerTraits"}]},{"name":"extension","type":"bytes","internalType":"bytes"},{"name":"","type":"bytes32","internalType":"bytes32"},{"name":"","type":"address","internalType":"address"},{"name":"","type":"uint256","internalType":"uint256"},{"name":"","type":"uint256","internalType":"uint256"},{"name":"","type":"uint256","internalType":"uint256"},{"name":"extraData","type":"bytes","internalType":"bytes"}],"outputs":[],"stateMutability":"nonpayable"},{"type":"function","name":"transferOwnership","inputs":[{"name":"newOwner","type":"address","internalType":"address"}],"outputs":[],"stateMutability":"nonpayable"},{"type":"event","name":"OwnershipTransferred","inputs":[{"name":"previousOwner","type":"address","indexed":true,"internalType":"address"},{"name":"newOwner","type":"address","indexed":true,"internalType":"address"}],"anonymous":false},{"type":"error","name":"AccessDenied","inputs":[]},{"type":"error","name":"NativeTokenSendingFailure","inputs":[]},{"type":"error","name":"OwnableInvalidOwner","inputs":[{"name":"owner","type":"address","internalType":"address"}]},{"type":"error","name":"OwnableUnauthorizedAccount","inputs":[{"name":"account","type":"address","internalType":"address"}]}],"bytecode":{"object":"0x60c0346100fc57601f61120938819003918201601f19168301916001600160401b03831184841017610100578084926060946040528339810103126100fc5780516001600160a01b03919082811681036100fc5760208201519183831683036100fc57604001518381168091036100fc5780156100e4575f80546001600160a01b03198116831782556040519516907f8be0079c531659141344cd1fd0a4f28419497f9722a3daafe3b4186f6b6457e09080a360805260a0526110f4908161011582396080518181816103e20152610b5a015260a0518181816106d60152610a6d0152f35b604051631e4fbdf760e01b81525f6004820152602490fd5b5f80fd5b634e487b7160e01b5f52604160045260245ffdfe6080604052600436101561001a575b3615610018575f80fd5b005b5f3560e01c8063715018a614610e085780638da5cb5b14610db8578063adf38ba1146109bc578063d9290a33146101385763f2fde38b0361000e57346101345760207ffffffffffffffffffffffffffffffffffffffffffffffffffffffffffffffffc3601126101345760043573ffffffffffffffffffffffffffffffffffffffff808216809203610134576100ae61106e565b8115610104575f54827fffffffffffffffffffffffff00000000000000000000000000000000000000008216175f55167f8be0079c531659141344cd1fd0a4f28419497f9722a3daafe3b4186f6b6457e05f80a3005b60246040517f1e4fbdf70000000000000000000000000000000000000000000000000000000081525f6004820152fd5b5f80fd5b34610134577ffffffffffffffffffffffffffffffffffffffffffffffffffffffffffffffffc6101c0813601126101345767ffffffffffffffff60043511610134576101209060043536030112610134576101007fffffffffffffffffffffffffffffffffffffffffffffffffffffffffffffffdc360112610134576101a43567ffffffffffffffff8111610134576101d5903690600401610ea2565b6101dd61106e565b604051918261012081011067ffffffffffffffff6101208501111761098f57610120830160405260043560040135835260246004350135602084015260446004350135604084015260646004350135606084015260846004350135608084015260a4600435013560a084015260c4600435013560c084015260e4600435013560e084015267ffffffffffffffff6101046004350135116101345736600435610104810135016023011215610134576102a060048035610104810135010135610f8e565b6102ad6040519182610ed0565b60048035610104810135019081013580835236910160240111610134576004803561010481013501908101359060240160208301375f60206004610104813501358135010135830101526101008401524260e01b7bffffffffffffffffffffffffffffffffffffffffffffffffffffffff60e46004350135161760e0840152604051927ffd6de0350000000000000000000000000000000000000000000000000000000084526020600485015280516024850152602081015160448501526040810151606485015260608101516084850152608081015160a485015260a081015160c485015260c081015160e485015260e0810151610104850152602084806103c9610100850151610120610124840152610144830190611012565b038173ffffffffffffffffffffffffffffffffffffffff7f0000000000000000000000000000000000000000000000000000000000000000165afa93841561072c575f94610953575b505f808060c081940151875af1610427610fc8565b5015610929577fffffffffffffffffffffffffffffffffffffffff000000000000000000000000928261047f9360349360405196879460601b1660208501528484013781015f83820152036014810184520182610ed0565b6004803580820135909155602481013560055560448101356006556064810135600755608481013560085560a481013560095560c4810135600a5560e4810135600b55368190037fffffffffffffffffffffffffffffffffffffffffffffffffffffffffffffffdd016101049091013512156101345767ffffffffffffffff600480356101048101350101351161013457600480356101048101350190810135360360249091011361013457610536600c54610f3d565b601f8111610878575b505f906001601f60048035610104810135010135111461074e576060906106bc925f906004610104813501358135010135610737575b507fffffffffffffffffffffffffffffffffffffffffffffffffffffffffffffffff60048035610104810135010135600381901b9190911c1990911660019190911b17600c555b61012435600155610144356002557f08000000000000000000000000000000000000000000000000000000000000006101843517600355604051809381927ff497df75000000000000000000000000000000000000000000000000000000008352602435600484015260443560248401526064356044840152608435606484015260a435608484015260c43560a484015260e43560c48401526101043560e48401526101243561010484015261014435610124840152610164356101448401527f080000000000000000000000000000000000000000000000000000000000000061018435176101648401526101a06101848401526101a4830190611012565b03815f73ffffffffffffffffffffffffffffffffffffffff7f0000000000000000000000000000000000000000000000000000000000000000165af1801561072c5761070457005b6100189060603d606011610725575b61071d8183610ed0565b810190610ff7565b503d610713565b6040513d5f823e3d90fd5b600435610104810135010160240135905084610575565b600c5f527fdf6966c971051c3d54ec59162606531493a51404a002842f56009d7e5cf4a8c7915f5b600480356101048101350101357fffffffffffffffffffffffffffffffffffffffffffffffffffffffffffffffe016811061085457506106bc9260609291600480356101048101350101357fffffffffffffffffffffffffffffffffffffffffffffffffffffffffffffffe0811610610807575b505060016004610104813501358135010135811b01600c556105bc565b6004803561010481013501918201602401357fffffffffffffffffffffffffffffffffffffffffffffffffffffffffffffffff929091013560031b60f8169190911c1916905583806107ea565b60043561010481013501820160240135845560019093019260209182019101610776565b600c5f527fdf6966c971051c3d54ec59162606531493a51404a002842f56009d7e5cf4a8c760048035610104810135010135601f810160051c919091019190602011610901575b601f0160051c7fdf6966c971051c3d54ec59162606531493a51404a002842f56009d7e5cf4a8c701905b8181106108f6575061053f565b5f81556001016108e9565b7fdf6966c971051c3d54ec59162606531493a51404a002842f56009d7e5cf4a8c791506108bf565b60046040517f8a0332d5000000000000000000000000000000000000000000000000000000008152fd5b5f808093965060c061097d829460203d602011610988575b6109758183610ed0565b810190610f11565b979450505050610412565b503d61096b565b7f4e487b71000000000000000000000000000000000000000000000000000000005f52604160045260245ffd5b34610134577ffffffffffffffffffffffffffffffffffffffffffffffffffffffffffffffffc36016101e0811261013457610100136101345761010467ffffffffffffffff813581811161013457610a18903690600401610ea2565b90916101443573ffffffffffffffffffffffffffffffffffffffff811603610134576101c43590811161013457610a53903690600401610ea2565b73ffffffffffffffffffffffffffffffffffffffff9491947f0000000000000000000000000000000000000000000000000000000000000000163303610d8e5760019485600955604051947ffd6de035000000000000000000000000000000000000000000000000000000008652602094856004880152600454602488015260055460448801526006546064880152600754608488015260085460a48801528760c4880152600a548060e4890152600b548689015261012061012489015286885f8b600c5483610b2282610f3d565b9283610144830152821691825f14610d51575050600114610cf4575b508190038173ffffffffffffffffffffffffffffffffffffffff7f0000000000000000000000000000000000000000000000000000000000000000165afa97881561072c575f98610ccd575b505f808080938b5af1610b9b610fc8565b501561092957606096847fffffffffffffffffffffffffffffffffffffffff000000000000000000000000946106bc9684603495610c32977fffffffff000000ffffffffffffffffffffffffffffffffffffffffffffffffff600354168460c81b179c8d6003556040519a8f988c991b1690880152878701378401918583015f815237015f83820152036014810184520182610ed0565b8554936002549660405197889687967ff497df750000000000000000000000000000000000000000000000000000000088526004356004890152602435602489015260443560448901526064356064890152608435608489015260a43560a489015260c43560c489015260e43560e48901528701526101248601526101448501526101648401526101a06101848401526101a4830190611012565b5f8080939a50610cea81938b3d8d11610988576109758183610ed0565b9a93505050610b8a565b600c5f90815291508c7fdf6966c971051c3d54ec59162606531493a51404a002842f56009d7e5cf4a8c75b828410610d355750505081016101640181610b3e565b90919492936101648583549201015201910189928c8c93610d1f565b7fffffffffffffffffffffffffffffffffffffffffffffffffffffffffffffff009194506101649392501682840152151560051b82010190610b3e565b60046040517f4ca88867000000000000000000000000000000000000000000000000000000008152fd5b34610134575f7ffffffffffffffffffffffffffffffffffffffffffffffffffffffffffffffffc36011261013457602073ffffffffffffffffffffffffffffffffffffffff5f5416604051908152f35b34610134575f7ffffffffffffffffffffffffffffffffffffffffffffffffffffffffffffffffc36011261013457610e3e61106e565b5f73ffffffffffffffffffffffffffffffffffffffff81547fffffffffffffffffffffffff000000000000000000000000000000000000000081168355167f8be0079c531659141344cd1fd0a4f28419497f9722a3daafe3b4186f6b6457e08280a3005b9181601f840112156101345782359167ffffffffffffffff8311610134576020838186019501011161013457565b90601f7fffffffffffffffffffffffffffffffffffffffffffffffffffffffffffffffe0910116810190811067ffffffffffffffff82111761098f57604052565b90816020910312610134575173ffffffffffffffffffffffffffffffffffffffff811681036101345790565b90600182811c92168015610f84575b6020831014610f5757565b7f4e487b71000000000000000000000000000000000000000000000000000000005f52602260045260245ffd5b91607f1691610f4c565b67ffffffffffffffff811161098f57601f017fffffffffffffffffffffffffffffffffffffffffffffffffffffffffffffffe01660200190565b3d15610ff2573d90610fd982610f8e565b91610fe76040519384610ed0565b82523d5f602084013e565b606090565b90816060910312610134578051916040602083015192015190565b91908251928382525f5b84811061105a5750507fffffffffffffffffffffffffffffffffffffffffffffffffffffffffffffffe0601f845f6020809697860101520116010190565b60208183018101518483018201520161101c565b73ffffffffffffffffffffffffffffffffffffffff5f5416330361108e57565b60246040517f118cdaa7000000000000000000000000000000000000000000000000000000008152336004820152fdfea264697066735822122076378a4743efcd4057fd2e69b981e9f77c9b2636ea9212b47312a00bff4dd23964736f6c63430008170033","linkReferences":{}},"methodIdentifiers":{"deploySrc((bytes32,bytes32,uint256,uint256,uint256,uint256,uint256,uint256,bytes),(uint256,uint256,uint256,uint256,uint256,uint256,uint256,uint256),bytes32,bytes32,uint256,uint256,bytes)":"d9290a33","owner()":"8da5cb5b","renounceOwnership()":"715018a6","takerInteraction((uint256,uint256,uint256,uint256,uint256,uint256,uint256,uint256),bytes,bytes32,address,uint256,uint256,uint256,bytes)":"adf38ba1","transferOwnership(address)":"f2fde38b"},"id":139}