{"abi":[{"type":"function","name":"getMakingAmount","inputs":[{"name":"order","type":"tuple","internalType":"struct IOrderMixin.Order","components":[{"name":"salt","type":"uint256","internalType":"uint256"},{"name":"maker","type":"uint256","internalType":"Address"},{"name":"receiver","type":"uint256","internalType":"Address"},{"name":"makerAsset","type":"uint256","internalType":"Address"},{"name":"takerAsset","type":"uint256","internalType":"Address"},{"name":"makingAmount","type":"uint256","internalType":"uint256"},{"name":"takingAmount","type":"uint256","internalType":"uint256"},{"name":"makerTraits","type":"uint256","internalType":"MakerTraits"}]},{"name":"extension","type":"bytes","internalType":"bytes"},{"name":"orderHash","type":"bytes32","internalType":"bytes32"},{"name":"taker","type":"address","internalType":"address"},{"name":"takingAmount","type":"uint256","internalType":"uint256"},{"name":"remainingMakingAmount","type":"uint256","internalType":"uint256"},{"name":"extraData","type":"bytes","internalType":"bytes"}],"outputs":[{"name":"","type":"uint256","internalType":"uint256"}],"stateMutability":"view"},{"type":"function","name":"getTakingAmount","inputs":[{"name":"order","type":"tuple","internalType":"struct IOrderMixin.Order","components":[{"name":"salt","type":"uint256","internalType":"uint256"},{"name":"maker","type":"uint256","internalType":"Address"},{"name":"receiver","type":"uint256","internalType":"Address"},{"name":"makerAsset","type":"uint256","internalType":"Address"},{"name":"takerAsset","type":"uint256","internalType":"Address"},{"name":"makingAmount","type":"uint256","internalType":"uint256"},{"name":"takingAmount","type":"uint256","internalType":"uint256"},{"name":"makerTraits","type":"uint256","internalType":"MakerTraits"}]},{"name":"extension","type":"bytes","internalType":"bytes"},{"name":"orderHash","type":"bytes32","internalType":"bytes32"},{"name":"taker","type":"address","internalType":"address"},{"name":"makingAmount","type":"uint256","internalType":"uint256"},{"name":"remainingMakingAmount","type":"uint256","internalType":"uint256"},{"name":"extraData","type":"bytes","internalType":"bytes"}],"outputs":[{"name":"","type":"uint256","internalType":"uint256"}],"stateMutability":"view"},{"type":"error","name":"InvalidIntegratorShare","inputs":[]},{"type":"error","name":"InvalidWhitelistDiscountNumerator","inputs":[]}],"bytecode":{"object":"0x60808060405234610016576109e0908161001b8239f35b5f80fdfe60806040526004361015610011575f80fd5b5f3560e01c80631d9671c3146100bd5763d7ff8a801461002f575f80fd5b346100b95761006161005361004336610137565b849394919a98999295979a61034d565b99945097929b9150996108e8565b91620186a09101810161007481846107bb565b92091515810180911161008c57602090604051908152f35b7f4e487b71000000000000000000000000000000000000000000000000000000005f52601160045260245ffd5b5f80fd5b346100b95760206101016100f8620186a06100ea6100da36610137565b849394919b98999295979b61034d565b99945097929c915099610607565b92010190610700565b604051908152f35b9181601f840112156100b95782359167ffffffffffffffff83116100b957602083818601950101116100b957565b907ffffffffffffffffffffffffffffffffffffffffffffffffffffffffffffffffc82016101c081126100b957610100136100b95760049167ffffffffffffffff90610104358281116100b9578161019191600401610109565b9390939261012435926101443573ffffffffffffffffffffffffffffffffffffffff811681036100b95792610164359261018435926101a4359182116100b9576101dd91600401610109565b9091565b90919269ffffffffffffffffffff5f94169183156102a557600190803560f81c90600a8083028481018086116100b95788106100b9578281018501978190037fffffffffffffffffffffffffffffffffffffffffffffffffffffffffffffffff01965f9386015b8585106102585750505050505050565b8284116100b957803560b01c821461029a577ffffffffffffffffffffffffffffffffffffffffffffffffffffffffffffffff684889201930194019391610248565b509498505050505050565b7f4e487b71000000000000000000000000000000000000000000000000000000005f52603260045260245ffd5b7fffff000000000000000000000000000000000000000000000000000000000000903581811693926002811061030757505050565b60020360031b82901b16169150565b8115610320570490565b7f4e487b71000000000000000000000000000000000000000000000000000000005f52601260045260245ffd5b9161035882846102d2565b60f01c9282600210156102a557600281013560f81c926064841161044157806003116100b9576103ad7ffffffffffffffffffffffffffffffffffffffffffffffffffffffffffffffffd8201600384016102d2565b60f01c9281600510156102a557600583013560f81c926064841161041757826006116100b95760067ffffffffffffffffffffffffffffffffffffffffffffffffffffffffffffffffa610402940191016101e1565b919690928761040e5750565b60649194020492565b60046040517f3066a1f1000000000000000000000000000000000000000000000000000000008152fd5b60046040517fc5374e2d000000000000000000000000000000000000000000000000000000008152fd5b7fffffffffffffffffffffffffffffffffffffffff00000000000000000000000090358181169392601481106104a057505050565b60140360031b82901b16169150565b90601f7fffffffffffffffffffffffffffffffffffffffffffffffffffffffffffffffe0910116810190811067ffffffffffffffff8211176104f057604052565b7f4e487b71000000000000000000000000000000000000000000000000000000005f52604160045260245ffd5b601f82602094937fffffffffffffffffffffffffffffffffffffffffffffffffffffffffffffffe093818652868601375f8582860101520116010190565b949073ffffffffffffffffffffffffffffffffffffffff926106049a98959997946105dc9260e06101c09180358b52602081013560208c0152604081013560408c0152606081013560608c0152608081013560808c015260a081013560a08c015260c081013560c08c0152013560e08a0152806101008a015288019161051d565b97610120860152166101408401526101608301526101808201526101a081850391015261051d565b90565b90979496939594929390601484106106e457610623848361046b565b60601c95846014116100b9576020986014987fffffffffffffffffffffffffffffffffffffffffffffffffffffffffffffffec97610695966040519d8e9c8d9b8c9b7f1d9671c3000000000000000000000000000000000000000000000000000000008d520198019660048b0161055b565b03915afa9081156106d9575f916106aa575090565b90506020813d6020116106d1575b816106c5602093836104af565b810103126100b9575190565b3d91506106b8565b6040513d5f823e3d90fd5b9695505050505050610604925060a060c0830135920135610855565b620186a0917fffffffffffffffffffffffffffffffffffffffffffffffffffffffffffffffff83830992808302928380861095039480860395146107ae57848311156107965790829109815f038216809204600280826003021880830282030280830282030280830282030280830282030280830282030280920290030293600183805f03040190848311900302920304170290565b82634e487b715f52156003026011186020526024601cfd5b5050906106049250610316565b907fffffffffffffffffffffffffffffffffffffffffffffffffffffffffffffffff8183098183029182808310920391808303921461084957620186a09082821115610837577f58cd20afa2f05a708ede54b48d3ae685db76b3bb83cf2cf95d4e8fb00bcbe61d940990828211900360fb1b910360051c170290565b634e487b715f5260116020526024601cfd5b5050620186a091500490565b90917fffffffffffffffffffffffffffffffffffffffffffffffffffffffffffffffff83830992808302928380861095039480860395146107ae57848311156107965790829109815f038216809204600280826003021880830282030280830282030280830282030280830282030280830282030280920290030293600183805f03040190848311900302920304170290565b909794969395949293906014841061097657610904848361046b565b60601c95846014116100b9576020986014987fffffffffffffffffffffffffffffffffffffffffffffffffffffffffffffffec97610695966040519d8e9c8d9b8c9b7fd7ff8a80000000000000000000000000000000000000000000000000000000008d520198019660048b0161055b565b975050505050505060a060c083013592013590610994828285610855565b92821561032057091515810180911161008c579056fea264697066735822122046891f0bd265f96315af4b39f5a027909ed824fbefaa9f53c4733e996dd54cf664736f6c63430008170033","linkReferences":{}},"methodIdentifiers":{"getMakingAmount((uint256,uint256,uint256,uint256,uint256,uint256,uint256,uint256),bytes,bytes32,address,uint256,uint256,bytes)":"1d9671c3","getTakingAmount((uint256,uint256,uint256,uint256,uint256,uint256,uint256,uint256),bytes,bytes32,address,uint256,uint256,bytes)":"d7ff8a80"},"id":51}