{"abi":[{"type":"function","name":"getMakingAmount","inputs":[{"name":"order","type":"tuple","internalType":"struct IOrderMixin.Order","components":[{"name":"salt","type":"uint256","internalType":"uint256"},{"name":"maker","type":"uint256","internalType":"Address"},{"name":"receiver","type":"uint256","internalType":"Address"},{"name":"makerAsset","type":"uint256","internalType":"Address"},{"name":"takerAsset","type":"uint256","internalType":"Address"},{"name":"makingAmount","type":"uint256","internalType":"uint256"},{"name":"takingAmount","type":"uint256","internalType":"uint256"},{"name":"makerTraits","type":"uint256","internalType":"MakerTraits"}]},{"name":"extension","type":"bytes","internalType":"bytes"},{"name":"orderHash","type":"bytes32","internalType":"bytes32"},{"name":"taker","type":"address","internalType":"address"},{"name":"takingAmount","type":"uint256","internalType":"uint256"},{"name":"remainingMakingAmount","type":"uint256","internalType":"uint256"},{"name":"extraData","type":"bytes","internalType":"bytes"}],"outputs":[{"name":"","type":"uint256","internalType":"uint256"}],"stateMutability":"view"},{"type":"function","name":"getTakingAmount","inputs":[{"name":"order","type":"tuple","internalType":"struct IOrderMixin.Order","components":[{"name":"salt","type":"uint256","internalType":"uint256"},{"name":"maker","type":"uint256","internalType":"Address"},{"name":"receiver","type":"uint256","internalType":"Address"},{"name":"makerAsset","type":"uint256","internalType":"Address"},{"name":"takerAsset","type":"uint256","internalType":"Address"},{"name":"makingAmount","type":"uint256","internalType":"uint256"},{"name":"takingAmount","type":"uint256","internalType":"uint256"},{"name":"makerTraits","type":"uint256","internalType":"MakerTraits"}]},{"name":"extension","type":"bytes","internalType":"bytes"},{"name":"orderHash","type":"bytes32","internalType":"bytes32"},{"name":"taker","type":"address","internalType":"address"},{"name":"makingAmount","type":"uint256","internalType":"uint256"},{"name":"remainingMakingAmount","type":"uint256","internalType":"uint256"},{"name":"extraData","type":"bytes","internalType":"bytes"}],"outputs":[{"name":"","type":"uint256","internalType":"uint256"}],"stateMutability":"view"}],"bytecode":{"object":"0x60808060405234610016576105f7908161001b8239f35b5f80fdfe60806040526004361015610011575f80fd5b5f3560e01c80631d9671c31461005d5763d7ff8a801461002f575f80fd5b34610059576020610051610042366100ad565b979690969591959492946103ec565b604051908152f35b5f80fd5b34610059576020610051610070366100ad565b979690969591959492946102f3565b9181601f840112156100595782359167ffffffffffffffff8311610059576020838186019501011161005957565b907ffffffffffffffffffffffffffffffffffffffffffffffffffffffffffffffffc82016101c0811261005957610100136100595760049167ffffffffffffffff906101043582811161005957816101079160040161007f565b9390939261012435926101443573ffffffffffffffffffffffffffffffffffffffff811681036100595792610164359261018435926101a435918211610059576101539160040161007f565b9091565b7fffffffffffffffffffffffffffffffffffffffff000000000000000000000000903581811693926014811061018c57505050565b60140360031b82901b16169150565b90601f7fffffffffffffffffffffffffffffffffffffffffffffffffffffffffffffffe0910116810190811067ffffffffffffffff8211176101dc57604052565b7f4e487b71000000000000000000000000000000000000000000000000000000005f52604160045260245ffd5b601f82602094937fffffffffffffffffffffffffffffffffffffffffffffffffffffffffffffffe093818652868601375f8582860101520116010190565b949073ffffffffffffffffffffffffffffffffffffffff926102f09a98959997946102c89260e06101c09180358b52602081013560208c0152604081013560408c0152606081013560608c0152608081013560808c015260a081013560a08c015260c081013560c08c0152013560e08a0152806101008a0152880191610209565b97610120860152166101408401526101608301526101808201526101a0818503910152610209565b90565b90979496939594929390601484106103d05761030f8483610157565b60601c9584601411610059576020986014987fffffffffffffffffffffffffffffffffffffffffffffffffffffffffffffffec97610381966040519d8e9c8d9b8c9b7f1d9671c3000000000000000000000000000000000000000000000000000000008d520198019660048b01610247565b03915afa9081156103c5575f91610396575090565b90506020813d6020116103bd575b816103b16020938361019b565b81010312610059575190565b3d91506103a4565b6040513d5f823e3d90fd5b96955050505050506102f0925060a060c0830135920135610508565b909794969395949293906014841061047a576104088483610157565b60601c9584601411610059576020986014987fffffffffffffffffffffffffffffffffffffffffffffffffffffffffffffffec97610381966040519d8e9c8d9b8c9b7fd7ff8a80000000000000000000000000000000000000000000000000000000008d520198019660048b01610247565b975050505050505060a060c083013592013590610498828285610508565b9282156104db5709151581018091116104ae5790565b7f4e487b71000000000000000000000000000000000000000000000000000000005f52601160045260245ffd5b7f4e487b71000000000000000000000000000000000000000000000000000000005f52601260045260245ffd5b90917fffffffffffffffffffffffffffffffffffffffffffffffffffffffffffffffff83830992808302928380861095039480860395146105b3578483111561059b5790829109815f038216809204600280826003021880830282030280830282030280830282030280830282030280830282030280920290030293600183805f03040190848311900302920304170290565b82634e487b715f52156003026011186020526024601cfd5b5050809250156104db57049056fea264697066735822122076b17fceb782061e8c036b310d84d43ac9eaf603510ae9ff69cc8f35b7dd5fbe64736f6c63430008170033","linkReferences":{}},"methodIdentifiers":{"getMakingAmount((uint256,uint256,uint256,uint256,uint256,uint256,uint256,uint256),bytes,bytes32,address,uint256,uint256,bytes)":"1d9671c3","getTakingAmount((uint256,uint256,uint256,uint256,uint256,uint256,uint256,uint256),bytes,bytes32,address,uint256,uint256,bytes)":"d7ff8a80"},"id":50}